:100000000C9446000C9463000C9463000C94630001
:100010000C9463000C9463000C9463000C946300D4
:100020000C9463000C9463000C9463000C946300C4
:100030000C9463000C9463000C9463000C946300B4
:100040000C9487130C9463000C9463000C9463006D
:100050000C9463000C9463000C9463000C94630094
:100060000C9463000C9463000C9463000C94630084
:100070000C9463000C9463000C9463000C94630074
:100080000C9463000C9463000C94630011241FBE55
:10009000CFEFD0E1DEBFCDBF12E0A0E0B1E0EEEFE8
:1000A000FDE202C005900D92A033B107D9F715E02B
:1000B000A0E3B2E001C01D92AD3FB107E1F70E949D
:1000C00064010C94FD160C9400001092980087E6D1
:1000D00080939900EAE9F0E0808188618083089547
:1000E00080939C0080919B0085FFFCCF08958091B8
:1000F0009B0087FFFCCF80919C000895FC018081CC
:10010000882351F080939C0080919B0085FFFCCF59
:10011000319680818823B1F7089512BE87E083BFAE
:1001200081E087BF0895CF93DF9300D000D000D047
:10013000EDB7FEB73196C3E3D3E0ADB7BEB71296C5
:10014000DC93CE93119720E031E0338322839583B3
:1001500084830E942514809133032DB73EB72A5F14
:100160003F4F0FB6F8943EBF0FBE2DBF882359F006
:10017000FE0180939C0080919B0085FFFCCF31960F
:1001800080818823B1F7DF91CF9108959F92AF923C
:10019000BF92CF92DF92EF92FF920F931F93DF9364
:1001A000CF93CDB7DEB76F970FB6F894DEBF0FBE13
:1001B000CDBF7E010894E11CF11C22E0C22ED12C9F
:1001C000CC0EDD1E9EE0A92E91E0B92E85E5982E7D
:1001D00095BA809130029091310262E043E020E0D4
:1001E00030E087010E94DC0E982F89818823B1F5C9
:1001F000E3E0F1E08AE080939C0080919B0085FF22
:10020000FCCF319680818823B1F700D000D000D098
:10021000EDB7FEB73196ADB7BEB71296DC92CE926F
:100220001197B382A282948315820E9425148A8139
:100230002DB73EB72A5F3F4F0FB6F8943EBF0FBEB3
:100240002DBF882359F0F60180939C0080919B007C
:1002500085FFFCCF319680818823B1F78DE390E054
:100260000E949F06B5CFFF920F931F93DF93CF930A
:100270000F92CDB7DEB712BE87E083BF81E087BFA4
:100280008E010F5F1F4F3AEAF32EF5BA80913002CC
:100290009091310262E041E098010E94480E89810C
:1002A000882369F4EAE1F1E08AE080939C00809180
:1002B0009B0085FFFCCF319680818823B1F78DE3C9
:1002C00090E00E949F06E1CF0E94301283E391E00C
:1002D00060E070E046E454E024E00E94AE0886EC62
:1002E00090E060E070E041E353E025E00E94AE085A
:1002F00080E062E373E00E941903909331028093DF
:1003000030021092980087E680939900EAE9F0E0C5
:100310008081886180838FEF84BB0E94B011089533
:10032000FA01808392931292129212921292129276
:10033000129212921292129212921292129212929D
:10034000129212921292129212921292129212928D
:1003500012921292129262937293129212921292CB
:1003600012921292129280E882933197CF010895EF
:100370000895089508950895089508950895089595
:10038000089580914804813009F0089580917A049D
:100390008F3FD9F38F5F80937A040895809148044A
:1003A000813009F00895F894809147048F3F19F047
:1003B0008F5F80934704789408958CEF90E00895C0
:1003C0000895FF920F931F93CF93DF93EC018B015E
:1003D000F42E3981E32FF0E0E05DFE4F2081422FC3
:1003E00050E0FA01E85DFE4F7081DC01A40FB51FFB
:1003F00016969C911697E92FF0E0E05DFE4F808104
:10040000E82FF0E0E85DFE4F6081220F220F220FFF
:10041000280F862F8095892316968C93882321F4A4
:10042000872F809538233983E22FF0E0EE0FFF1FEE
:10043000EF57FA4F0190F081E02D1686158617824E
:100440001682118700878F2D80959785892387874E
:10045000882359F480916E04872B80936E04FA01EF
:10046000E159FB4F8081682B6083822FDF91CF9110
:100470001F910F91FF900895CF93DF93EC01A0910E
:100480007B04B0917C0417969C938E93169752969A
:100490008C915297482F50E053963C915397FA0114
:1004A000E159FB4F832F8095908189238083882396
:1004B000A9F454962C91922F909580916E048923E3
:1004C00080936E04FE01E40FF51F8681832B8683E3
:1004D0008981822B8983DF91CF91089554962C9145
:1004E000F1CFCF93DF93EC01A0917B04B0917C041A
:1004F00052968C915297FE01E80FF11D53968C9104
:1005000053978095968189238683882339F454965E
:100510009C91549790958981892389831F961C9279
:100520001F9717961C921E921697DF91CF910895F0
:10053000FC0111821682178210861186128613869C
:10054000148615860895DC01962FF90147FD2EC00B
:1005500020E01082F894413079F1413050F042307F
:1005600009F438C04330A9F0789487E9808380E0AB
:10057000089513966C911397862F80958923891778
:1005800009F44EC088E9808313966C91862F789485
:10059000089513966C911397892F862349F588E95E
:1005A000808313966C91862F789408954F7721E07D
:1005B0001082F894413089F613966C911397862F28
:1005C00080958923E9F488E9808313966C91862FBE
:1005D0007894089513966C911397892F8623891721
:1005E000B1F088E9808313966C91862F78940895F2
:1005F0002130C9F68095862313968C93682FD3CF2C
:10060000213029F7862B13968C93682FE0CF213069
:1006100061F7892F8095862313968C93682FE5CFF9
:10062000213009F0B3CF862F892B13968C93682F36
:10063000ADCF282FDB0180917A048823D9F4F89478
:10064000E0917F05F0918005309779F0818192816A
:100650009093800580937F0585E0808323831282B9
:10066000118278941C92CF01089578948AE98C9332
:10067000CF0108958DE88C93E0E0F0E0F4CFFC0129
:10068000DB01F894838178941C9208958EE494E0C1
:100690009093800580937F0510924E041092500431
:1006A00010924F040895CF93DF93EC01AC81BD818C
:1006B0001E961C921E921D971C966C931C971F965B
:1006C0008C911F978F7D1F968C931F978823B1F075
:1006D00080E0EA81FB81A881B981309749F1B1833B
:1006E000A083109721F01396FC93EE931297EC8160
:1006F000FD8113861286DF91CF91089580916E045B
:1007000054969C915497892B80936E045296EC9149
:100710005297F0E0E159FB4F808153969C91892BD1
:10072000808381E0EA81FB81A881B9813097B9F6A5
:10073000EE81FF81B283A1831097C9F213961C92B8
:100740001E921297EC81FD8113861286DF91CF9164
:100750000895CF93DF93EC01EA81FB81A881B981F1
:10076000309779F0B183A083109721F01396FC9312
:10077000EE931297EC81FD8113861286DF91CF9163
:100780000895EE81FF81B283A183109799F31396A8
:100790001C921E921297EC81FD8113861286DF91C6
:1007A000CF910895CF93DF93DC01EB0180917A0420
:1007B000882369F4F89412962D913C9113972F3F5A
:1007C00061F07894188280E0DF91CF91089582E003
:1007D000888380E0DF91CF910895E0917B04F091D0
:1007E0007C04808990E02070822B932B13969C933D
:1007F0008E9312971596FC93EE9314977894188223
:1008000081E0DF91CF9108950F931F93CF93DF93F2
:10081000982F8B0180917A04882309F049C0F894BD
:10082000292F30E0F901EE0FFF1FEF57FA4F8081BB
:100830009181892B89F581E090E091838083C0913B
:100840007704D09178042097D9F08C819D81909382
:10085000780480937704789484E08883922F8827A3
:100860008F6F9B838A831D821C82CE010E94980217
:10087000F8011082CE01DF91CF911F910F91089561
:1008800011821082789484E0FB018083CE01DF9195
:10089000CF911F910F910895789488E2FB01808396
:1008A000C0E0D0E0CE01DF91CF911F910F9108956C
:1008B0008DE8FB018083C0E0D0E0DCCFCF93DF93F5
:1008C000EC01DB0180917A04882399F5F8949A81F0
:1008D0008B811B968C931B971A969C931A979F3F1C
:1008E00061F119961C921997898118968C93189723
:1008F0008E81FD0181938F8111968C93DF0111967A
:1009000088858183FD013196898511968C93DF015D
:1009100011968A858183FD0131968B8511968C9382
:100920008C8581838D858283789480E0DF91CF915F
:10093000089586E0DF91CF91089581E019968C9318
:100940001997D2CFFC01F894A481B5811C968D91A2
:100950009C911D970097C9F01896ED91FC911997FD
:10096000219131911996FC93EE93189701971D965A
:100970009C938E931C9714968D919C911597E817D4
:10098000F90741F07894C901089520E030E07894A7
:10099000C901089512968D919C91139719969C9375
:1009A0008E931897EFCFCF93DF939C0180917A04B9
:1009B000882309F047C0F894C0917704D091780457
:1009C000209731F08C819D819093780480937704F7
:1009D0007894209741F1F894E0916C04F0916D04C3
:1009E000309729F18081918190936D0480936C04FC
:1009F000789433832283CB01880F991F820F931F32
:100A00009583848337832683318720877387628722
:100A10001586148682E088831B821A82FD83EC830C
:100A2000CE010E949802CE01DF91CF91089580916E
:100A30007704909178049D838C83D0937804C0933D
:100A400077047894C0E0D0E0CE01DF91CF91089593
:100A5000FC01F8940480F581E02D828193819783D5
:100A600086839187808715861486789480E0089520
:100A7000CF93DF93FC01DB01F89481811E968C9368
:100A80001E97868116968C931697878117968C935E
:100A90001797808518968C931897818519968C9353
:100AA000199782851A968C931A9783851B968C9337
:100AB0001B9784851C968C931C9785851D968C931B
:100AC0001D97C481D5812C853D852115310591F473
:100AD00011961C921E9213963C932E9312978A8520
:100AE0009B8515969C938E931497789480E0DF9164
:100AF000CF910895E885F9858081918111969C9325
:100B00008E93E9CF8CE594E090936D0480936C0410
:100B100010925D0410925C040895CF93DF939C01C2
:100B200080917A048823E9F4F894C0917704D091F5
:100B30007804209731F08C819D8190937804809384
:100B400077047894209749F083E088833B832A8355
:100B50001D821C82CE010E949802CE01DF91CF91AE
:100B60000895C0E0D0E0CE01DF91CF9108958F3F8E
:100B700089F0F894E82FF0E0EE0FFF1FEF57FA4FDF
:100B80000190F081E02D309769F08EE3858B80E055
:100B900078940895F894E0917B04F0917C04858921
:100BA000789408958BE0789408951F93CF93DF9302
:100BB000182FF894C0915904D0915A04209709F441
:100BC00059C08A819B8190935A04809359047894E8
:100BD00079836883188B1F861E861D861D8AE12FE8
:100BE000E695E695E695EA8BF0E0E85DFE4F8081BC
:100BF0008C8BE12FE770E98BF0E0E85DFE4F8081A0
:100C00008B8B1F821E821B861A8619861886CE0140
:100C10000E94C001CE010E94B801F894E12FF0E0DB
:100C2000EE0FFF1FEF57FA4FD183C083E0915304BB
:100C3000F0915404FB83EA831D821C82309711F0EB
:100C4000D583C483D0935404C093530480916E041D
:100C50009C89892B80936E04EA89F0E0E159FB4F6F
:100C600080819B89892B8083789480E0DF91CF916C
:100C70001F910895789486E4DF91CF911F91089594
:100C8000F8948091490490914A04A0914B04B0914A
:100C90004C040196A11DB11D8093490490934A0410
:100CA000A0934B04B0934C0478940E94BF01E8CF0A
:100CB000F89480917A04882309F03FC0809147041A
:100CC0008823D9F5E0916E04F0E0E05DFE4F80816D
:100CD000E82FF0E0E159FB4FE081F0E0E05DFE4FEE
:100CE000982F990F990F990F8081980F90934D0429
:100CF00080915204981709F1E92FF0E0EE0FFF1FE1
:100D0000EF57FA4F8081918190936B0480936A042E
:100D10008091550490915604A0915704B0915804C5
:100D20000196A11DB11D8093550490935604A09384
:100D30005704B09358040E94F312789408959C01CC
:100D4000009721F1F894A0917B04B0917C04529615
:100D5000EC915297F0E0E159FB4F53968C915397E9
:100D60008095908189238083882349F454969C91AF
:100D70005497909580916E04892380936E041E96FB
:100D80003C932E931D9778940E94580608958F9255
:100D90009F92AF92BF92CF92DF92EF92FF920F930A
:100DA0001F93CF93DF93882E162F942E8823C9F09C
:100DB0001C3300F58BE3891590F093E0283E39074A
:100DC000D8F083E5DF91CF911F910F91FF90EF90C5
:100DD000DF90CF90BF90AF909F908F90089582E565
:100DE000F1CF662329F7442329F72115310529F787
:100DF00084E5E8CF81E5E6CFB90180E090E02DE31E
:100E000030E040E050E00E94E41368517E4F8F4F85
:100E10009F4F28EE33E040E050E00E940314590158
:100E20006A01612F70E080E090E02CE330E040E068
:100E300050E00E94E4137B018C01E90CF11C011DC0
:100E4000111D682D70E080E090E020E13EE040E080
:100E500050E00E94E413E60EF71E081F191FC80198
:100E6000B7012DE330E040E050E00E94E413A60E0D
:100E7000B71EC81ED91E760100271127E7018FEF84
:100E80009FEFA0E0B0E0A822B922CA22DB22C50170
:100E90000E949F06EF2851F080E090E80E949F0694
:100EA00080E090E80E949F062197B1F780E08ACF0A
:100EB000F8948F3FB9F1E0917B04F0917C04E089D4
:100EC000E81771F1E82F20E0F0E0EE0FFF1FEF5779
:100ED000FA4FA081B181109761F15296EC9152972F
:100EE000F0E0E159FB4F53968C9153978095908198
:100EF00089238083882349F454969C915497909534
:100F000080916E04892380936E041F968C911F97A5
:100F100088601F968C937894213071F080E008955A
:100F200021E0D2CFE0917B04F0917C04E08921E0C4
:100F3000CBCF78948AE508950E94580680E0089502
:100F4000E82FF894F0E0EE0FFF1FEF57FA4FA08163
:100F5000B1811097B9F01F968C911F9783FD03C044
:100F6000789485E60895877F1F968C931F97882332
:100F700031F41D968D919C911E97892B31F07894B8
:100F800080E00895789484E6089580916E045496E4
:100F90009C915497892B80936E045296EC915297B2
:100FA000F0E0E159FB4F808153969C91892B80831F
:100FB00078940E94580680E008950F931F93CF9372
:100FC000DF93E82F80917A04882309F088C0F89491
:100FD000EF3F09F49FC00E2F10E0000F111FF80122
:100FE000EF57FA4FC081D181209709F499C08A89BF
:100FF000482F50E02B892095FA01E159FB4F808161
:1010000082238083882309F474C0AE81BF81109746
:1010100049F0FD01E40FF51F868182238683882332
:1010200009F46FC08A859B850097E1F0DC01129678
:101030002D913C9113970D90BC91A02D2115310558
:1010400009F47EC0F901B183A083109721F01396B3
:101050003C932E931297DC011496ED91FC91159719
:10106000138612861E861D861F86809147048F3F39
:1010700019F08F5F809347047894F8948823A9F53A
:10108000CE010E94B90180915B04815080935B0482
:101090000F571A4FF80111821082AC81BD81109751
:1010A00009F445C08A819B8113969C938E93129775
:1010B000EA81FB81B583A4838091590490915A04FD
:1010C0009B838A83D0935A04C093590478940E94D6
:1010D000580680E0DF91CF911F910F9108958FE323
:1010E000DF91CF911F910F91089581508093470414
:1010F000C7CF9C89909580916E04892380936E045C
:1011000084CF9C89909511968C9111978923119683
:101110008C9388CFE0917B04F0917C04E0895BCFD5
:1011200078948CE3DF91CF911F910F910895EA811C
:10113000FB8115821482F0935404E0935304BCCFD6
:10114000FC0126813781F901B283A183109709F44C
:1011500082CF13961C921E9212977DCFAF92BF92B0
:10116000CF92DF92EF92FF920F931F93CF93DF9373
:10117000FC01122FF894C22FD0E0CC0FDD1FCF5707
:10118000DA4F88819981892B71F0789418E2812F48
:10119000DF91CF911F910F91FF90EF90DF90CF9053
:1011A000BF90AF90089581E090E099838883789410
:1011B000CF0120E030E00E949001BC01812F40E08F
:1011C00050E020E030E0EE24FF248701CC24DD2431
:1011D000AA24BB240E94D505182F882371F4F89403
:1011E00080915B048F5F80935B04789480914804C6
:1011F000813069F60E945806CACFF8941982188285
:101200007894C5CFFC01F8948181882379F4828198
:1012100093812FEF8F3F920731F001969383828362
:10122000789480E00895789482E30895CF0160E097
:1012300070E041E00E94E10178940E94580680E04D
:1012400008950F931F93CF93DF93EC018A01809150
:101250007A04882309F075C0F8948A819B810097ED
:1012600009F064C0A0917B04B0917C041F968C911E
:101270001F9781601F968C931F971E967C936E9389
:101280001D971796DC93CE93169752968C91529792
:10129000482F50E053963C915397FA01E159FB4F88
:1012A000832F8095908189238083882309F451C0FE
:1012B00054962C91FE01E40FF51F8681832B8683C3
:1012C0008981822B898378940E945806F894A09192
:1012D0007B04B0917C041F968C911F9780FF43C0C4
:1012E00052968C915297FE01E80FF11D53968C9106
:1012F00053978095968189238683882339F4549661
:101300009C91549790958981892389831F961C927B
:101310001F9717961C921E92169778948AE0F801F0
:101320008083DF91CF911F910F91089501979B8347
:101330008A837894FA011082DF91CF911F910F91E7
:10134000089582E0FA018083DF91CF911F910F9180
:10135000089554962C91922F909580916E04892334
:1013600080936E04A7CF17961C921E9216977894BE
:10137000F8011082DF91CF911F910F9108950F9383
:101380001F93CF93DF93EC018B01F894898188231D
:1013900099F040FF46C0CE01B80144E00E94E1014F
:1013A00089818823C1F778940E94580680E0DF91F4
:1013B000CF911F910F910895AC81BD811C962D9105
:1013C0003C911D971A968D919C911B972817390770
:1013D00038F078948EE1DF91CF911F910F910895AD
:1013E00041FF24C01896ED91FC91199712968D91AA
:1013F0009C911397E817F90799F132971996FC9386
:10140000EE931897118300832F5F3F4F1D963C93F7
:101410002E931C97789480E0DF91CF911F910F91CC
:101420000895CE0144E00E94E101BDCF1696ED91F2
:10143000FC911797619371931796FC93EE9316970F
:1014400014968D919C911597E817F907E9F6129675
:101450008D919C91139717969C938E931697D4CF4A
:101460001496ED91FC9115971996FC93EE931897AD
:10147000C4CFFC01F8948181882359F5A481B581FA
:101480001C962D913C911D971A968D919C911B97BE
:101490002817390718F078948EE108951896ED9181
:1014A000FC91199712968D919C911397E817F90763
:1014B000C9F032971996FC93EE9318977183608365
:1014C0002F5F3F4F1D963C932E931C97789480E09E
:1014D0000895CF0144E00E94E10178940E945806EB
:1014E00080E008951496ED91FC9115971996FC9360
:1014F000EE931897DECFFC01F8948181882351F593
:10150000A481B5811C962D913C911D971A968D91C1
:101510009C911B972817390718F078948EE108954D
:101520001696ED91FC911797619371931796FC9322
:10153000EE9316972F5F3F4F1D963C932E931C976B
:1015400014968D919C911597E817F90761F078949E
:1015500080E00895CF0144E00E94E10178940E9468
:10156000580680E0089512968D919C9113971796D6
:101570009C938E931697EBCF0F931F93CF93DF938C
:10158000EC018A0180917A04882309F08FC0F894D5
:10159000AC81BD811C968D919C911D97009709F09F
:1015A0005DC0A0917B04B0917C041F968C911F9725
:1015B00084601F968C931F971E967C936E931D9745
:1015C0001796DC93CE93169752968C915297282FAC
:1015D00030E053964C915397F901E159FB4F842F1A
:1015E0008095908189238083882349F454969C9127
:1015F0005497909580916E04892380936E04FE0128
:10160000E20FF31F8681842B8683898154969C91F7
:10161000892B898378940E945806F894A0917B04C2
:10162000B0917C0418962D913C91199721153105A4
:1016300009F442C019961C921E9218971F961C928C
:101640001F9717961C921E9216977894F801108295
:10165000C901DF91CF911F910F9108951896ED91D7
:10166000FC911997219131911996FC93EE9318975B
:1016700001971D969C938E931C9714968D919C9127
:101680001597E817F90749F07894F8011082C90115
:10169000DF91CF911F910F91089512968D919C919A
:1016A000139719969C938E931897EECF82E0FA01C8
:1016B000808320E030E0CCCF52968C915297FE018F
:1016C000E80FF11D53968C9153978095968189234D
:1016D0008683882339F454969C91549790958981F8
:1016E000892389831F961C921F9717961C921E921E
:1016F000169778948AE0F8018083AACFEF92FF9240
:101700001F93CF93DF93EC017A0180917A048823B1
:1017100009F057C0F8941981112379F4662381F0F8
:101720006130E1F0789487E0F7018083CE01DF91AA
:10173000CF911F91FF90EF90089511E0662381F7FC
:10174000112309F444C0789488E0F7018083CE0126
:10175000DF91CF911F91FF90EF900895112349F0F1
:10176000CE0160E070E044E00E94E10189818823BD
:10177000B9F7EC81FD8180916C0490916D049183A7
:101780008083F0936D04E0936C0418828091770459
:10179000909178049D838C83D0937804C0937704D0
:1017A0007894113059F0F7011082C0E0D0E0CE01FA
:1017B000DF91CF911F91FF90EF9008950E945806FE
:1017C000F2CF8CE8FA018083C0E0D0E0AFCFEC81AB
:1017D000FD8180916C0490916D0491838083F093DE
:1017E0006D04E0936C0418828091770490917804E2
:1017F0009D838C83D0937804C09377047894F70109
:101800001082C0E0D0E092CFCF93DF93EC018091C3
:101810007A048823A1F4F8943A814B81A0917B0447
:10182000B0917C0450968C915097841761F03817D2
:1018300009F454C0789488E7DF91CF91089585E04A
:10184000DF91CF9108955296EC915297F0E0E159D3
:10185000FB4F53968C915397809590818923808379
:10186000882349F454969C915497909580916E04E6
:10187000892380936E0450963C935097E32FE6950E
:10188000E695E6955296EC935297F0E0E85DFE4FB0
:10189000208154962C935497E32FE7705196EC9344
:1018A0005197F0E0E85DFE4F908153969C935397DB
:1018B00080916E04822B80936E045296EC91529725
:1018C000F0E0E159FB4F8081982B9083E32FF0E00B
:1018D000EE0FFF1FEF57FA4FB183A083E42FF0E024
:1018E000EE0FFF1FEF57FA4F81E090E09183808366
:1018F0008981882361F48A819B818F6F9B838A838E
:101900001D821C82789480E0DF91CF910895CE01F2
:1019100060E070E040E10E94E101E82FF0E08A81A0
:101920009B8180708E2B9F2B9B838A83EE0FFF1FE2
:10193000EF57FA4F808191819D838C8378940E9428
:10194000580680E079CFEF92FF920F931F93CF93C9
:10195000DF938C017A0180917A04882309F0DDC03D
:10196000F894F801228133812F3F09F4EEC0432F10
:10197000D8011496CD91DC9115978889831709F4C5
:101980005CC0A0917B04B0917C0450968C915097E0
:10199000821708F056C08A89E82FF0E0E159FB4F22
:1019A00050819B89852F892369F1892F8095852313
:1019B0008083882339F49C89909580916E048923D3
:1019C00080936E04488BE42FE695E695E695EA8BC6
:1019D000F0E0E85DFE4F20812C8BE42FE770E98B6F
:1019E000F0E0E85DFE4F90819B8B80916E04822B2E
:1019F00080936E04EA89F0E0E159FB4F8081982BD7
:101A0000908313C0388BE32FE695E695E695EA8B35
:101A1000F0E0E85DFE4F80818C8BE32FE770E98B6F
:101A2000F0E0E85DFE4F80818B8BE42FF0E0EE0F5D
:101A3000FF1FEF57FA4FD183C083A0917B04B09171
:101A40007C041F968C911F9780611F968C931F9723
:101A50001E967C936E931D9717961C930E93169764
:101A600052968C915297282F30E053964C91539771
:101A7000F901E159FB4F842F809590818923808360
:101A8000882349F454969C915497909580916E04C4
:101A9000892380936E04F801E20FF31F8681842B63
:101AA0008683F801818154969C91892B8183789457
:101AB0000E945806F894A0917B04B0917C041F9674
:101AC0008C911F9784FF33C052968C915297F801E6
:101AD000E80FF11D53968C91539780959681892339
:101AE0008683882341F454969C9154979095F801ED
:101AF0008181892381831F961C921F9717961C92C0
:101B00001E92169778948AE0D7018C93DF91CF913B
:101B10001F910F91FF90EF90089582E0DA018C936E
:101B2000DF91CF911F910F91FF90EF90089517963D
:101B30001C921E9216977894F7011082DF91CF9134
:101B40001F910F91FF90EF900895C90180709383CA
:101B50008283E0917B04F0917C04208930E0282B83
:101B6000392BD80113963C932E9312971596FC931C
:101B7000EE9314977894FA011082DF91CF911F9120
:101B80000F91FF90EF900895FF920F931F93CF93C3
:101B9000DF93EC018A0180917A04882331F5F8946F
:101BA000F980FF20E9F4662371F4FF2009F457C09F
:101BB000789488E0F8018083CE01DF91CF911F9166
:101BC0000F91FF9008956130D1F0789487E0F8018B
:101BD0008083CE01DF91CF911F910F91FF900895E7
:101BE000FF24F394662309F3EECF8CE8FA01808397
:101BF000CE01DF91CF911F910F91FF900895FF20AB
:101C000049F0CE0160E070E040E10E94E10189818D
:101C10008823B9F7EB81F0E0EE0FFF1FEF57FA4F83
:101C200011821082188280917704909178049D83AC
:101C30008C83D0937804C09377047894F1E0FF16F6
:101C400059F0F8011082C0E0D0E0CE01DF91CF91D1
:101C50001F910F91FF9008950E945806F2CFEB81DB
:101C6000F0E0EE0FFF1FEF57FA4F1182108218823B
:101C700080917704909178049D838C83D09378042D
:101C8000C09377047894F8011082C0E0D0E0B0CF20
:101C9000CF92DF92EF92FF920F931F93DF93CF9338
:101CA0000F92CDB7DEB78C017901F894442309F087
:101CB00071C06095FC01838186238383F801C18014
:101CC000D280C114D10409F475C0198210C0F60184
:101CD0006085F8018381809586236817C9F0F60135
:101CE000808191819C0169012115310501F1F60185
:101CF0008185813089F1813050F3823009F43BC015
:101D0000833069F7F6016085F8018381682339F330
:101D1000C6010E945303813011F7F1E0F983F60107
:101D2000808191819C0169012115310501F7789429
:101D3000F981F13009F43BC0F894F801838178947B
:101D4000F70110820F90CF91DF911F910F91FF90BB
:101D5000EF90DF90CF900895F80163816095F601D0
:101D60008085682309F4BBCFC6010E9453038130EC
:101D700009F0B5CFD2CFF6016085F80183818623C3
:101D8000681709F0ACCFC6010E945303813009F0F7
:101D9000A6CFC3CF413031F0789489E9F90180832F
:101DA00080E0D0CFFC018381862B838387CF0E9484
:101DB0005806C2CF1982BBCFDF92EF92FF920F93EA
:101DC0001F93DF93CF93CDB7DEB72B970FB6F89461
:101DD000DEBF0FBECDBF7C01562FD42E80917A047A
:101DE000882309F075C047FD92C01B86F894E1E096
:101DF000DE1609F495C0DE1608F07CC0F701938169
:101E0000892F80958523851709F4B8C1A0917B049B
:101E1000B0917C041F968C911F9780621F968C93C3
:101E20001F971E963C932E931D97CE0101961B96ED
:101E30009C938E931A975987BE83AD83F7012181B6
:101E400032813A8329831C821B82F886EF82211516
:101E5000310519F0F90193838283F701928381831D
:101E60005296EC915297F0E0E159FB4F53968C91CA
:101E700053978095908189238083882309F450C1EA
:101E80001A8678940E945806F89420917B04309129
:101E90007C04F901878585FF53C0EB81FC81A98112
:101EA000BA81309709F483C1B183A083109721F0E0
:101EB0001396FC93EE931297ED81FE8113861286A2
:101EC000F901178678948AE0F801808380E004C0E5
:101ED00082E0F801808380E02B960FB6F894DEBF95
:101EE0000FBECDBFCF91DF911F910F91FF90EF906B
:101EF000DF900895F2E0DF1609F43CC083E0D816C5
:101F000051F1789487E9F801808380E0E5CFFFE71D
:101F1000DF2281E08B87F894E1E0DE1609F06BCFD9
:101F2000F7019381692F6095652309F4B4C0FB859F
:101F3000F13009F404C1892F7894F8011082CCCFD4
:101F4000FB85F13009F401C1F7019381892F789461
:101F5000F8011082C1CFF7019381852F892309F4FD
:101F600055C0FB85F13009F4E4C0892F7894F8015D
:101F70001082B2CFF7019381852F8923851709F449
:101F8000EFC0A0917B04B0917C041F968C911F97A9
:101F900080621F968C931F971E963C932E931D97DD
:101FA000CE0101961B969C938E931A975987BE83F8
:101FB000AD83F701218132813A8329831C821B8200
:101FC000F886EF822115310519F0F9019383828398
:101FD000F701928381835296EC915297F0E0E15998
:101FE000FB4F53968C9153978095908189238083E2
:101FF000882341F454969C91909580916E04892396
:1020000080936E0482E08A8778943CCFA0917B0411
:10201000B0917C041F968C911F9780621F968C93C1
:102020001F971E963C932E931D97CE0101961B96EB
:102030009C938E931A975987BE83AD83F7012181B4
:1020400032813A8329831C821B82F886EF82211514
:10205000310519F0F90193838283F701928381831B
:102060005296EC915297F0E0E159FB4F53968C91C8
:1020700053978095908189238083882341F45496D7
:102080009C91909580916E04892380936E0483E0E7
:102090008A877894F7CEA0917B04B0917C041F9638
:1020A0008C911F9780621F968C931F971E963C936E
:1020B0002E931D97CE0101961B969C938E931A9793
:1020C0005987BE83AD83F701218132813A83298309
:1020D0001C821B82F886EF822115310519F0F90167
:1020E00093838283F701928381835296EC91529776
:1020F000F0E0E159FB4F53968C9153978095908176
:1021000089238083882341F454969C9190958091F3
:102110006E04892380936E0481E08A877894B2CE1E
:1021200054969C91909580916E04892380936E04BF
:10213000A7CE80958923F7018383982F16CF862F0A
:10214000892BF7018383982FF6CEF1E0FD1518F166
:10215000F7019381F9018485982BF7019383F6CEDB
:10216000FB85F13031F4852F80958923F701838336
:10217000982F892F7894F8011082AECEFB85F1302C
:1021800029F4892F852BF7018383982F892F789441
:10219000F8011082A1CE83E08D1508F4D5CEF901A7
:1021A00084858095F701938198239383CFCEEF8127
:1021B000F885B283A183109709F47ECE13961C9202
:1021C0001E92129779CEDF92EF92FF920F931F9398
:1021D000CF93DF938C017A0180917A048823D1F523
:1021E000F894F80121813281DD242115310511F0A7
:1021F000DD24D394662339F4DD20D9F1789488E086
:10220000F70180832AC0613061F0789487E0F7019C
:10221000808323C0CE0160E00E94530388819981AE
:102220009C01E90121153105A9F7F801108280917F
:102230007F059091800592838183109380050093A0
:102240007F057894F1E0DF1689F0F701108200E055
:1022500010E003C08CE8FA018083C801DF91CF91C0
:102260001F910F91FF90EF90DF9008950E94580604
:10227000ECCFF801108280917F05909180059283C8
:1022800081831093800500937F057894F701108275
:1022900000E010E0E2CF80914804813009F0089519
:1022A000F89480914704882359F081508093470423
:1022B000882321F480917A04882321F0789408956A
:1022C0007894089578940E94580608950E94BC015D
:1022D00080914804813009F00895A0915304B09191
:1022E000540450968C9150978D33B1F320916E0425
:1022F00041E050E01AC054968C915497282B529686
:10230000EC915297F0E0E159FB4F808153969C91FC
:102310005397892B808312960D90BC91A02D7894B1
:1023200050968C9150978D33C1F0F8941D968D91F5
:102330009C911E97009779F301971E969C938E931C
:102340001D97892B41F71F968C911F9783FFD3CF41
:102350001E965C934E931D97DECF20936E040895D6
:102360008091480481110895E0916E04F0E0E05DF1
:10237000FE4FA081EA2FF0E0E159FB4FE081F0E051
:10238000E05DFE4FAA0FAA0FAA0F8081A80FA093AD
:102390004D04A0935204B0E0AA0FBB1FAF57BA4F31
:1023A0008D919C9190936B0480936A0490937C042C
:1023B00080937B040E94C11208958091480481306B
:1023C00009F00895F89480917A04882339F08150B7
:1023D00080937A04882311F07894089580914704BB
:1023E0008823D1F7E0916E04F0E0E05DFE4F80813C
:1023F00080937904E82FF0E0E159FB4FE081F0E0B1
:10240000E05DFE4F982F990F990F990F8081980FDB
:1024100090934D04809152049817F1F2E92FF0E067
:10242000EE0FFF1FEF57FA4F8081918190936B045D
:1024300080936A048091550490915604A0915704AA
:10244000B09158040196A11DB11D8093550490933D
:102450005604A0935704B09358040E945213BCCF63
:102460000E94BD0110927A041092470410925B04FE
:10247000109248041092550410925604109257047A
:10248000109258041092490410924A0410924B047E
:1024900010924C0410926E04EFE6F4E0119284E086
:1024A000E737F807D9F71092520410924D041092B2
:1024B0006B0410926A0410927C0410927B041092B8
:1024C000540410925304E1E8F5E01192119285E072
:1024D000ED3FF807D1F78DE395E090932A058093BF
:1024E000290546969093400580933F054696909324
:1024F00056058093550510926C0510926B05825419
:10250000904090935A04809359041092FD048BE0FC
:1025100095E0909302058093010510920B050E96AD
:102520009093100580930F054C9710921905109207
:102530001E0510921D0590937804809377048EE415
:1025400094E09093800580937F0510924E04109242
:10255000500410924F048CE594E090936D048093A6
:102560006C0410925D0410925C0480E496E060E0DC
:1025700070E04CEF54E02DE30E94AE080E94BE01D3
:1025800008950E94BA0100914804039500934804FD
:10259000E0916A04F0916B04C191CDBFD191DEBF8F
:1025A0000F910FBFFF91EF91DF91CF91BF91AF914D
:1025B0009F918F917F916F915F914F913F912F915B
:1025C0001F910F91FF90EF90DF90CF90BF90AF9051
:1025D0009F908F907F906F905F904F903F902F9043
:1025E0001F900F9008950F921F922F923F924F923B
:1025F0005F926F927F928F929F92AF92BF92CF9293
:10260000DF92EF92FF920F931F932F933F934F937D
:102610005F936F937F938F939F93AF93BF93CF936A
:10262000DF93EF93FF930FB70F93E0917B04F0914B
:102630007C04CDB7C193DEB7D1930E94BA0100915B
:102640004D0400935204E0916A04F0916B04E0930E
:102650007B04F0937C04C191CDBFD191DEBF0F917B
:102660000FBFFF91EF91DF91CF91BF91AF919F91FC
:102670008F917F916F915F914F913F912F911F911A
:102680000F91FF90EF90DF90CF90BF90AF909F9011
:102690008F907F906F905F904F903F902F901F9002
:1026A0000F9008950E94BA0100914D0400935204C6
:1026B000E0916A04F0916B04E0937B04F0937C0456
:1026C000C191CDBFD191DEBF0F910FBFFF91EF91AF
:1026D000DF91CF91BF91AF919F918F917F916F913A
:1026E0005F914F913F912F911F910F91FF90EF902C
:1026F000DF90CF90BF90AF909F908F907F906F9022
:102700005F904F903F902F901F900F9008950F92E1
:102710001F922F923F924F925F926F927F928F9271
:102720009F92AF92BF92CF92DF92EF92FF920F9360
:102730001F932F933F934F935F936F937F938F9349
:102740009F93AF93BF93CF93DF93EF93FF930FB715
:1027500000680F9300917A04039500937A04013086
:1027600041F4CDB7DEB7E0917B04F0917C04C193D6
:10277000D19300E002BF78940E94661100000E948D
:10278000DD110F910FBFFF91EF91DF91CF91BF91BD
:10279000AF919F918F917F916F915F914F913F91F9
:1027A0002F911F910F91FF90EF90DF90CF90BF90EE
:1027B000AF909F908F907F906F905F904F903F90E1
:1027C0002F901F900F900895629FD001739FF0018A
:1027D000829FE00DF11D649FE00DF11D929FF00DB1
:1027E000839FF00D749FF00D659FF00D9927729FE8
:1027F000B00DE11DF91F639FB00DE11DF91FBD0173
:10280000CF0111240895A1E21A2EAA1BBB1BFD01C2
:102810000DC0AA1FBB1FEE1FFF1FA217B307E407BF
:10282000F50720F0A21BB30BE40BF50B661F771F17
:10283000881F991F1A9469F76095709580959095F7
:102840009B01AC01BD01CF010895AEE0B0E0EBE229
:10285000F4E10C94D4160D891E8986E08C831A83CA
:1028600009838FEF9FE79E838D839E01275E3F4FF5
:10287000CE0101966F89788DA9010E9449142F819C
:102880003885020F131FF80110822E96E4E00C9495
:10289000F016ABE0B0E0EFE4F4E10C94C6163C01B6
:1028A0002B015A01FC0117821682838181FD03C02E
:1028B0006FEF7FEFC6C19AE0892E1E010894211C9C
:1028C000311CF3012381F20123FD859123FF8191C6
:1028D0002F01882309F4B2C1853239F423FD859193
:1028E00023FF81912F01853229F490E0B3010E94EA
:1028F0003C16E7CF982FFF24EE249924FFE1FF1523
:10290000D0F09B3269F09C3228F4903259F0933227
:1029100091F40EC09D3249F0903369F441E024C037
:1029200052E0F52A84E0F82A28C098E0F92A25C068
:10293000E0E1FE2A22C0F7FC29C0892F80538A30AB
:1029400070F4F6FE05C0989C902C1124980E15C0CA
:10295000E89CE02C1124E80EF0E2FF2A0EC09E3223
:1029600029F4F6FC6BC140E4F42A07C09C3619F444
:1029700050E8F52A02C0983649F4F20123FD9591FA
:1029800023FF91912F01992309F0B8CF892F855406
:10299000833018F08052833038F444E050E0A40EC5
:1029A000B51E5FE359830FC0933631F0933779F04A
:1029B000933509F056C020C0F5018081898342E03B
:1029C00050E0A40EB51E610101E010E012C0F50157
:1029D000C080D180F6FC03C06FEF7FEF02C0692D8D
:1029E00070E042E050E0A40EB51EC6010E94311610
:1029F0008C015FE7F52214C0F501C080D180F6FCA0
:102A000003C06FEF7FEF02C0692D70E042E050E03D
:102A1000A40EB51EC6010E9426168C0150E8F52AA8
:102A2000F3FE07C01AC080E290E0B3010E943C169A
:102A3000EA948E2D90E008171907A8F30EC0F6014E
:102A4000F7FC8591F7FE81916F0190E0B3010E9440
:102A50003C16E110EA94015010400115110579F778
:102A6000EAC0943611F0993669F5F7FE08C0F50111
:102A7000208131814281538184E090E00AC0F501D8
:102A8000808191819C01442737FD4095542F82E03D
:102A900090E0A80EB91E9FE6F92257FF09C0509595
:102AA0004095309521953F4F4F4F5F4FE0E8FE2A0C
:102AB000CA01B901A1012AE030E00E946816D82EAF
:102AC000D21840C0953729F41F2D1F7E2AE030E030
:102AD0001DC01F2D197F9F3661F0903720F4983567
:102AE00009F0ACC00FC0903739F0983709F0A6C094
:102AF00004C028E030E00AC0106114FD146020E139
:102B000030E004C014FD166020E132E017FF08C079
:102B1000F501608171818281938144E050E008C0B9
:102B2000F50180819181BC0180E090E042E050E0BD
:102B3000A40EB51EA1010E946816D82ED2188FE7E8
:102B4000F82EF122F6FE0BC05EEFF522D91438F410
:102B5000F4FE07C0F2FC05C08FEEF82202C01D2D66
:102B600001C0192DF4FE0DC0FE01ED0DF11D808197
:102B7000803319F499EEF92208C01F5FF2FE05C0F8
:102B800003C08F2D867809F01F5F0F2DF3FC14C052
:102B9000F0FE0FC01E1510F09D2C0BC09D2C9E0C3E
:102BA000911A1E2D06C080E290E0B3010E943C16EF
:102BB0001F5F1E15C0F304C01E1510F4E11A01C0FA
:102BC000EE2404FF0FC080E390E0B3010E943C16A6
:102BD00002FF1DC001FD03C088E790E00EC088E53C
:102BE00090E00BC0802F867891F001FF02C08BE24D
:102BF00001C080E2F7FC8DE290E0B3010E943C1638
:102C000006C080E390E0B3010E943C169A94D91468
:102C1000C0F3DA94F101ED0DF11D808190E0B30174
:102C20000E943C16DD20A9F706C080E290E0B301C7
:102C30000E943C16EA94EE20C1F743CEF301668170
:102C40007781CB012B96E2E10C94E216FC01059012
:102C5000615070400110D8F7809590958E0F9F1F9E
:102C60000895FC016150704001900110D8F78095E3
:102C700090958E0F9F1F08950F931F93CF93DF930F
:102C80008C01EB018B8181FF1BC082FF0DC02E8167
:102C90003F818C819D812817390764F4E881F9818F
:102CA0000193F983E88306C0E885F985802F0995AB
:102CB000892B31F48E819F8101969F838E8302C080
:102CC0000FEF1FEFC801DF91CF911F910F91089572
:102CD000FA01AA27283051F1203181F1E8946F934D
:102CE0006E7F6E5F7F4F8F4F9F4FAF4FB1E03ED0F3
:102CF000B4E03CD0670F781F891F9A1FA11D680F91
:102D0000791F8A1F911DA11D6A0F711D811D911DC3
:102D1000A11D20D009F468943F912AE0269F112438
:102D20003019305D3193DEF6CF010895462F47709C
:102D3000405D4193B3E00FD0C9F7F6CF462F4F70F7
:102D4000405D4A3318F0495D31FD4052419302D055
:102D5000A9F7EACFB4E0A6959795879577956795FB
:102D6000BA95C9F700976105710508959B01AC01FB
:102D70000A2E06945795479537952795BA95C9F722
:102D8000620F731F841F951FA01D08952F923F92FD
:102D90004F925F926F927F928F929F92AF92BF926B
:102DA000CF92DF92EF92FF920F931F93CF93DF9317
:102DB000CDB7DEB7CA1BDB0B0FB6F894DEBF0FBE74
:102DC000CDBF09942A88398848885F846E847D84C1
:102DD0008C849B84AA84B984C884DF80EE80FD80C3
:102DE0000C811B81AA81B981CE0FD11D0FB6F89439
:0E2DF000DEBF0FBECDBFED010895F894FFCFFA
:102DFE002564000A466C61672072656164000A46AC
:102E0E006C616773203D202570000A466C61672057
:102E1E0075706461746564000102040810204080BE
:102E2E000000010002000100030001000200010089
:102E3E000400010002000100030001000200010075
:102E4E000500010002000100030001000200010064
:102E5E000400010002000100030001000200010055
:102E6E000600010002000100030001000200010043
:102E7E000400010002000100030001000200010035
:102E8E000500010002000100030001000200010024
:102E9E000400010002000100030001000200010015
:102EAE000700010002000100030001000200010002
:102EBE0004000100020001000300010002000100F5
:102ECE0005000100020001000300010002000100E4
:102EDE0004000100020001000300010002000100D5
:102EEE0006000100020001000300010002000100C3
:102EFE0004000100020001000300010002000100B5
:102F0E0005000100020001000300010002000100A3
:102F1E000400010002000100030001000200010094
:00000001FF
