:100000000C9446000C9463000C9463000C94630001
:100010000C9463000C9463000C9463000C946300D4
:100020000C9463000C9463000C9463000C946300C4
:100030000C9463000C9463000C9463000C946300B4
:100040000C9423090C9463000C9463000C946300DB
:100050000C9463000C9463000C9463000C94630094
:100060000C9463000C9463000C9463000C94630084
:100070000C9463000C9463000C9463000C94630074
:100080000C9463000C9463000C94630011241FBE55
:10009000CFEFD0E1DEBFCDBF12E0A0E0B1E0E6E3FC
:1000A000F9E102C005900D92A83CB107D9F716E01E
:1000B000A8ECB2E001C01D92A537B107E1F70E949C
:1000C00062010C94990C0C9400001092980087E641
:1000D00080939900EAE9F0E0808188618083089547
:1000E00080939C0080919B0085FFFCCF08958091B8
:1000F0009B0087FFFCCF80919C000895FC018081CC
:10010000882351F080939C0080919B0085FFFCCF59
:10011000319680818823B1F7089512BE87E083BFAE
:1001200081E087BF0895CF93DF9300D000D000D047
:10013000EDB7FEB73196C6EFD3E0ADB7BEB71296B6
:10014000DC93CE93119720E031E0338322839583B3
:1001500084830E94C1098091F6032DB73EB72A5FC0
:100160003F4F0FB6F8943EBF0FBE2DBF882359F006
:10017000FE0180939C0080919B0085FFFCCF31960F
:1001800080818823B1F7DF91CF910895DF92EF92BC
:10019000FF920F931F93DF93CF93CDB7DEB72F97C7
:1001A0000FB6F894DEBF0FBECDBF8E010F5F1F4F9D
:1001B00099E2E92E91E0F92E85E5D82ED5BAE3E053
:1001C000F1E08AE080939C0080919B0085FFFCCF4A
:1001D000319680818823B1F7879962C000D000D022
:1001E00000D0EDB7FEB73196ADB7BEB712961C93EF
:1001F0000E931197F382E2828091F4039091F503BC
:10020000958384830E94C10989812DB73EB72A5FF7
:100210003F4F0FB6F8943EBF0FBE2DBF882359F055
:10022000F80180939C0080919B0085FFFCCF319664
:1002300080818823B1F7E7E3F1E08AE080939C00B6
:1002400080919B0085FFFCCF319680818823B1F798
:10025000A091F403B091F5038C91882359F0FD012E
:1002600080939C0080919B0085FFFCCF319680811C
:100270008823B1F78091F2039091F303BD010E94AE
:100280006C03882369F4E7E5F1E08AE080939C0041
:1002900080919B0085FFFCCF319680818823B1F748
:1002A000E9E1F1E08AE080939C0080919B0085FF6A
:1002B000FCCF319680818823B1F78DE390E00E94D6
:1002C000D6047CCFEF92FF920F931F930E94D70723
:1002D00083EA91E060E070E049E055E024E00E94AC
:1002E0009E0686EC90E060E070E047EC53E025E08D
:1002F0000E949E0688EC93E042E050E060E070E0EF
:100300000AE010E020E030E0EAE0EE2EE5E0FE2E2C
:100310000E94AB029093F3038093F2031092980033
:1003200087E680939900EAE9F0E080818861808324
:100330008FEF84BB11BA82BB0E9457071F910F91A8
:10034000FF90EF900895BF92CF92DF92EF92FF92CD
:100350000F931F93DF93CF93CDB7DEB760970FB6A0
:10036000F894DEBF0FBECDBF12BE87E083BF81E031
:1003700087BF7E010894E11CF11CA2E0CA2ED12C9B
:10038000CC0EDD1E09E211E0FAEABF2EB5BAE7E6AF
:10039000F1E08AE080939C0080919B0085FFFCCF78
:1003A000319680818823B1F7869B12C0EDE7F1E09A
:1003B0008AE080939C0080919B0085FFFCCF319662
:1003C00080818823B1F78DE390E00E94D604DECFD0
:1003D0008091F2039091F303B7010E94430390933D
:1003E000F1038093F003009709F300D000D000D010
:1003F000EDB7FEB73196ADB7BEB71296DC92CE928E
:10040000119713830283958384830E94C1098A8193
:100410002DB73EB72A5F3F4F0FB6F8943EBF0FBED1
:100420002DBF882359F0F60180939C0080919B009A
:1004300085FFFCCF319680818823B1F7EDE8F1E0AC
:100440008AE080939C0080919B0085FFFCCF3196D1
:1004500080818823B1F78091F0039091F10380931C
:10046000F4039093F503DC01E5EAF1E08BE0019001
:100470000D928150E1F7E091F403F091F503808152
:10048000882351F080939C0080919B0085FFFCCFD6
:10049000319680818823B1F7E0EBF1E08AE0809328
:1004A0009C0080919B0085FFFCCF31968081882342
:1004B000B1F77CCFFA01808392931292129212923A
:1004C000129212921292129212921292129212920C
:1004D00012921292129212921292129212921292FC
:1004E000129212921292129212926293729312923A
:1004F0001292129212921292129280E88293319783
:10050000CF010895089508950895089508950895D0
:1005100008950895089580910C05813009F008959B
:1005200080913A058F3FD9F38F5F80933A05089504
:1005300080910C05813009F00895F89480910B05A5
:100540008F3F19F08F5F80930B05789408958CEF9F
:1005500090E0089508952F923F924F925F926F928C
:100560007F928F929F92AF92BF92CF92DF92EF9243
:10057000FF920F931F93CF93DF934C015A016B01AE
:10058000280139011701F89460912C0570912D050F
:100590006115710549F0DB0112968D919C911397BD
:1005A00090932D0580932C0578946115710509F4BD
:1005B00066C0E401A6019501215030404040504002
:1005C00079F172018401040D151DF80180E090E0BD
:1005D000A0E0B0E0F983E883EF01EE0DFF1D019686
:1005E000A11DB11D82179307A407B50798F38EEFDD
:1005F0009FEFAFEFBFEFA80EB91ECA1EDB1EEA9C2D
:10060000E001EB9CD00DFA9CD00D112482E090E02B
:10061000A0E0B0E0A80EB91ECA1EDB1EC00FD11F9D
:1006200019821882DB0111969C928E9213969C92ED
:100630008E921297FB01A486B586C686D786189639
:10064000AD92BD92CD92DC921B9744825582668218
:100650007782D1011C92CB01DF91CF911F910F9135
:10066000FF90EF90DF90CF90BF90AF909F908F90D2
:100670007F906F905F904F903F902F9008958EE6FF
:10068000F1018083E8CFCF93DF93FC01EB01F89475
:100690002485358546855785211531054105510548
:1006A000A9F0A281B3818D919C911197938382834C
:1006B0002150304040405040248735874687578737
:1006C00078941882CD01DF91CF910895789481E7D5
:1006D0008883A0E0B0E0F6CFCF93DF93FC01EB017D
:1006E000F894248535854685578580859185A28532
:1006F000B385281739074A075B0728F0789482E703
:10070000DF91CF9108958281938199838883738348
:1007100062832F5F3F4F4F4F5F4F24873587468758
:100720005787789480E0DF91CF910895CF93DF933E
:10073000FC01F89480819181DB0111969C938E934A
:100740008281938113969C938E93129784819581D5
:10075000A681B781EB018C839D83AE83BF838085A7
:100760009185A285B38588879987AA87BB872485C9
:10077000358546855785FB0124873587468757870A
:100780007894821B930BA40BB50B888B998BAA8B47
:10079000BB8B80E0DF91CF91089585E195E0909348
:1007A0002D0580932C0510921805109217051092B4
:1007B000160510921505109221051092220510922F
:1007C00023051092240510921D0510921E0510920B
:1007D0001F05109220051092190510921A0510920B
:1007E0001B0510921C0508958F3F89F0F894E82F9F
:1007F000F0E0EE0FFF1FE750FA4F0190F081E02D7F
:10080000309769F08EE3868780E078940895F894B5
:10081000E0913B05F0913C058685789408958BE046
:10082000789408951F93CF93DF93182FF894C09175
:100830002905D0912A05209709F453C08A819B810C
:1008400090932A0580932905789479836883198782
:1008500018861F821E821E86E12FE695E695E69594
:10086000EB87F0E0E054FE4F80818D87E12FE77049
:10087000EA87F0E0E054FE4F80818C87CE010E9431
:100880008A02CE010E948202F894E12FF0E0EE0F7E
:10089000FF1FE750FA4FD183C083E0911305F09119
:1008A0001405FB83EA831D821C82309711F0D583E7
:1008B000C483D0931405C0931305809130059D85A2
:1008C000892B80933005EB85F0E0EF5CFA4F808157
:1008D0009C85892B8083789480E0DF91CF911F9154
:1008E0000895789486E4DF91CF911F910895F8944C
:1008F00080910D0590910E05A0910F05B091100506
:100900000196A11DB11D80930D0590930E05A09336
:100910000F05B093100578940E948902E8CFF894EF
:1009200080913A05882309F03FC080910B05882308
:10093000D9F5E0913005F0E0E853FE4F8081E82FD3
:10094000F0E0EF5CFA4FE081F0E0E853FE4F982FC3
:10095000990F990F990F8081980F909311058091AD
:100960001205981709F1E92FF0E0EE0FFF1FE7508D
:10097000FA4F8081918190932F0580932E0580916D
:10098000250590912605A0912705B091280501968F
:10099000A11DB11D8093250590932605A0932705E1
:1009A000B09328050E948F08789408959C010097C1
:1009B00021F1F894A0913B05B0913C051B96EC9178
:1009C0001B97F0E0EF5CFA4F1C968C911C9780957A
:1009D000908189238083882349F41D969C911D97DB
:1009E00090958091300589238093300517963C932C
:1009F0002E93169778940E948F0408958F929F9259
:100A0000AF92BF92CF92DF92EF92FF920F931F931C
:100A1000CF93DF93882E162F942E8823C9F01C3392
:100A200000F58BE3891590F093E0283E3907D8F064
:100A300083E5DF91CF911F910F91FF90EF90DF90B1
:100A4000CF90BF90AF909F908F90089582E5F1CFA7
:100A5000662329F7442329F72115310529F784E571
:100A6000E8CF81E5E6CFB90180E090E02DE330E00A
:100A700040E050E00E94800968517E4F8F4F9F4FA9
:100A800028EE33E040E050E00E949F0959016A01DE
:100A9000612F70E080E090E02CE330E040E050E037
:100AA0000E9480097B018C01E90CF11C011D111DC4
:100AB000682D70E080E090E020E13EE040E050E012
:100AC0000E948009E60EF71E081F191FC801B70112
:100AD0002DE330E040E050E00E948009A60EB71EF2
:100AE000C81ED91E760100271127E7018FEF9FEF5F
:100AF000A0E0B0E0A822B922CA22DB22C5010E94F0
:100B0000D604EF2851F080E090E80E94D60480E0FF
:100B100090E80E94D6042197B1F780E08ACFF8943C
:100B20008F3FB9F1E0913B05F0913C05E185E81775
:100B300071F1E82F20E0F0E0EE0FFF1FE750FA4FD1
:100B4000A081B181109761F11B96EC911B97F0E0A9
:100B5000EF5CFA4F1C968C911C97809590818923AD
:100B60008083882349F41D969C911D9790958091D0
:100B7000300589238093300518968C9118978860EA
:100B800018968C937894213071F080E0089521E0DC
:100B9000D2CFE0913B05F0913C05E18521E0CBCF40
:100BA00078948AE508950E948F0480E00895E82FE4
:100BB000F894F0E0EE0FFF1FE750FA4FA081B181EB
:100BC0001097B9F018968C91189783FD03C078940C
:100BD00085E60895877F18968C931897882331F4BB
:100BE00016968D919C911797892B31F0789480E01F
:100BF0000895789484E60895809130051D969C911F
:100C00001D97892B809330051B96EC911B97F0E084
:100C1000EF5CFA4F80811C969C91892B808378949D
:100C20000E948F0480E008950F931F93CF93DF936A
:100C3000E82F80913A05882309F058C0F894EF3FD7
:100C400009F466C00E2F10E0000F111FF801E750E5
:100C5000FA4FC081D181209709F460C0EB85F0E0A4
:100C6000EF5CFA4F8C85809590818923808388235F
:100C700009F446C01F821E82188680910B058F3FA3
:100C800019F08F5F80930B057894F8948823A1F571
:100C9000CE010E94830280912B05815080932B0509
:100CA00007501A4FF80111821082AC81BD81109754
:100CB000E1F18A819B8113969C938E931297EA812E
:100CC000FB81B583A4838091290590912A059B839C
:100CD0008A83D0932A05C093290578940E948F04B3
:100CE00080E0DF91CF911F910F9108958FE3DF9105
:100CF000CF911F910F910895815080930B05C8CF1C
:100D00009D85909580913005892380933005B2CFE1
:100D1000E0913B05F0913C05E18594CF78948CE31C
:100D2000DF91CF911F910F910895EA81FB81158288
:100D30001482F0931405E0931305C5CFAF92BF92D0
:100D4000CF92DF92EF92FF920F931F93CF93DF9397
:100D5000FC01122FF894C22FD0E0CC0FDD1FC7503A
:100D6000DA4F88819981892B71F0789418E2812F6C
:100D7000DF91CF911F910F91FF90EF90DF90CF9077
:100D8000BF90AF90089581E090E099838883789434
:100D9000CF0120E030E00E945A02BC01812F40E0E8
:100DA00050E020E030E0EE24FF248701CC24DD2455
:100DB000AA24BB240E941204182F882371F4F894EB
:100DC00080912B058F5F80932B05789480910C0583
:100DD000813069F60E948F04CACFF8941982188274
:100DE0007894C5CF80910C05813009F00895F8946E
:100DF00080910B05882359F0815080930B0588233F
:100E000021F480913A05882321F07894089578940C
:100E1000089578940E948F0408950E94860280911C
:100E20000C05813009F00895A0911305B0911405C7
:100E300019968C9119978D33B1F32091300541E0CB
:100E400050E01AC01D968C911D97282B1B96EC9193
:100E50001B97F0E0EF5CFA4F80811C969C911C97E9
:100E6000892B808312960D90BC91A02D78941996B1
:100E70008C9119978D33C1F0F89416968D919C91B1
:100E80001797009779F3019717969C938E9316976F
:100E9000892B41F718968C91189783FFD3CF17961B
:100EA0005C934E931697DECF209330050895809182
:100EB0000C0581110895E0913005F0E0E853FE4FF4
:100EC000A081EA2FF0E0EF5CFA4FE081F0E0E85318
:100ED000FE4FAA0FAA0FAA0F8081A80FA093110599
:100EE000A0931205B0E0AA0FBB1FA750BA4F8D9177
:100EF0009C9190932F0580932E0590933C058093B1
:100F00003B050E945D08089580910C05813009F031
:100F10000895F89480913A05882339F081508093A0
:100F20003A05882311F07894089580910B05882361
:100F3000D1F7E0913005F0E0E853FE4F80818093D7
:100F40003905E82FF0E0EF5CFA4FE081F0E0E8537C
:100F5000FE4F982F990F990F990F8081980F9093BA
:100F60001105809112059817F1F2E92FF0E0EE0FCC
:100F7000FF1FE750FA4F8081918190932F05809356
:100F80002E058091250590912605A0912705B09109
:100F900028050196A11DB11D809325059093260576
:100FA000A0932705B09328050E94EE08BCCF0E94AD
:100FB000870210923A0510920B0510922B051092A1
:100FC0000C05109225051092260510922705109207
:100FD000280510920D0510920E0510920F05109223
:100FE000100510923005E1E3F5E0119285E0E93358
:100FF000F807D9F7109212051092110510922F05DB
:1010000010922E0510923C0510923B05109214058B
:1010100010921305E9EFF5E01192119286E0E537A1
:10102000F807D1F78CEC95E09093C0058093BF054D
:101030000F969093CF058093CE050F969093DE0583
:101040008093DD051092ED051092EC058D9790933D
:101050002A058093290585E195E090932D058093DD
:101060002C05109218051092170510921605109273
:101070001505109221051092220510922305109259
:10108000240510921D0510921E0510921F05109246
:1010900020051092190510921A0510921B05109246
:1010A0001C0587E794E060E070E04CEB55E02DE331
:1010B0000E949E060E94880208950E948402009168
:1010C0000C05039500930C05E0912E05F0912F057A
:1010D000C191CDBFD191DEBF0F910FBFFF91EF91B5
:1010E000DF91CF91BF91AF919F918F917F916F9140
:1010F0005F914F913F912F911F910F91FF90EF9032
:10110000DF90CF90BF90AF909F908F907F906F9027
:101110005F904F903F902F901F900F9008950F92E7
:101120001F922F923F924F925F926F927F928F9277
:101130009F92AF92BF92CF92DF92EF92FF920F9366
:101140001F932F933F934F935F936F937F938F934F
:101150009F93AF93BF93CF93DF93EF93FF930FB71B
:101160000F93E0913B05F0913C05CDB7C193DEB7FD
:10117000D1930E9484020091110500931205E09121
:101180002E05F0912F05E0933B05F0933C05C191AE
:10119000CDBFD191DEBF0F910FBFFF91EF91DF91D6
:1011A000CF91BF91AF919F918F917F916F915F91FF
:1011B0004F913F912F911F910F91FF90EF90DF90F2
:1011C000CF90BF90AF909F908F907F906F905F90E7
:1011D0004F903F902F901F900F9008950E9484028F
:1011E0000091110500931205E0912E05F0912F0555
:1011F000E0933B05F0933C05C191CDBFD191DEBF9B
:101200000F910FBFFF91EF91DF91CF91BF91AF9100
:101210009F918F917F916F915F914F913F912F910E
:101220001F910F91FF90EF90DF90CF90BF90AF9004
:101230009F908F907F906F905F904F903F902F90F6
:101240001F900F9008950F921F922F923F924F92EE
:101250005F926F927F928F929F92AF92BF92CF9246
:10126000DF92EF92FF920F931F932F933F934F9331
:101270005F936F937F938F939F93AF93BF93CF931E
:10128000DF93EF93FF930FB700680F9300913A0538
:10129000039500933A05013041F4CDB7DEB7E091F4
:1012A0003B05F0913C05C193D19300E002BF7894D7
:1012B0000E940D0700000E9484070F910FBFFF914D
:1012C000EF91DF91CF91BF91AF919F918F917F91DE
:1012D0006F915F914F913F912F911F910F91FF90CF
:1012E000EF90DF90CF90BF90AF909F908F907F90C6
:1012F0006F905F904F903F902F901F900F900895A8
:10130000629FD001739FF001829FE00DF11D649FE9
:10131000E00DF11D929FF00D839FF00D749FF00D75
:10132000659FF00D9927729FB00DE11DF91F639F16
:10133000B00DE11DF91FBD01CF0111240895A1E2F7
:101340001A2EAA1BBB1BFD010DC0AA1FBB1FEE1F3F
:10135000FF1FA217B307E407F50720F0A21BB30B8A
:10136000E40BF50B661F771F881F991F1A9469F706
:1013700060957095809590959B01AC01BD01CF0162
:101380000895AEE0B0E0E7ECF9E00C94700C0D8944
:101390001E8986E08C831A8309838FEF9FE79E83E3
:1013A0008D839E01275E3F4FCE0101966F89788D18
:1013B000A9010E94E5092F813885020F131FF8014A
:1013C00010822E96E4E00C948C0CABE0B0E0EBEED7
:1013D000F9E00C94620C3C012B015A01FC011782CC
:1013E0001682838181FD03C06FEF7FEFC6C19AE053
:1013F000892E1E010894211C311CF3012381F20166
:1014000023FD859123FF81912F01882309F4B2C127
:10141000853239F423FD859123FF81912F01853297
:1014200029F490E0B3010E94D80BE7CF982FFF2456
:10143000EE249924FFE1FF15D0F09B3269F09C3235
:1014400028F4903259F0933291F40EC09D3249F055
:10145000903369F441E024C052E0F52A84E0F82A90
:1014600028C098E0F92A25C0E0E1FE2A22C0F7FC56
:1014700029C0892F80538A3070F4F6FE05C0989CED
:10148000902C1124980E15C0E89CE02C1124E80E35
:10149000F0E2FF2A0EC09E3229F4F6FC6BC140E454
:1014A000F42A07C09C3619F450E8F52A02C0983691
:1014B00049F4F20123FD959123FF91912F01992386
:1014C00009F0B8CF892F8554833018F080528330CB
:1014D00038F444E050E0A40EB51E5FE359830FC01A
:1014E000933631F0933779F0933509F056C020C028
:1014F000F5018081898342E050E0A40EB51E6101B0
:1015000001E010E012C0F501C080D180F6FC03C0FC
:101510006FEF7FEF02C0692D70E042E050E0A40E53
:10152000B51EC6010E94CD0B8C015FE7F52214C0E9
:10153000F501C080D180F6FC03C06FEF7FEF02C0E1
:10154000692D70E042E050E0A40EB51EC6010E9475
:10155000C20B8C0150E8F52AF3FE07C01AC080E2E6
:1015600090E0B3010E94D80BEA948E2D90E008170A
:101570001907A8F30EC0F601F7FC8591F7FE8191DB
:101580006F0190E0B3010E94D80BE110EA94015082
:1015900010400115110579F7EAC0943611F099361B
:1015A00069F5F7FE08C0F501208131814281538140
:1015B00084E090E00AC0F501808191819C0144277C
:1015C00037FD4095542F82E090E0A80EB91E9FE6AB
:1015D000F92257FF09C050954095309521953F4F0E
:1015E0004F4F5F4FE0E8FE2ACA01B901A1012AE08E
:1015F00030E00E94040CD82ED21840C0953729F450
:101600001F2D1F7E2AE030E01DC01F2D197F9F3641
:1016100061F0903720F4983509F0ACC00FC09037D6
:1016200039F0983709F0A6C004C028E030E00AC0BD
:10163000106114FD146020E130E004C014FD166058
:1016400020E132E017FF08C0F501608171818281DD
:10165000938144E050E008C0F50180819181BC0194
:1016600080E090E042E050E0A40EB51EA1010E948F
:10167000040CD82ED2188FE7F82EF122F6FE0BC0FC
:101680005EEFF522D91438F4F4FE07C0F2FC05C071
:101690008FEEF82202C01D2D01C0192DF4FE0DC0E1
:1016A000FE01ED0DF11D8081803319F499EEF922D0
:1016B00008C01F5FF2FE05C003C08F2D867809F0B9
:1016C0001F5F0F2DF3FC14C0F0FE0FC01E1510F0AD
:1016D0009D2C0BC09D2C9E0C911A1E2D06C080E2E5
:1016E00090E0B3010E94D80B1F5F1E15C0F304C029
:1016F0001E1510F4E11A01C0EE2404FF0FC080E3B0
:1017000090E0B3010E94D80B02FF1DC001FD03C091
:1017100088E790E00EC088E590E00BC0802F8678C7
:1017200091F001FF02C08BE201C080E2F7FC8DE284
:1017300090E0B3010E94D80B06C080E390E0B301B3
:101740000E94D80B9A94D914C0F3DA94F101ED0DEC
:10175000F11D808190E0B3010E94D80BDD20A9F734
:1017600006C080E290E0B3010E94D80BEA94EE201C
:10177000C1F743CEF30166817781CB012B96E2E17D
:101780000C947E0CFC010590615070400110D8F75C
:10179000809590958E0F9F1F0895FC0161507040B9
:1017A00001900110D8F7809590958E0F9F1F089596
:1017B0000F931F93CF93DF938C01EB018B8181FFFC
:1017C0001BC082FF0DC02E813F818C819D81281717
:1017D000390764F4E881F9810193F983E88306C04D
:1017E000E885F985802F0995892B31F48E819F81B9
:1017F00001969F838E8302C00FEF1FEFC801DF9118
:10180000CF911F910F910895FA01AA27283051F125
:10181000203181F1E8946F936E7F6E5F7F4F8F4F21
:101820009F4FAF4FB1E03ED0B4E03CD0670F781F80
:10183000891F9A1FA11D680F791F8A1F911DA11D65
:101840006A0F711D811D911DA11D20D009F468949E
:101850003F912AE0269F11243019305D3193DEF646
:10186000CF010895462F4770405D4193B3E00FD0FC
:10187000C9F7F6CF462F4F70405D4A3318F0495DE7
:1018800031FD4052419302D0A9F7EACFB4E0A695CA
:101890009795879577956795BA95C9F700976105EC
:1018A000710508959B01AC010A2E06945795479542
:1018B00037952795BA95C9F7620F731F841F951F37
:1018C000A01D08952F923F924F925F926F927F9248
:1018D0008F929F92AF92BF92CF92DF92EF92FF9240
:1018E0000F931F93CF93DF93CDB7DEB7CA1BDB0BEC
:1018F0000FB6F894DEBF0FBECDBF09942A88398891
:1019000048885F846E847D848C849B84AA84B98497
:10191000C884DF80EE80FD800C811B81AA81B981A3
:10192000CE0FD11D0FB6F894DEBF0FBECDBFED01B7
:061930000895F894FFCFBA
:101936002564000A0D456E746572656420696E74CF
:101946006F207461736B2032000A4C656176696E94
:1019560067207461736B2032000A4D656D6F727972
:10196600205431202570000A44617461207265613B
:10197600642066726F6D206D656D6F727920626C82
:101986006F636B203D20000A4D656D6F7279207282
:10199600656D6F766564000A0D456E7465726564E3
:1019A60020696E746F207461736B2031000A4C6578
:1019B6006176696E67207461736B2031000A426C30
:1019C6006F636B206F662064617461206F6274615F
:1019D600696E656400414141205431204141410016
:1019E6000A4D6573736167652073746F7265640071
:1019F60001020408102040800000010002000100DE
:101A060003000100020001000400010002000100C1
:101A160003000100020001000500010002000100B0
:101A260003000100020001000400010002000100A1
:101A3600030001000200010006000100020001008F
:101A46000300010002000100040001000200010081
:101A56000300010002000100050001000200010070
:101A66000300010002000100040001000200010061
:101A7600030001000200010007000100020001004E
:101A86000300010002000100040001000200010041
:101A96000300010002000100050001000200010030
:101AA6000300010002000100040001000200010021
:101AB600030001000200010006000100020001000F
:101AC6000300010002000100040001000200010001
:101AD60003000100020001000500010002000100F0
:101AE60003000100020001000400010002000100E1
:081AF6000300010002000100E1
:00000001FF
