:100000000C9446000C9463000C9463000C94630001
:100010000C9463000C9463000C9463000C946300D4
:100020000C9463000C9463000C9463000C946300C4
:100030000C9463000C9463000C9463000C946300B4
:100040000C94AC0B0C9463000C9463000C94630050
:100050000C9463000C9463000C9463000C94630094
:100060000C9463000C9463000C9463000C94630084
:100070000C9463000C9463000C9463000C94630074
:100080000C9463000C9463000C94630011241FBE55
:10009000CFEFD0E1DEBFCDBF13E0A0E0B1E0E8E4F8
:1000A000FEE102C005900D92A63EB107D9F719E016
:1000B000A6EEB3E001C01D92A03CB107E1F70E949B
:1000C00051020C94220F0C9400001092980087E6C5
:1000D00080939900EAE9F0E0808188618083089547
:1000E00080939C0080919B0085FFFCCF08958091B8
:1000F0009B0087FFFCCF80919C000895FC018081CC
:10010000882351F080939C0080919B0085FFFCCF59
:10011000319680818823B1F7089512BE87E083BFAE
:1001200081E087BF0895CF93DF9300D000D000D047
:10013000EDB7FEB73196CEE2D7E0ADB7BEB71296B7
:10014000DC93CE93119720E031E0338322839583B3
:1001500084830E944A0C80912E072DB73EB72A5FF8
:100160003F4F0FB6F8943EBF0FBE2DBF882359F006
:10017000FE0180939C0080919B0085FFFCCF31960F
:1001800080818823B1F7DF91CF910895AF92BF921C
:10019000CF92DF92EF92FF920F931F93DF93CF9353
:1001A000CDB7DEB72F970FB6F894DEBF0FBECDBF29
:1001B0005E010894A11CB11C09E111E096E6E92E4C
:1001C00091E0F92E83EBC82E81E0D82E15BAE3E03A
:1001D000F1E08AE080939C0080919B0085FFFCCF3A
:1001E000319680818823B1F70F9914C0809144081B
:1001F00090914508019709F4EDC08091E603909134
:10020000E703019709F47FC080914207909143076B
:10021000019791F0E0E0F2E08AE080939C00809109
:100220009B0085FFFCCF319680818823B1F78DE359
:1002300090E00E945A07CACF00D000D000D0EDB79E
:10024000FEB73196ADB7BEB71296BC92AE9211977B
:10025000D382C2828091E8039091E90395838483DD
:100260000E944A0C89812DB73EB72A5F3F4F0FB6D7
:10027000F8943EBF0FBE2DBF882359F0F50180933F
:100280009C0080919B0085FFFCCF31968081882364
:10029000B1F7E1ECF1E08AE080939C0080919B0053
:1002A00085FFFCCF319680818823B1F7A091E803C8
:1002B000B091E9038C91882359F0FD0180939C0053
:1002C00080919B0085FFFCCF319680818823B1F718
:1002D0008091280690912906BD010E94F00588238F
:1002E00069F4E3EEF1E08AE080939C0080919B004A
:1002F00085FFFCCF319680818823B1F710924307A8
:100300001092420787CF00D000D000D0EDB7FEB7E3
:100310003196ADB7BEB71296BC92AE921197F382EA
:10032000E28280912C0790912D07958384830E940F
:100330004A0C89812DB73EB72A5F3F4F0FB6F8941C
:100340003EBF0FBE2DBF882359F0F50180939C005E
:1003500080919B0085FFFCCF319680818823B1F787
:10036000E4E7F1E08AE080939C0080919B0085FFA8
:10037000FCCF319680818823B1F7A0912C07B091F2
:100380002D078C91882359F0FD0180939C0080916A
:100390009B0085FFFCCF319680818823B1F7809147
:1003A000280690912906BD010E94F005882369F472
:1003B000E6E9F1E08AE080939C0080919B0085FF54
:1003C000FCCF319680818823B1F71092E703109219
:1003D000E6031ACF00D000D000D0EDB7FEB73196BB
:1003E000ADB7BEB71296BC92AE921197138302833B
:1003F00080912A0790912B07958384830E944A0C51
:1004000089812DB73EB72A5F3F4F0FB6F8943EBFA4
:100410000FBE2DBF882359F0F50180939C00809179
:100420009B0085FFFCCF319680818823B1F7E7E2FE
:10043000F1E08AE080939C0080919B0085FFFCCFD7
:10044000319680818823B1F7A0912A07B0912B07BC
:100450008C91882359F0FD0180939C0080919B0032
:1004600085FFFCCF319680818823B1F780912806E3
:1004700090912906BD010E94F005882369F4E9E402
:10048000F1E08AE080939C0080919B0085FFFCCF87
:10049000319680818823B1F7109245081092440864
:1004A000ACCEEF92FF920F931F930E945B0A8EE1F6
:1004B00094E060E070E043E458E024E00E94220908
:1004C00082E693E060E070E049EE54E025E00E94AF
:1004D000220986EA92E060E070E049EE55E026E00D
:1004E0000E94220986EC90E060E070E049E257E06B
:1004F00027E00E9422098AEE95E043E050E060E0A8
:1005000070E004E110E020E030E0E6E4EE2EE8E008
:10051000FE2E0E942F0590932906809328061092A4
:10052000980087E680939900EAE9F0E0808188618D
:1005300080838FEF84BB11BA82BB12B883B90E944B
:10054000DB091F910F91FF90EF9008958F929F927A
:10055000BF92CF92DF92EF92FF920F931F93DF93A0
:10056000CF93CDB7DEB760970FB6F894DEBF0FBE5E
:10057000CDBF8E010F5F1F4F82E0E82EF12CEC0EF5
:10058000FD1EB3EBCB2EB1E0DB2EACEFBA2EF1E0CB
:100590008F2E912CB5BAE0E1F2E08AE080939C00C6
:1005A00080919B0085FFFCCF319680818823B1F735
:1005B0000E9B12C0E6E2F2E08AE080939C008091FC
:1005C0009B0085FFFCCF319680818823B1F78DE3B6
:1005D00090E00E945A07DECF909243078092420734
:1005E0008091280690912906B8010E94C705909332
:1005F0002706809326060097E9F200D000D000D0AD
:10060000EDB7FEB73196ADB7BEB71296FC92EE923B
:100610001197D382C282958384830E944A0C8A8177
:100620002DB73EB72A5F3F4F0FB6F8943EBF0FBEBF
:100630002DBF882359F0F70180939C0080919B0087
:1006400085FFFCCF319680818823B1F7E6E3F2E0A5
:100650008AE080939C0080919B0085FFFCCF3196BF
:1006600080818823B1F78091260690912706809398
:10067000E8039093E903DC01EFE4F2E08BE0019002
:100680000D928150E1F7E091E803F091E903808158
:10069000882351F080939C0080919B0085FFFCCFC4
:1006A000319680818823B1F7EAE5F2E08AE0809311
:1006B0009C0080919B0085FFFCCF31968081882330
:1006C000B1F778CF8F929F92BF92CF92DF92EF9245
:1006D000FF920F931F93DF93CF93CDB7DEB7609751
:1006E0000FB6F894DEBF0FBECDBF8E010F5F1F4F58
:1006F00042E0E42EF12CEC0EFD1E36E6C32E31E076
:10070000D32E2DEFB22E91E0892E912CB5BAEAE6C8
:10071000F2E08AE080939C0080919B0085FFFCCFF3
:10072000319680818823B1F7879976C09092E7034C
:100730008092E6038091280690912906B8010E94D4
:10074000C7059093270680932606009709F464C096
:1007500000D000D000D0EDB7FEB73196ADB7BEB730
:100760001296FC92EE921197D382C2829583848373
:100770000E944A0C8A812DB73EB72A5F3F4F0FB6C1
:10078000F8943EBF0FBE2DBF882359F0F701809328
:100790009C0080919B0085FFFCCF3196808188234F
:1007A000B1F7E6E3F2E08AE080939C0080919B0041
:1007B00085FFFCCF319680818823B1F78091260692
:1007C0009091270680932C0790932D07DC01E0E998
:1007D000F2E08BE001900D928150E1F7E0912C075F
:1007E000F0912D078081882351F080939C008091A7
:1007F0009B0085FFFCCF319680818823B1F7EAE525
:10080000F2E08AE080939C0080919B0085FFFCCF02
:10081000319680818823B1F7E0E8F2E08AE08093A6
:100820009C0080919B0085FFFCCF319680818823BE
:10083000B1F78DE390E00E945A0768CF8F929F92A4
:10084000BF92CF92DF92EF92FF920F931F93DF93AD
:10085000CF93CDB7DEB760970FB6F894DEBF0FBE6B
:10086000CDBF12BE87E083BF81E087BF7E010894C1
:10087000E11CF11C72E0C72ED12CCC0EDD1E09E16B
:1008800011E06EEFB62E51E0852E912CB5BAEBE952
:10089000F2E08AE080939C0080919B0085FFFCCF72
:1008A000319680818823B1F7869B12C0E1EBF2E09C
:1008B0008AE080939C0080919B0085FFFCCF31965D
:1008C00080818823B1F78DE390E00E945A07DECF44
:1008D00090924508809244088091280690912906BC
:1008E000B7010E94C70590932706809326060097BC
:1008F000E9F200D000D000D0EDB7FEB73196ADB729
:10090000BEB71296DC92CE92119713830283958321
:1009100084830E944A0C8A812DB73EB72A5F3F4FDD
:100920000FB6F8943EBF0FBE2DBF882359F0F601D5
:1009300080939C0080919B0085FFFCCF3196808145
:100940008823B1F7E6E3F2E08AE080939C0080918F
:100950009B0085FFFCCF319680818823B1F7809181
:1009600026069091270680932A0790932B07DC0197
:10097000E1ECF2E08BE001900D928150E1F7E09123
:100980002A07F0912B078081882351F080939C00E7
:1009900080919B0085FFFCCF319680818823B1F741
:1009A000ECECF2E08AE080939C0080919B0085FF54
:1009B000FCCF319680818823B1F778CFFA0180830C
:1009C0009293129212921292129212921292129286
:1009D00012921292129212921292129212921292F7
:1009E00012921292129212921292129212921292E7
:1009F0001292629372931292129212921292129225
:100A0000129280E882933197CF0108950895089556
:100A1000089508950895089508950895089580917A
:100A20004808813009F00895809176088F3FD9F306
:100A30008F5F80937608089580914808813009F08F
:100A40000895F894809147088F3F19F08F5F809345
:100A50004708789408958CEF90E0089508952F92B8
:100A60003F924F925F926F927F928F929F92AF923E
:100A7000BF92CF92DF92EF92FF920F931F93CF938B
:100A8000DF934C015A016B01280139011701F894D9
:100A900060916808709169086115710549F0DB0182
:100AA00012968D919C911397909369088093680892
:100AB00078946115710509F466C0E401A6019501F9
:100AC000215030404040504079F172018401040DC2
:100AD000151DF80180E090E0A0E0B0E0F983E88324
:100AE000EF01EE0DFF1D0196A11DB11D82179307A9
:100AF000A407B50798F38EEF9FEFAFEFBFEFA80EF7
:100B0000B91ECA1EDB1EEA9CE001EB9CD00DFA9CCC
:100B1000D00D112482E090E0A0E0B0E0A80EB91E54
:100B2000CA1EDB1EC00FD11F19821882DB0111966D
:100B30009C928E9213969C928E921297FB01A486A1
:100B4000B586C686D7861896AD92BD92CD92DC92B8
:100B50001B974482558266827782D1011C92CB0119
:100B6000DF91CF911F910F91FF90EF90DF90CF9089
:100B7000BF90AF909F908F907F906F905F904F90BD
:100B80003F902F9008958EE6F1018083E8CFCF93B8
:100B9000DF93FC01EB01F894248535854685578564
:100BA0002115310541055105A9F0A281B3818D912F
:100BB0009C91119793838283215030404040504054
:100BC000248735874687578778941882CD01DF912F
:100BD000CF910895789481E78883A0E0B0E0F6CFC4
:100BE000CF93DF93FC01EB01F8942485358546858E
:100BF000578580859185A285B385281739074A07CF
:100C00005B0728F0789482E7DF91CF910895828185
:100C1000938199838883738362832F5F3F4F4F4F04
:100C20005F4F2487358746875787789480E0DF9128
:100C3000CF910895CF93DF93FC01F8948081918147
:100C4000DB0111969C938E938281938113969C93E2
:100C50008E93129784819581A681B781EB018C8355
:100C60009D83AE83BF8380859185A285B385888768
:100C70009987AA87BB872485358546855785FB01DB
:100C800024873587468757877894821B930BA40B5C
:100C9000B50B888B998BAA8BBB8B80E0DF91CF91B2
:100CA000089581E598E09093690880936808109210
:100CB0005408109253081092520810925108109242
:100CC0005D0810925E0810925F0810926008109202
:100CD000590810925A0810925B0810925C08109202
:100CE0005508109256081092570810925808089507
:100CF0008F3F89F0F894E82FF0E0EE0FFF1FEC5BD8
:100D0000F64F0190F081E02D309769F08EE38687F1
:100D100080E078940895F894E0917708F09178084D
:100D20008685789408958BE0789408951F93CF93E7
:100D3000DF93182FF894C0916508D091660820972A
:100D400009F453C08A819B8190936608809365085B
:100D5000789479836883198718861F821E821E867D
:100D6000E12FE695E695E695EB87F0E0E352FD4F3F
:100D700080818D87E12FE770EA87F0E0E352FD4F35
:100D800080818C87CE010E940E05CE010E9406054F
:100D9000F894E12FF0E0EE0FFF1FEC5BF64FD183EC
:100DA000C083E0914F08F0915008FB83EA831D82D5
:100DB0001C82309711F0D583C483D0935008C09320
:100DC0004F0880916C089D85892B80936C08EB857A
:100DD000F0E0E359F74F80819C85892B80837894DC
:100DE00080E0DF91CF911F910895789486E4DF91A0
:100DF000CF911F910895F8948091490890914A08E5
:100E0000A0914B08B0914C080196A11DB11D809393
:100E1000490890934A08A0934B08B0934C087894E3
:100E20000E940D05E8CFF89480917608882309F098
:100E30003FC0809147088823D9F5E0916C08F0E025
:100E4000EB51FD4F8081E82FF0E0E359F74FE0814F
:100E5000F0E0EB51FD4F982F990F990F990F80817A
:100E6000980F90934D0880914E08981709F1E92F3B
:100E7000F0E0EE0FFF1FEC5BF64F808191819093C5
:100E80006B0880936A088091610890916208A09134
:100E90006308B09164080196A11DB11D809361089B
:100EA00090936208A0936308B09364080E94180BA3
:100EB000789408959C01009721F1F894A091770807
:100EC000B09178081B96EC911B97F0E0E359F74F2F
:100ED0001C968C911C978095908189238083882310
:100EE00049F41D969C911D97909580916C088923DB
:100EF00080936C0817963C932E93169778940E94D3
:100F0000130708958F929F92AF92BF92CF92DF9274
:100F1000EF92FF920F931F93CF93DF93882E162F9C
:100F2000942E8823C9F01C3300F58BE3891590F0CB
:100F300093E0283E3907D8F083E5DF91CF911F91E8
:100F40000F91FF90EF90DF90CF90BF90AF909F9068
:100F50008F90089582E5F1CF662329F7442329F77E
:100F60002115310529F784E5E8CF81E5E6CFB90100
:100F700080E090E02DE330E040E050E00E94090C7A
:100F800068517E4F8F4F9F4F28EE33E040E050E096
:100F90000E94280C59016A01612F70E080E090E006
:100FA0002CE330E040E050E00E94090C7B018C0112
:100FB000E90CF11C011D111D682D70E080E090E02E
:100FC00020E13EE040E050E00E94090CE60EF71EF2
:100FD000081F191FC801B7012DE330E040E050E0C1
:100FE0000E94090CA60EB71EC81ED91E7601002746
:100FF0001127E7018FEF9FEFA0E0B0E0A822B92210
:10100000CA22DB22C5010E945A07EF2851F080E076
:1010100090E80E945A0780E090E80E945A072197C2
:10102000B1F780E08ACFF8948F3FB9F1E09177086B
:10103000F0917808E185E81771F1E82F20E0F0E001
:10104000EE0FFF1FEC5BF64FA081B181109761F1AD
:101050001B96EC911B97F0E0E359F74F1C968C918F
:101060001C978095908189238083882349F41D965D
:101070009C911D97909580916C08892380936C08B2
:1010800018968C911897886018968C9378942130D4
:1010900071F080E0089521E0D2CFE0917708F091DF
:1010A0007808E18521E0CBCF78948AE508950E9405
:1010B000130780E00895E82FF894F0E0EE0FFF1F8B
:1010C000EC5BF64FA081B1811097B9F018968C9126
:1010D000189783FD03C0789485E60895877F189656
:1010E0008C931897882331F416968D919C911797BD
:1010F000892B31F0789480E00895789484E60895FF
:1011000080916C081D969C911D97892B80936C088B
:101110001B96EC911B97F0E0E359F74F80811C96EA
:101120009C91892B808378940E94130780E0089516
:101130000F931F93CF93DF93E82F80917608882336
:1011400009F058C0F894EF3F09F466C00E2F10E084
:10115000000F111FF801EC5BF64FC081D181209781
:1011600009F460C0EB85F0E0E359F74F8C8580957A
:10117000908189238083882309F446C01F821E82C0
:101180001886809147088F3F19F08F5F809347083A
:101190007894F8948823A1F5CE010E9407058091E8
:1011A00067088150809367080C5B164FF801118225
:1011B0001082AC81BD811097E1F18A819B811396E9
:1011C0009C938E931297EA81FB81B583A4838091CF
:1011D0006508909166089B838A83D0936608C093C4
:1011E000650878940E94130780E0DF91CF911F91EA
:1011F0000F9108958FE3DF91CF911F910F91089583
:10120000815080934708C8CF9D85909580916C0848
:10121000892380936C08B2CFE0917708F091780829
:10122000E18594CF78948CE3DF91CF911F910F915A
:101230000895EA81FB8115821482F0935008E093AF
:101240004F08C5CFAF92BF92CF92DF92EF92FF923D
:101250000F931F93CF93DF93FC01122FF894C22FAB
:10126000D0E0CC0FDD1FCC5BD64F88819981892BD4
:1012700071F0789418E2812FDF91CF911F910F9137
:10128000FF90EF90DF90CF90BF90AF90089581E0F6
:1012900090E0998388837894CF0120E030E00E9429
:1012A000DE04BC01812F40E050E020E030E0EE247D
:1012B000FF248701CC24DD24AA24BB240E949606A7
:1012C000182F882371F4F894809167088F5F8093BA
:1012D0006708789480914808813069F60E94130766
:1012E000CACFF894198218827894C5CF80914808A3
:1012F000813009F00895F89480914708882359F0C7
:10130000815080934708882321F4809176088823B0
:1013100021F0789408957894089578940E941307A2
:1013200008950E940A0580914808813009F00895C7
:10133000A0914F08B091500819968C9119978D3350
:10134000B1F320916C0841E050E01AC01D968C91D9
:101350001D97282B1B96EC911B97F0E0E359F74F54
:1013600080811C969C911C97892B808312960D90EE
:10137000BC91A02D789419968C9119978D33C1F05A
:10138000F89416968D919C911797009779F3019791
:1013900017969C938E931697892B41F718968C91EC
:1013A000189783FFD3CF17965C934E931697DECF93
:1013B00020936C0808958091480881110895E09168
:1013C0006C08F0E0EB51FD4FA081EA2FF0E0E3590B
:1013D000F74FE081F0E0EB51FD4FAA0FAA0FAA0FE3
:1013E0008081A80FA0934D08A0934E08B0E0AA0FEB
:1013F000BB1FAC5BB64F8D919C9190936B08809313
:101400006A0890937808809377080E94E60A089506
:1014100080914808813009F00895F8948091760809
:10142000882339F0815080937608882311F07894CE
:101430000895809147088823D1F7E0916C08F0E087
:10144000EB51FD4F808180937508E82FF0E0E35960
:10145000F74FE081F0E0EB51FD4F982F990F990F76
:10146000990F8081980F90934D0880914E0898179E
:10147000F1F2E92FF0E0EE0FFF1FEC5BF64F8081F9
:10148000918190936B0880936A0880916108909194
:101490006208A0916308B09164080196A11DB11D76
:1014A0008093610890936208A0936308B0936408E6
:1014B0000E94770BBCCF0E940B0510927608109209
:1014C000470810926708109248081092610810921D
:1014D00062081092630810926408109249081092F2
:1014E0004A0810924B0810924C0810926C08EDE6D6
:1014F000F8E0119288E0E537F807D9F710924E0826
:1015000010924D0810926B0810926A081092780899
:10151000109277081092500810924F08E4E4F9E016
:101520001192119289E0E03CF807D1F788E099E048
:101530009093FC088093FB080F9690930B0980937F
:101540000A090F9690931A09809319090F969093A0
:101550002909809328091092380910923709CC97ED
:10156000909366088093650881E598E090936908F8
:1015700080936808109254081092530810925208F1
:101580001092510810925D0810925E0810925F0848
:10159000109260081092590810925A0810925B0835
:1015A00010925C0810925508109256081092570835
:1015B000109258088BEF96E060E070E048EF58E03A
:1015C0002DE30E9422090E940C0508950E9408053F
:1015D00000914808039500934808E0916A08F0914B
:1015E0006B08C191CDBFD191DEBF0F910FBFFF91AD
:1015F000EF91DF91CF91BF91AF919F918F917F91AB
:101600006F915F914F913F912F911F910F91FF909B
:10161000EF90DF90CF90BF90AF909F908F907F9092
:101620006F905F904F903F902F901F900F90089574
:101630000F921F922F923F924F925F926F927F92E2
:101640008F929F92AF92BF92CF92DF92EF92FF92D2
:101650000F931F932F933F934F935F936F937F93BA
:101660008F939F93AF93BF93CF93DF93EF93FF93AA
:101670000FB70F93E0917708F0917808CDB7C19339
:10168000DEB7D1930E94080500914D0800934E08E3
:10169000E0916A08F0916B08E0937708F09378087E
:1016A000C191CDBFD191DEBF0F910FBFFF91EF91DF
:1016B000DF91CF91BF91AF919F918F917F916F916A
:1016C0005F914F913F912F911F910F91FF90EF905C
:1016D000DF90CF90BF90AF909F908F907F906F9052
:1016E0005F904F903F902F901F900F9008950E9411
:1016F000080500914D0800934E08E0916A08F091AA
:101700006B08E0937708F0937808C191CDBFD19131
:10171000DEBF0F910FBFFF91EF91DF91CF91BF918E
:10172000AF919F918F917F916F915F914F913F9179
:101730002F911F910F91FF90EF90DF90CF90BF906E
:10174000AF909F908F907F906F905F904F903F9061
:101750002F901F900F9008950F921F922F923F92FB
:101760004F925F926F927F928F929F92AF92BF92B1
:10177000CF92DF92EF92FF920F931F932F933F939D
:101780004F935F936F937F938F939F93AF93BF9389
:10179000CF93DF93EF93FF930FB700680F93009100
:1017A0007608039500937608013041F4CDB7DEB793
:1017B000E0917708F0917808C193D19300E002BFDF
:1017C00078940E94910900000E94080A0F910FBFAF
:1017D000FF91EF91DF91CF91BF91AF919F918F9149
:1017E0007F916F915F914F913F912F911F910F9139
:1017F000FF90EF90DF90CF90BF90AF909F908F9031
:101800007F906F905F904F903F902F901F900F9020
:101810000895629FD001739FF001829FE00DF11D3A
:10182000649FE00DF11D929FF00D839FF00D749F5A
:10183000F00D659FF00D9927729FB00DE11DF91F06
:10184000639FB00DE11DF91FBD01CF011124089563
:10185000A1E21A2EAA1BBB1BFD010DC0AA1FBB1FB4
:10186000EE1FFF1FA217B307E407F50720F0A21B26
:10187000B30BE40BF50B661F771F881F991F1A9493
:1018800069F760957095809590959B01AC01BD01BD
:10189000CF010895AEE0B0E0E0E5FCE00C94F90E75
:1018A0000D891E8986E08C831A8309838FEF9FE759
:1018B0009E838D839E01275E3F4FCE0101966F89E7
:1018C000788DA9010E946E0C2F813885020F131F9D
:1018D000F80110822E96E4E00C94150FABE0B0E016
:1018E000E4E7FCE00C94EB0E3C012B015A01FC01F7
:1018F00017821682838181FD03C06FEF7FEFC6C11F
:101900009AE0892E1E010894211C311CF3012381C9
:10191000F20123FD859123FF81912F01882309F492
:10192000B2C1853239F423FD859123FF81912F01C6
:10193000853229F490E0B3010E94610EE7CF982F21
:10194000FF24EE249924FFE1FF15D0F09B3269F0CB
:101950009C3228F4903259F0933291F40EC09D32AB
:1019600049F0903369F441E024C052E0F52A84E064
:10197000F82A28C098E0F92A25C0E0E1FE2A22C012
:10198000F7FC29C0892F80538A3070F4F6FE05C019
:10199000989C902C1124980E15C0E89CE02C1124E2
:1019A000E80EF0E2FF2A0EC09E3229F4F6FC6BC16D
:1019B00040E4F42A07C09C3619F450E8F52A02C026
:1019C000983649F4F20123FD959123FF91912F015F
:1019D000992309F0B8CF892F8554833018F08052AD
:1019E000833038F444E050E0A40EB51E5FE3598321
:1019F0000FC0933631F0933779F0933509F056C024
:101A000020C0F5018081898342E050E0A40EB51E1C
:101A1000610101E010E012C0F501C080D180F6FC48
:101A200003C06FEF7FEF02C0692D70E042E050E02D
:101A3000A40EB51EC6010E94560E8C015FE7F5226A
:101A400014C0F501C080D180F6FC03C06FEF7FEFBA
:101A500002C0692D70E042E050E0A40EB51EC60140
:101A60000E944B0E8C0150E8F52AF3FE07C01AC005
:101A700080E290E0B3010E94610EEA948E2D90E026
:101A800008171907A8F30EC0F601F7FC8591F7FEB9
:101A900081916F0190E0B3010E94610EE110EA9420
:101AA000015010400115110579F7EAC0943611F084
:101AB000993669F5F7FE08C0F50120813181428130
:101AC000538184E090E00AC0F501808191819C01FE
:101AD000442737FD4095542F82E090E0A80EB91EB0
:101AE0009FE6F92257FF09C0509540953095219502
:101AF0003F4F4F4F5F4FE0E8FE2ACA01B901A101F5
:101B00002AE030E00E948D0ED82ED21840C09537C2
:101B100029F41F2D1F7E2AE030E01DC01F2D197FE4
:101B20009F3661F0903720F4983509F0ACC00FC0B3
:101B3000903739F0983709F0A6C004C028E030E0AB
:101B40000AC0106114FD146020E130E004C014FDEF
:101B5000166020E132E017FF08C0F5016081718155
:101B60008281938144E050E008C0F5018081918139
:101B7000BC0180E090E042E050E0A40EB51EA1015F
:101B80000E948D0ED82ED2188FE7F82EF122F6FE85
:101B90000BC05EEFF522D91438F4F4FE07C0F2FC56
:101BA00005C08FEEF82202C01D2D01C0192DF4FED4
:101BB0000DC0FE01ED0DF11D8081803319F499EE09
:101BC000F92208C01F5FF2FE05C003C08F2D867882
:101BD00009F01F5F0F2DF3FC14C0F0FE0FC01E159F
:101BE00010F09D2C0BC09D2C9E0C911A1E2D06C032
:101BF00080E290E0B3010E94610E1F5F1E15C0F3EA
:101C000004C01E1510F4E11A01C0EE2404FF0FC039
:101C100080E390E0B3010E94610E02FF1DC001FD50
:101C200003C088E790E00EC088E590E00BC0802FED
:101C3000867891F001FF02C08BE201C080E2F7FCE0
:101C40008DE290E0B3010E94610E06C080E390E057
:101C5000B3010E94610E9A94D914C0F3DA94F10191
:101C6000ED0DF11D808190E0B3010E94610EDD2039
:101C7000A9F706C080E290E0B3010E94610EEA94E9
:101C8000EE20C1F743CEF30166817781CB012B961D
:101C9000E2E10C94070FFC010590615070400110C7
:101CA000D8F7809590958E0F9F1F0895FC01615085
:101CB000704001900110D8F7809590958E0F9F1F6E
:101CC00008950F931F93CF93DF938C01EB018B81CA
:101CD00081FF1BC082FF0DC02E813F818C819D81C1
:101CE0002817390764F4E881F9810193F983E883BF
:101CF00006C0E885F985802F0995892B31F48E81FE
:101D00009F8101969F838E8302C00FEF1FEFC80152
:101D1000DF91CF911F910F910895FA01AA272830E2
:101D200051F1203181F1E8946F936E7F6E5F7F4FA8
:101D30008F4F9F4FAF4FB1E03ED0B4E03CD0670F24
:101D4000781F891F9A1FA11D680F791F8A1F911D77
:101D5000A11D6A0F711D811D911DA11D20D009F4C7
:101D600068943F912AE0269F11243019305D319309
:101D7000DEF6CF010895462F4770405D4193B3E0F2
:101D80000FD0C9F7F6CF462F4F70405D4A3318F099
:101D9000495D31FD4052419302D0A9F7EACFB4E04A
:101DA000A6959795879577956795BA95C9F7009702
:101DB0006105710508959B01AC010A2E06945795A3
:101DC000479537952795BA95C9F7620F731F841FFA
:101DD000951FA01D08952F923F924F925F926F9290
:101DE0007F928F929F92AF92BF92CF92DF92EF92AB
:101DF000FF920F931F93CF93DF93CDB7DEB7CA1B2C
:101E0000DB0B0FB6F894DEBF0FBECDBF09942A8856
:101E1000398848885F846E847D848C849B84AA84FE
:101E2000B984C884DF80EE80FD800C811B81AA818B
:101E3000B981CE0FD11D0FB6F894DEBF0FBECDBF56
:081E4000ED010895F894FFCFB5
:101E48002564000A0D456E746572656420696E74B8
:101E58006F207461736B2034000A4D656D6F727961
:101E6800205431202570000A446174612072656134
:101E7800642066726F6D206D656D6F727920626C7B
:101E88006F636B2031203D20000A4D656D6F7279BC
:101E98002066726F6D20626C6F636B2031207265F3
:101EA8006D6F766564000A4D656D6F7279205432E6
:101EB800202570000A44617461207265616420669F
:101EC800726F6D206D656D6F727920626C6F636BD8
:101ED8002032203D20000A4D656D6F7279206672B0
:101EE8006F6D20626C6F636B20322072656D6F7648
:101EF8006564000A4D656D6F727920543320257032
:101F0800000A4461746120726561642066726F6DB5
:101F1800206D656D6F727920626C6F636B20332062
:101F28003D20000A4D656D6F72792066726F6D20D5
:101F3800626C6F636B20332072656D6F7665640029
:101F48000A4C656176696E67207461736B20340092
:101F58000A0D456E746572656420696E746F20742D
:101F680061736B2033000A4C656176696E67207473
:101F780061736B2033000A426C6F636B206F6620BD
:101F880064617461206F627461696E6564200043E6
:101F9800434320543320434343000A4D6573736120
:101FA80067652073746F726564000A0D456E746509
:101FB80072656420696E746F207461736B203200DF
:101FC8000A4C656176696E67207461736B20320014
:101FD80042424220543220424242000A0D456E7469
:101FE8006572656420696E746F207461736B20314B
:101FF800000A4C656176696E67207461736B2031E5
:102008000041414120543120414141000A4D65734E
:10201800736167652073746F7265640A0001020456
:1020280008102040800000010002000100030001A8
:102038000002000100040001000200010003000189
:102048000002000100050001000200010003000178
:102058000002000100040001000200010003000169
:102068000002000100060001000200010003000157
:102078000002000100040001000200010003000149
:102088000002000100050001000200010003000138
:102098000002000100040001000200010003000129
:1020A8000002000100070001000200010003000116
:1020B8000002000100040001000200010003000109
:1020C80000020001000500010002000100030001F8
:1020D80000020001000400010002000100030001E9
:1020E80000020001000600010002000100030001D7
:1020F80000020001000400010002000100030001C9
:1021080000020001000500010002000100030001B7
:1021180000020001000400010002000100030001A8
:06212800000200010000AE
:00000001FF
