:100000000C9446000C9463000C9463000C94630001
:100010000C9463000C9463000C9463000C946300D4
:100020000C9463000C9463000C9463000C946300C4
:100030000C9463000C9463000C9463000C946300B4
:100040000C94430C0C9463000C9463000C946300B8
:100050000C9463000C9463000C9463000C94630094
:100060000C9463000C9463000C9463000C94630084
:100070000C9463000C9463000C9463000C94630074
:100080000C9463000C9463000C94630011241FBE55
:10009000CFEFD0E1DEBFCDBF12E0A0E0B1E0E6E7F8
:1000A000FFE102C005900D92A039B107D9F717E022
:1000B000A0E9B2E001C01D92A435B107E1F70E94AA
:1000C00094010C94B90F0C9400001092980087E6EC
:1000D00080939900EAE9F0E0808188618083089547
:1000E00080939C0080919B0085FFFCCF08958091B8
:1000F0009B0087FFFCCF80919C000895FC018081CC
:10010000882351F080939C0080919B0085FFFCCF59
:10011000319680818823B1F7089512BE87E083BFAE
:1001200081E087BF0895EF92FF920F931F93DF93B3
:10013000CF930F92CDB7DEB77E010894E11CF11C7E
:100140000BEF05BB8091A7059091A80560E070E0DA
:10015000A7010E943C0889818823B1F5E0E0F1E025
:100160008AE080939C0080919B0085FFFCCF3196B4
:1001700080818823B1F780919004909191046AE086
:1001800070E010E0412F50E00E9477099C0111239C
:10019000D9F4E4E1F1E08AE080939C0080919B0037
:1001A00085FFFCCF319680818823B1F7F9018081EA
:1001B000882351F080939C0080919B0085FFFCCFA9
:1001C000319680818823B1F78091A7059091A80589
:1001D0000E949D0787EB90E00E94AB04B2CFEF92A4
:1001E000FF920F931F93DF93CF930F92CDB7DEB79C
:1001F0007E010894E11CF11C0DEF05BB8091A70561
:100200009091A80560E070E0A7010E943C088981F8
:100210008823B1F5E8E2F1E08AE080939C008091C8
:100220009B0085FFFCCF319680818823B1F78091B8
:100230009004909191046AE070E010E0412F50E04A
:100240000E9477099C011123D9F4ECE3F1E08AE0E4
:1002500080939C0080919B0085FFFCCF319680812C
:100260008823B1F7F9018081882351F080939C00A5
:1002700080919B0085FFFCCF319680818823B1F768
:100280008091A7059091A8050E949D0787EB90E0BB
:100290000E94AB04B2CFEF92FF920F931F93DF93B4
:1002A000CF930F92CDB7DEB712BE87E083BF81E058
:1002B00087BF8E010F5F1F4F8EEFF82EEE24EA945A
:1002C000F5BAE0E5F1E08AE080939C0080919B0024
:1002D00085FFFCCF319680818823B1F78091A705F7
:1002E0009091A80560E070E0A8010E943C08809110
:1002F000A605882359F08091A7059091A8050E9432
:100300009D078DE390E00E94AB04DACF80919004CA
:10031000909191046AE571E00E945D0985E090E0AA
:100320000E94AB04E5BAE7CF0E94FD0A8BE491E09E
:1003300060E070E045EA55E025E00E948C068FEE13
:1003400090E060E070E04FE853E026E00E948C0609
:1003500083E990E060E070E04FE854E027E00E941D
:100360008C0684E066EA75E00E9441039093A8053C
:100370008093A70580E090E00E941703909391047A
:10038000809390041092980087E680939900EAE9A0
:10039000F0E08081886180838FEF84BB0E947D0ABA
:1003A0000895CF93DF9300D000D000D0EDB7FEB713
:1003B0003196C2E9D4E0ADB7BEB71296DC93CE93C6
:1003C000119727E531E033832283958384830E944C
:1003D000E10C809192042DB73EB72A5F3F4F0FB6D4
:1003E000F8943EBF0FBE2DBF882359F0FE018093C5
:1003F0009C0080919B0085FFFCCF319680818823F3
:10040000B1F7DF91CF910895FA0180839293129210
:1004100012921292129212921292129212921292BC
:1004200012921292129212921292129212921292AC
:10043000129212921292129212921292129262934B
:10044000729312921292129212921292129280E867
:1004500082933197CF0108950895089508950895DE
:10046000089508950895089508958091AA0581300A
:1004700009F008958091C8058F3FD9F38F5F80936D
:10048000C80508958091AA05813009F00895F8946F
:100490008091A9058F3F19F08F5F8093A90578940B
:1004A00008958CEF90E008950895FF920F931F93A5
:1004B000CF93DF93EC018B01F42E3981E32FF0E031
:1004C000E157FE4F2081422F50E0FA01E957FE4FDD
:1004D0007081DC01A40FB51F16969C911697E92F29
:1004E000F0E0E157FE4F8081E82FF0E0E957FE4F42
:1004F0006081220F220F220F280F862F80958923DB
:1005000016968C93882321F4872F8095382339837E
:10051000E22FF0E0EE0FFF1FEC52F94F0190F08157
:10052000E02D1386128617821682118700878F2D81
:100530008095948589238487882359F48091BC050C
:10054000872B8093BC05FA01E354FA4F8081682B16
:100550006083822FDF91CF911F910F91FF900895BB
:10056000CF93DF93EC01A091C905B091CA0517960E
:100570009C938E9316971F968C911F97482F50E04F
:1005800050963C915097FA01E354FA4F832F80958F
:100590009081892380838823A9F451962C91922FEE
:1005A00090958091BC0589238093BC05FE01E40FE2
:1005B000F51F8681832B86838981822B8983DF9136
:1005C000CF91089551962C91F1CFCF93DF93EC0109
:1005D000A091C905B091CA051F968C911F97FE0185
:1005E000E80FF11D50968C91509780959681892344
:1005F0008683882339F451969C91519790958981EF
:10060000892389831C961C921C9717961C921E9214
:100610001697DF91CF910895FC01118216821782FF
:100620001086118612861386148615860895CF9338
:10063000DF939C018091C8058823E9F4F894C09168
:10064000C505D091C605209731F08C819D8190938E
:10065000C6058093C5057894209749F081E088838A
:100660001B821A823D832C83CE010E940C03CE0193
:10067000DF91CF910895C0E0D0E0CE01DF91CF911E
:1006800008950F931F93CF93DF93982F8B01809141
:10069000C805882309F049C0F894292F30E0F901F2
:1006A000EE0FFF1FEC52F94F80819181892B89F564
:1006B00081E090E091838083C091C505D091C6050B
:1006C0002097D9F08C819D819093C6058093C505B4
:1006D000789484E08883922F88278F6F9B838A8306
:1006E0001D821C82CE010E940C03F8011082CE01F3
:1006F000DF91CF911F910F9108951182108278940C
:1007000084E0FB018083CE01DF91CF911F910F9197
:100710000895789488E2FB018083C0E0D0E0CE01A8
:10072000DF91CF911F910F9108958DE8FB01808398
:10073000C0E0D0E0DCCFCF93DF939C018091C8056F
:100740008823E9F4F894C091C505D091C605209797
:1007500031F08C819D819093C6058093C505789476
:10076000209749F083E088833B832A831D821C8283
:10077000CE010E940C03CE01DF91CF910895C0E01D
:10078000D0E0CE01DF91CF9108958F3F89F0F894AA
:10079000E82FF0E0EE0FFF1FEC52F94F0190F081CF
:1007A000E02D309769F08EE3828B80E07894089595
:1007B000F894E091C905F091CA058289789408956A
:1007C0008BE0789408951F93CF93DF93182FF894BC
:1007D000C091B705D091B805209709F457C08A8118
:1007E0009B819093B8058093B7057894798368834B
:1007F0001D871C861B861A861A8AE12FE695E695C8
:10080000E695EF87F0E0E957FE4F8081898BE12F75
:10081000E770EE87F0E0E957FE4F8081888B1F82FA
:100820001E8219861886CE010E943402CE010E94D3
:100830002C02F894E12FF0E0EE0FFF1FEC52F94F7D
:10084000D183C083E091B105F091B205FB83EA83C7
:100850001D821C82309711F0D583C483D093B205DA
:10086000C093B1058091BC059989892B8093BC0503
:10087000EF85F0E0E354FA4F80819889892B8083DB
:10088000789480E0DF91CF911F910895789486E469
:10089000DF91CF911F910895F8948091AB059091CD
:1008A000AC05A091AD05B091AE050196A11DB11D9D
:1008B0008093AB059093AC05A093AD05B093AE05C6
:1008C00078940E943302E8CFF8948091C805882379
:1008D00009F03FC08091A9058823D9F5E091BC05B6
:1008E000F0E0E157FE4F8081E82FF0E0E354FA4F4B
:1008F000E081F0E0E157FE4F982F990F990F990F83
:100900008081980F9093AF058091B005981709F1F9
:10091000E92FF0E0EE0FFF1FEC52F94F808191813B
:100920009093BB058093BA058091B3059091B4056F
:10093000A091B505B091B6050196A11DB11D80939A
:10094000B3059093B405A093B505B093B6050E9486
:10095000AF0B789408959C01009721F1F894A09131
:10096000C905B091CA051F96EC911F97F0E0E354BA
:10097000FA4F50968C91509780959081892380836F
:10098000882349F451969C91519790958091BC058C
:1009900089238093BC051B963C932E931A977894D9
:1009A0000E94640408958F929F92AF92BF92CF925B
:1009B000DF92EF92FF920F931F93CF93DF93882ED6
:1009C000162F942E8823C9F01C3300F58BE389156C
:1009D00090F093E0283E3907D8F083E5DF91CF917E
:1009E0001F910F91FF90EF90DF90CF90BF90AF904D
:1009F0009F908F90089582E5F1CF662329F74423D5
:100A000029F72115310529F784E5E8CF81E5E6CFFF
:100A1000B90180E090E02DE330E040E050E00E943A
:100A2000A00C68517E4F8F4F9F4F28EE33E040E07F
:100A300050E00E94BF0C59016A01612F70E080E014
:100A400090E02CE330E040E050E00E94A00C7B01FD
:100A50008C01E90CF11C011D111D682D70E080E076
:100A600090E020E13EE040E050E00E94A00CE60E65
:100A7000F71E081F191FC801B7012DE330E040E041
:100A800050E00E94A00CA60EB71EC81ED91E76010B
:100A900000271127E7018FEF9FEFA0E0B0E0A82229
:100AA000B922CA22DB22C5010E94AB04EF2851F013
:100AB00080E090E80E94AB0480E090E80E94AB04E4
:100AC0002197B1F780E08ACFF8948F3FB9F1E09198
:100AD000C905F091CA05E585E81771F1E82F20E016
:100AE000F0E0EE0FFF1FEC52F94FA081B18110979B
:100AF00061F11F96EC911F97F0E0E354FA4F509686
:100B00008C9150978095908189238083882349F424
:100B100051969C91519790958091BC058923809323
:100B2000BC051C968C911C9788601C968C937894BD
:100B3000213071F080E0089521E0D2CFE091C90525
:100B4000F091CA05E58521E0CBCF78948AE5089538
:100B50000E94640480E00895E82FF894F0E0EE0F1E
:100B6000FF1FEC52F94FA081B1811097B9F01C968C
:100B70008C911C9783FD03C0789485E60895877F48
:100B80001C968C931C97882331F41A968D919C9116
:100B90001B97892B31F0789480E00895789484E64F
:100BA00008958091BC0551969C915197892B809313
:100BB000BC051F96EC911F97F0E0E354FA4F80813B
:100BC00050969C91892B808378940E94640480E0E5
:100BD00008950F931F93CF93DF93E82F8091C8055B
:100BE000882309F068C0F894EF3F09F47FC00E2F06
:100BF00010E0000F111FF801EC52F94FC081D181B4
:100C0000209709F479C08F85482F50E028892095D6
:100C1000FA01E354FA4F808182238083882309F408
:100C200054C0AE81BF81109749F0FD01E40FF51F5C
:100C3000868182238683882309F44FC01B861A8607
:100C40001C868091A9058F3F19F08F5F8093A905BD
:100C50007894F8948823A9F5CE010E942D02809102
:100C6000B90581508093B9050C52194FF8011182D2
:100C70001082AC81BD81109709F445C08A819B81A7
:100C800013969C938E931297EA81FB81B583A4837C
:100C90008091B7059091B8059B838A83D093B8055E
:100CA000C093B70578940E94640480E0DF91CF91EF
:100CB0001F910F9108958FE3DF91CF911F910F91B5
:100CC000089581508093A905C7CF99899095809107
:100CD000BC0589238093BC05A4CF99899095119672
:100CE0008C911197892311968C93A8CFE091C90517
:100CF000F091CA05E5857BCF78948CE3DF91CF91A5
:100D00001F910F910895EA81FB8115821482F0935F
:100D1000B205E093B105BCCFAF92BF92CF92DF9204
:100D2000EF92FF920F931F93CF93DF93FC01122F4B
:100D3000F894C22FD0E0CC0FDD1FCC52D94F888160
:100D40009981892B71F0789418E2812FDF91CF91EE
:100D50001F910F91FF90EF90DF90CF90BF90AF90D9
:100D6000089581E090E0998388837894CF0120E012
:100D700030E00E940402BC01812F40E050E020E0FE
:100D800030E0EE24FF248701CC24DD24AA24BB24F8
:100D90000E94E303182F882371F4F8948091B90519
:100DA0008F5F8093B90578948091AA05813069F6A8
:100DB0000E946404CACFF894198218827894C5CF2F
:100DC000FC01F8948181882379F4828193812FEF4B
:100DD0008F3F920731F0019693838283789480E06D
:100DE0000895789482E30895CF0160E070E041E0D7
:100DF0000E94550278940E94640480E008950F9345
:100E00001F93CF93DF93EC018A018091C80588235B
:100E100009F075C0F8948A819B81009709F064C03D
:100E2000A091C905B091CA051C968C911C97816050
:100E30001C968C931C971B967C936E931A9717960F
:100E4000DC93CE9316971F968C911F97482F50E0F6
:100E500050963C915097FA01E354FA4F832F8095B6
:100E6000908189238083882309F451C051962C9165
:100E7000FE01E40FF51F8681832B86838981822BF7
:100E8000898378940E946404F894A091C905B09174
:100E9000CA051C968C911C9780FF43C01F968C91AD
:100EA0001F97FE01E80FF11D50968C915097809589
:100EB000968189238683882339F451969C91519792
:100EC00090958981892389831C961C921C9717967B
:100ED0001C921E92169778948AE0F8018083DF9125
:100EE000CF911F910F91089501979B838A837894E6
:100EF000FA011082DF91CF911F910F91089582E046
:100F0000FA018083DF91CF911F910F91089551963F
:100F10002C91922F90958091BC0589238093BC05DC
:100F2000A7CF17961C921E9216977894F8011082FC
:100F3000DF91CF911F910F910895CF93DF93EC0133
:100F40008091C8058823A1F4F8943A814B81A0913F
:100F5000C905B091CA051D968C911D97841761F043
:100F6000381709F454C0789488E7DF91CF91089539
:100F700085E0DF91CF9108951F96EC911F97F0E0E7
:100F8000E354FA4F50968C91509780959081892325
:100F90008083882349F451969C9151979095809134
:100FA000BC0589238093BC051D963C931D97E32FB8
:100FB000E695E695E6951F96EC931F97F0E0E957C6
:100FC000FE4F208151962C935197E32FE7701E9688
:100FD000EC931E97F0E0E957FE4F908150969C935A
:100FE00050978091BC05822B8093BC051F96EC9195
:100FF0001F97F0E0E354FA4F8081982B9083E32F02
:10100000F0E0EE0FFF1FEC52F94FB183A083E42F05
:10101000F0E0EE0FFF1FEC52F94F81E090E091837A
:1010200080838981882361F48A819B818F6F9B8370
:101030008A831D821C82789480E0DF91CF9108958D
:10104000CE0160E070E040E10E945502E82FF0E040
:101050008A819B8180708E2B9F2B9B838A83EE0FCE
:10106000FF1FEC52F94F808191819D838C8378948E
:101070000E94640480E079CFEF92FF920F931F9358
:10108000CF93DF938C017A018091C805882309F002
:10109000DDC0F894F801228133812F3F09F4EEC0BE
:1010A000432FD8011496CD91DC9115978D85831728
:1010B00009F45CC0A091C905B091CA051D968C9138
:1010C0001D97821708F056C08F85E82FF0E0E35493
:1010D000FA4F50819889852F892369F1892F80954E
:1010E00085238083882339F4998990958091BC0564
:1010F00089238093BC054D87E42FE695E695E69518
:10110000EF87F0E0E957FE4F2081298BE42FE7704D
:10111000EE87F0E0E957FE4F9081988B8091BC05F7
:10112000822B8093BC05EF85F0E0E354FA4F808179
:10113000982B908313C03D87E32FE695E695E695BF
:10114000EF87F0E0E957FE4F8081898BE32FE7704E
:10115000EE87F0E0E957FE4F8081888BE42FF0E0C6
:10116000EE0FFF1FEC52F94FD183C083A091C90548
:10117000B091CA051C968C911C9780611C968C932B
:101180001C971B967C936E931A9717961C930E933D
:1011900016971F968C911F97282F30E050964C91F0
:1011A0005097F901E354FA4F842F80959081892359
:1011B0008083882349F451969C9151979095809112
:1011C000BC0589238093BC05F801E20FF31F8681DB
:1011D000842B8683F801818151969C91892B818390
:1011E00078940E946404F894A091C905B091CA054E
:1011F0001C968C911C9784FF33C01F968C911F976F
:10120000F801E80FF11D50968C91509780959681CA
:1012100089238683882341F451969C915197909518
:10122000F8018181892381831C961C921C97179653
:101230001C921E92169778948AE0D7018C93DF91C6
:10124000CF911F910F91FF90EF90089582E0DA0106
:101250008C93DF91CF911F910F91FF90EF900895A4
:1012600017961C921E9216977894F7011082DF91C0
:10127000CF911F910F91FF90EF900895C901807059
:1012800093838283E091C905F091CA05258530E0FA
:10129000282B392BD80113963C932E931297159631
:1012A000FC93EE9314977894FA011082DF91CF911A
:1012B0001F910F91FF90EF900895FC01F8948181A8
:1012C000882339F484819581892B61F0789484E1B5
:1012D0000895CF0142E00E94550278940E94640470
:1012E00080E0089575836483789480E008950F9377
:1012F0001F93CF93DF93EC018A018091C805882367
:1013000009F06EC0F8942C813D812115310559F00A
:101310001D821C827894FA011082C901DF91CF915D
:101320001F910F910895A091C905B091CA051C960F
:101330008C911C9782601C968C931C971B967C93B7
:101340006E931A971796DC93CE9316971F968C91EF
:101350001F97482F50E050963C915097FA01E35464
:10136000FA4F832F8095908189238083882371F1A0
:1013700051962C91FE01E40FF51F8681832B868305
:101380008981822B898378940E946404F894A091C7
:10139000C905B091CA0518962D913C911997211550
:1013A000310521F119961C921E9218971C961C92D9
:1013B0001C9717961C921E9216977894F80110822B
:1013C000C901DF91CF911F910F91089551962C91F2
:1013D000922F90958091BC0589238093BC05CACF3C
:1013E00082E0FA01808320E030E097CF1F968C9155
:1013F0001F97FE01E80FF11D50968C915097809534
:10140000968189238683882339F451969C9151973C
:1014100090958981892389831C961C921C97179625
:101420001C921E92169778948AE0F801808375CFFB
:101430008091AA05813009F00895F8948091A9055A
:10144000882359F081508093A905882321F4809145
:10145000C805882321F078940895789408957894A5
:101460000E94640408950E9430028091AA05813090
:1014700009F00895A091B105B091B2051D968C9127
:101480001D978F33B1F32091BC0541E050E01AC0A5
:1014900051968C915197282B1F96EC911F97F0E055
:1014A000E354FA4F808150969C915097892B80830A
:1014B00012960D90BC91A02D78941D968C911D973D
:1014C0008F33C1F0F8941A968D919C911B970097D9
:1014D00079F301971B969C938E931A97892B41F76A
:1014E0001C968C911C9783FFD3CF1B965C934E93D5
:1014F0001A97DECF2093BC0508958091AA0581112B
:101500000895E091BC05F0E0E157FE4FA081EA2F7D
:10151000F0E0E354FA4FE081F0E0E157FE4FAA0F0C
:10152000AA0FAA0F8081A80FA093AF05A093B005C2
:10153000B0E0AA0FBB1FAC52B94F8D919C91909314
:10154000BB058093BA059093CA058093C9050E9494
:101550007D0B08958091AA05813009F00895F894D3
:101560008091C805882339F081508093C80588236D
:1015700011F0789408958091A9058823D1F7E0911E
:10158000BC05F0E0E157FE4F80818093C705E82F4E
:10159000F0E0E354FA4FE081F0E0E157FE4F982F7E
:1015A000990F990F990F8081980F9093AF058091B3
:1015B000B0059817F1F2E92FF0E0EE0FFF1FEC52A3
:1015C000F94F808191819093BB058093BA058091FA
:1015D000B3059091B405A091B505B091B6050196FB
:1015E000A11DB11D8093B3059093B405A093B505DB
:1015F000B093B6050E940E0CBCCF0E94310210922F
:10160000C8051092A9051092B9051092AA0510926A
:10161000B3051092B4051092B5051092B60510925C
:10162000AB051092AC051092AD051092AE0510926C
:10163000BC05EDEBF5E0119285E0E53CF807D9F744
:101640001092B0051092AF051092BB051092BA052A
:101650001092CA051092C9051092B2051092B105F8
:10166000E4EDF6E01192119287E0E435F807D1F746
:1016700088E896E090937806809377064396909357
:101680008B0680938A06439690939E0680939D06D0
:1016900043969093B1068093B0061092C4061092C0
:1016A000C3068C5490409093B8058093B705109270
:1016B0004B0689E596E09093500680934F06109272
:1016C00059060E9690935E0680935D064C97109295
:1016D000670610926C0610926B069093C605809375
:1016E000C5058CE494E060E070E04AE456E02FE346
:1016F0000E948C060E94320208950E942E020091E0
:10170000AA0503950093AA05E091BA05F091BB05DF
:10171000C191CDBFD191DEBF0F910FBFFF91EF916E
:10172000DF91CF91BF91AF919F918F917F916F91F9
:101730005F914F913F912F911F910F91FF90EF90EB
:10174000DF90CF90BF90AF909F908F907F906F90E1
:101750005F904F903F902F901F900F9008950F92A1
:101760001F922F923F924F925F926F927F928F9231
:101770009F92AF92BF92CF92DF92EF92FF920F9320
:101780001F932F933F934F935F936F937F938F9309
:101790009F93AF93BF93CF93DF93EF93FF930FB7D5
:1017A0000F93E091C905F091CA05CDB7C193DEB79B
:1017B000D1930E942E020091AF050093B005E091F5
:1017C000BA05F091BB05E093C905F093CA05C19134
:1017D000CDBFD191DEBF0F910FBFFF91EF91DF9190
:1017E000CF91BF91AF919F918F917F916F915F91B9
:1017F0004F913F912F911F910F91FF90EF90DF90AC
:10180000CF90BF90AF909F908F907F906F905F90A0
:101810004F903F902F901F900F9008950E942E029E
:101820000091AF050093B005E091BA05F091BB05BA
:10183000E093C905F093CA05C191CDBFD191DEBF38
:101840000F910FBFFF91EF91DF91CF91BF91AF91BA
:101850009F918F917F916F915F914F913F912F91C8
:101860001F910F91FF90EF90DF90CF90BF90AF90BE
:101870009F908F907F906F905F904F903F902F90B0
:101880001F900F9008950F921F922F923F924F92A8
:101890005F926F927F928F929F92AF92BF92CF9200
:1018A000DF92EF92FF920F931F932F933F934F93EB
:1018B0005F936F937F938F939F93AF93BF93CF93D8
:1018C000DF93EF93FF930FB700680F930091C80564
:1018D00003950093C805013041F4CDB7DEB7E09120
:1018E000C905F091CA05C193D19300E002BF789475
:1018F0000E94330A00000E94AA0A0F910FBFFF91B5
:10190000EF91DF91CF91BF91AF919F918F917F9197
:101910006F915F914F913F912F911F910F91FF9088
:10192000EF90DF90CF90BF90AF909F908F907F907F
:101930006F905F904F903F902F901F900F90089561
:10194000629FD001739FF001829FE00DF11D649FA3
:10195000E00DF11D929FF00D839FF00D749FF00D2F
:10196000659FF00D9927729FB00DE11DF91F639FD0
:10197000B00DE11DF91FBD01CF0111240895A1E2B1
:101980001A2EAA1BBB1BFD010DC0AA1FBB1FEE1FF9
:10199000FF1FA217B307E407F50720F0A21BB30B44
:1019A000E40BF50B661F771F881F991F1A9469F7C0
:1019B00060957095809590959B01AC01BD01CF011C
:1019C0000895AEE0B0E0E7EEFCE00C94900F0D89D6
:1019D0001E8986E08C831A8309838FEF9FE79E839D
:1019E0008D839E01275E3F4FCE0101966F89788DD2
:1019F000A9010E94050D2F813885020F131FF801E0
:101A000010822E96E4E00C94AC0FABE0B0E0EBE07B
:101A1000FDE00C94820F3C012B015A01FC0117825E
:101A20001682838181FD03C06FEF7FEFC6C19AE00C
:101A3000892E1E010894211C311CF3012381F2011F
:101A400023FD859123FF81912F01882309F4B2C1E1
:101A5000853239F423FD859123FF81912F01853251
:101A600029F490E0B3010E94F80EE7CF982FFF24ED
:101A7000EE249924FFE1FF15D0F09B3269F09C32EF
:101A800028F4903259F0933291F40EC09D3249F00F
:101A9000903369F441E024C052E0F52A84E0F82A4A
:101AA00028C098E0F92A25C0E0E1FE2A22C0F7FC10
:101AB00029C0892F80538A3070F4F6FE05C0989CA7
:101AC000902C1124980E15C0E89CE02C1124E80EEF
:101AD000F0E2FF2A0EC09E3229F4F6FC6BC140E40E
:101AE000F42A07C09C3619F450E8F52A02C098364B
:101AF00049F4F20123FD959123FF91912F01992340
:101B000009F0B8CF892F8554833018F08052833084
:101B100038F444E050E0A40EB51E5FE359830FC0D3
:101B2000933631F0933779F0933509F056C020C0E1
:101B3000F5018081898342E050E0A40EB51E610169
:101B400001E010E012C0F501C080D180F6FC03C0B6
:101B50006FEF7FEF02C0692D70E042E050E0A40E0D
:101B6000B51EC6010E94ED0E8C015FE7F52214C080
:101B7000F501C080D180F6FC03C06FEF7FEF02C09B
:101B8000692D70E042E050E0A40EB51EC6010E942F
:101B9000E20E8C0150E8F52AF3FE07C01AC080E27D
:101BA00090E0B3010E94F80EEA948E2D90E00817A1
:101BB0001907A8F30EC0F601F7FC8591F7FE819195
:101BC0006F0190E0B3010E94F80EE110EA94015019
:101BD00010400115110579F7EAC0943611F09936D5
:101BE00069F5F7FE08C0F5012081318142815381FA
:101BF00084E090E00AC0F501808191819C01442736
:101C000037FD4095542F82E090E0A80EB91E9FE664
:101C1000F92257FF09C050954095309521953F4FC7
:101C20004F4F5F4FE0E8FE2ACA01B901A1012AE047
:101C300030E00E94240FD82ED21840C0953729F4E6
:101C40001F2D1F7E2AE030E01DC01F2D197F9F36FB
:101C500061F0903720F4983509F0ACC00FC0903790
:101C600039F0983709F0A6C004C028E030E00AC077
:101C7000106114FD146020E130E004C014FD166012
:101C800020E132E017FF08C0F50160817181828197
:101C9000938144E050E008C0F50180819181BC014E
:101CA00080E090E042E050E0A40EB51EA1010E9449
:101CB000240FD82ED2188FE7F82EF122F6FE0BC093
:101CC0005EEFF522D91438F4F4FE07C0F2FC05C02B
:101CD0008FEEF82202C01D2D01C0192DF4FE0DC09B
:101CE000FE01ED0DF11D8081803319F499EEF9228A
:101CF00008C01F5FF2FE05C003C08F2D867809F073
:101D00001F5F0F2DF3FC14C0F0FE0FC01E1510F066
:101D10009D2C0BC09D2C9E0C911A1E2D06C080E29E
:101D200090E0B3010E94F80E1F5F1E15C0F304C0BF
:101D30001E1510F4E11A01C0EE2404FF0FC080E369
:101D400090E0B3010E94F80E02FF1DC001FD03C028
:101D500088E790E00EC088E590E00BC0802F867881
:101D600091F001FF02C08BE201C080E2F7FC8DE23E
:101D700090E0B3010E94F80E06C080E390E0B3014A
:101D80000E94F80E9A94D914C0F3DA94F101ED0D83
:101D9000F11D808190E0B3010E94F80EDD20A9F7CB
:101DA00006C080E290E0B3010E94F80EEA94EE20B3
:101DB000C1F743CEF30166817781CB012B96E2E137
:101DC0000C949E0FFC010590615070400110D8F7F3
:101DD000809590958E0F9F1F0895FC016150704073
:101DE00001900110D8F7809590958E0F9F1F089550
:101DF0000F931F93CF93DF938C01EB018B8181FFB6
:101E00001BC082FF0DC02E813F818C819D812817D0
:101E1000390764F4E881F9810193F983E88306C006
:101E2000E885F985802F0995892B31F48E819F8172
:101E300001969F838E8302C00FEF1FEFC801DF91D1
:101E4000CF911F910F910895FA01AA27283051F1DF
:101E5000203181F1E8946F936E7F6E5F7F4F8F4FDB
:101E60009F4FAF4FB1E03ED0B4E03CD0670F781F3A
:101E7000891F9A1FA11D680F791F8A1F911DA11D1F
:101E80006A0F711D811D911DA11D20D009F4689458
:101E90003F912AE0269F11243019305D3193DEF600
:101EA000CF010895462F4770405D4193B3E00FD0B6
:101EB000C9F7F6CF462F4F70405D4A3318F0495DA1
:101EC00031FD4052419302D0A9F7EACFB4E0A69584
:101ED0009795879577956795BA95C9F700976105A6
:101EE000710508959B01AC010A2E069457954795FC
:101EF00037952795BA95C9F7620F731F841F951FF1
:101F0000A01D08952F923F924F925F926F927F9201
:101F10008F929F92AF92BF92CF92DF92EF92FF92F9
:101F20000F931F93CF93DF93CDB7DEB7CA1BDB0BA5
:101F30000FB6F894DEBF0FBECDBF09942A8839884A
:101F400048885F846E847D848C849B84AA84B98451
:101F5000C884DF80EE80FD800C811B81AA81B9815D
:101F6000CE0FD11D0FB6F894DEBF0FBECDBFED0171
:061F70000895F894FFCF74
:101F76000A4D757465782061637120627920546119
:101F8600736B33000A4D6573736167652072656113
:101F96006420627920333A000A4D757465782061B1
:101FA6006371206279205461736B32000A4D657348
:101FB60073616765207265616420627920323A0038
:101FC6000A5461736B3100256400094D65737361B2
:101FD600676520746F206265207472616E73666532
:101FE6007272656420746F204D626F780000000085
:101FF60000000000000000010204081020408000DC
:1020060000010002000100030001000200010004BB
:1020160000010002000100030001000200010005AA
:10202600000100020001000300010002000100049B
:102036000001000200010003000100020001000689
:10204600000100020001000300010002000100047B
:10205600000100020001000300010002000100056A
:10206600000100020001000300010002000100045B
:102076000001000200010003000100020001000748
:10208600000100020001000300010002000100043B
:10209600000100020001000300010002000100052A
:1020A600000100020001000300010002000100041B
:1020B6000001000200010003000100020001000609
:1020C60000010002000100030001000200010004FB
:1020D60000010002000100030001000200010005EA
:1020E60000010002000100030001000200010004DB
:1020F60000010002000100030001000200010000CF
:00000001FF
