:100000000C9446000C9463000C9463000C94630001
:100010000C9463000C9463000C9463000C946300D4
:100020000C9463000C9463000C9463000C946300C4
:100030000C9463000C9463000C9463000C946300B4
:100040000C94E2130C9463000C9463000C94630012
:100050000C9463000C9463000C9463000C94630094
:100060000C9463000C9463000C9463000C94630084
:100070000C9463000C9463000C9463000C94630074
:100080000C9463000C9463000C94630011241FBE55
:10009000CFEFD0E1DEBFCDBF12E0A0E0B1E0E4EBF6
:1000A000FEE202C005900D92AA39B107D9F716E019
:1000B000AAE9B2E001C01D92A437B107E1F70E949E
:1000C00082010C9458170C9400001092980087E657
:1000D00080939900EAE9F0E0808188618083089547
:1000E00080939C0080919B0085FFFCCF08958091B8
:1000F0009B0087FFFCCF80919C000895FC018081CC
:10010000882351F080939C0080919B0085FFFCCF59
:10011000319680818823B1F7089512BE87E083BFAE
:1001200081E087BF0895EF92FF920F931F93DF93B3
:10013000CF930F92CDB7DEB77E010894E11CF11C7E
:100140000DEF05BB8091BC049091BD0460E070E0B0
:10015000A7010E94FE0C89818823B1F5E0E0F1E05F
:100160008AE080939C0080919B0085FFFCCF3196B4
:1001700080818823B1F78091A5039091A6036AE05E
:1001800070E010E0412F50E00E94170B9C011123FA
:1001900031F5E4E1F1E08AE080939C0080919B00DE
:1001A00085FFFCCF319680818823B1F7F9018081EA
:1001B000882351F080939C0080919B0085FFFCCFA9
:1001C000319680818823B1F78091BC049091BD0461
:1001D0000E945F0C87EB90E00E94FA06B2CFE8E243
:1001E000F1E08AE080939C0080919B0085FFFCCF2A
:1001F000319680818823B1F7E7CFFF920F931F9349
:10020000DF93CF93CDB7DEB729970FB6F894DEBF53
:100210000FBECDBF12BE87E083BF81E087BF8EE3F4
:1002200091E09B838A8385E491E09D838C838CE4B9
:1002300091E09F838E8383E591E0998788878E0183
:100240000F5F1F4F9EEFF92EF5BAEAE5F1E08AE065
:1002500080939C0080919B0085FFFCCF319680812C
:100260008823B1F78091BC049091BD0460E070E0F8
:10027000A8010E94FE0C8091BB04882359F0809154
:10028000BC049091BD040E945F0C8DE390E00E943D
:10029000FA06DACFE0919A02F0E0EE0FFF1FE00FCE
:1002A000F11F618172818091A5039091A6030E9444
:1002B000D60A8823B9F4E1E6F1E08AE080939C0055
:1002C00080919B0085FFFCCF319680818823B1F718
:1002D00080919A028F5F80939A02843080F210920C
:1002E0009A02CDCF8E31A1F7EFE7F1E08AE080935B
:1002F0009C0080919B0085FFFCCF319680818823F4
:10030000B1F7E6CF0E948B128DEF90E060E070E0D5
:100310004AEB54E025E00E94090983E990E060E09F
:1003200070E044EA53E026E00E94090984E06BEBA8
:1003300074E00E945F049093BD048093BC048BE939
:1003400092E06AE070E00E942E059093A6038093ED
:10035000A5031092980087E680939900EAE9F0E0FF
:100360008081886180838FEF84BB0E940B12089587
:10037000CF93DF9300D000D000D0EDB7FEB7319619
:10038000C7EAD3E0ADB7BEB71296DC93CE93119710
:100390002FE831E033832283958384830E94801485
:1003A0008091A7032DB73EB72A5F3F4F0FB6F89451
:1003B0003EBF0FBE2DBF882359F0FE0180939C00E5
:1003C00080919B0085FFFCCF319680818823B1F717
:1003D000DF91CF910895FA01808392931292129245
:1003E00012921292129212921292129212921292ED
:1003F00012921292129212921292129212921292DD
:10040000129212921292129212921292629372931A
:1004100012921292129212921292129280E8829387
:100420003197CF0108950895089508950895089586
:1004300008950895089508958091BF04813009F0CA
:1004400008958091F1048F3FD9F38F5F8093F10479
:1004500008958091BF04813009F00895F894809147
:10046000BE048F3F19F08F5F8093BE047894089587
:100470008CEF90E008950895FF920F931F93CF9310
:10048000DF93EC018B01F42E3981E32FF0E0E65687
:10049000FE4F2081422F50E0FA01EE56FE4F708150
:1004A000DC01A40FB51F16969C911697E92FF0E07A
:1004B000E656FE4F8081E82FF0E0EE56FE4F608159
:1004C000220F220F220F280F862F80958923169640
:1004D0008C93882321F4872F809538233983E22F4A
:1004E000F0E0EE0FFF1FE850FA4F0190F081E02D91
:1004F0001686158617821682118700878F2D8095A4
:10050000978589238787882359F48091E504872B71
:100510008093E504FA01EA51FB4F8081682B6083E8
:10052000822FDF91CF911F910F91FF900895CF936C
:10053000DF93EC01A091F204B091F30417969C9321
:100540008E93169752968C915297482F50E053965F
:100550003C915397FA01EA51FB4F832F809590818C
:10056000892380838823A9F454962C91922F909507
:100570008091E50489238093E504FE01E40FF51FD3
:100580008681832B86838981822B8983DF91CF911A
:10059000089554962C91F1CFCF93DF93EC01A09165
:1005A000F204B091F30452968C915297FE01E80F39
:1005B000F11D53968C91539780959681892386835C
:1005C000882339F454969C91549790958981892376
:1005D00089831F961C921F9717961C921E9216973E
:1005E000DF91CF910895FC01118216821782108647
:1005F000118612861386148615860895DC01962FBF
:10060000F90147FD2EC020E01082F894413079F1C5
:10061000413050F0423009F438C04330A9F07894AA
:1006200087E9808380E0089513966C911397862F55
:1006300080958923891709F44EC088E98083139631
:100640006C91862F7894089513966C911397892F47
:10065000862349F588E9808313966C91862F7894D8
:1006600008954F7721E01082F894413089F613966F
:100670006C911397862F80958923E9F488E980830C
:1006800013966C91862F7894089513966C91139716
:10069000892F86238917B1F088E9808313966C919E
:1006A000862F789408952130C9F680958623139675
:1006B0008C93682FD3CF213029F7862B13968C93F8
:1006C000682FE0CF213061F7892F8095862313961C
:1006D0008C93682FE5CF213009F0B3CF862F892B7B
:1006E00013968C93682FADCF282FDB018091F104F6
:1006F0008823D9F4F894E091F605F091F705309746
:1007000079F0818192819093F7058093F60585E0D9
:10071000808323831282118278941C92CF010895E2
:1007200078948AE98C93CF0108958DE88C93E0E06A
:10073000F0E0F4CFFC01DB01F894838178941C9203
:10074000089585EC94E09093F7058093F605109258
:10075000C5041092C7041092C6040895CF93DF9386
:10076000EC01AC81BD811E961C921E921D971C96B9
:100770006C931C971F968C911F978F7D1F968C935F
:100780001F978823B1F080E0EA81FB81A881B981BD
:10079000309749F1B183A083109721F01396FC9311
:1007A000EE931297EC81FD8113861286DF91CF9133
:1007B00008958091E50454969C915497892B8093D9
:1007C000E5045296EC915297F0E0EA51FB4F80819C
:1007D00053969C91892B808381E0EA81FB81A881DB
:1007E000B9813097B9F6EE81FF81B283A18310976A
:1007F000C9F213961C921E921297EC81FD8113860A
:100800001286DF91CF910895CF93DF93EC01EA81B7
:10081000FB81A881B981309779F0B183A0831097CB
:1008200021F01396FC93EE931297EC81FD811386D1
:100830001286DF91CF910895EE81FF81B283A1836B
:10084000109799F313961C921E921297EC81FD81DA
:1008500013861286DF91CF910895CF93DF93DC0149
:10086000EB018091F104882369F4F89412962D919C
:100870003C9113972F3F61F07894188280E0DF91CC
:10088000CF91089582E0888380E0DF91CF91089531
:10089000E091F204F091F304808990E02070822BC3
:1008A000932B13969C938E9312971596FC93EE932D
:1008B00014977894188281E0DF91CF9108950F9377
:1008C0001F93CF93DF93982F8B018091F10488239E
:1008D00009F049C0F894292F30E0F901EE0FFF1F0D
:1008E000E850FA4F80819181892B89F581E090E071
:1008F00091838083C091EE04D091EF042097D9F0CA
:100900008C819D819093EF048093EE04789484E031
:100910008883922F88278F6F9B838A831D821C82F6
:10092000CE010E94F302F8011082CE01DF91CF9137
:100930001F910F91089511821082789484E0FB0139
:100940008083CE01DF91CF911F910F91089578940C
:1009500088E2FB018083C0E0D0E0CE01DF91CF913F
:100960001F910F9108958DE8FB018083C0E0D0E0D6
:10097000DCCFCF93DF93EC01DB018091F10488237E
:1009800099F5F8949A818B811B968C931B971A96F4
:100990009C931A979F3F61F119961C921997898130
:1009A00018968C9318978E81FD0181938F811196F3
:1009B0008C93DF01119688858183FD0131968985AD
:1009C00011968C93DF0111968A858183FD01319602
:1009D0008B8511968C938C8581838D858283789409
:1009E00080E0DF91CF91089586E0DF91CF91089567
:1009F00081E019968C931997D2CFFC01F894A481C9
:100A0000B5811C968D919C911D970097C9F0189601
:100A1000ED91FC911997219131911996FC93EE93E8
:100A2000189701971D969C938E931C9714968D9101
:100A30009C911597E817F90741F07894C90108953A
:100A400020E030E07894C901089512968D919C9130
:100A5000139719969C938E931897EFCFCF93DF93AC
:100A60009C018091F104882309F047C0F894C0915B
:100A7000EE04D091EF04209731F08C819D8190930A
:100A8000EF048093EE047894209741F1F894E0917C
:100A9000E304F091E404309729F1808191819093EF
:100AA000E4048093E304789433832283CB01880F9A
:100AB000991F820F931F9583848337832683318701
:100AC0002087738762871586148682E088831B825D
:100AD0001A82FD83EC83CE010E94F302CE01DF91E6
:100AE000CF9108958091EE049091EF049D838C83C3
:100AF000D093EF04C093EE047894C0E0D0E0CE0130
:100B0000DF91CF910895FC01F8940480F581E02DE8
:100B10008281938197838683918780871586148647
:100B2000789480E00895CF93DF93FC01DB01F89483
:100B300081811E968C931E97868116968C931697AC
:100B4000878117968C931797808518968C931897A2
:100B5000818519968C93199782851A968C931A978A
:100B600083851B968C931B9784851C968C931C976E
:100B700085851D968C931D97C481D5812C853D85D7
:100B80002115310591F411961C921E9213963C93F7
:100B90002E9312978A859B8515969C938E93149716
:100BA000789480E0DF91CF910895E885F985808180
:100BB000918111969C938E93E9CF83ED94E090936D
:100BC000E4048093E3041092D4041092D3040895B3
:100BD000CF93DF939C018091F1048823E9F4F8948A
:100BE000C091EE04D091EF04209731F08C819D816B
:100BF0009093EF048093EE047894209749F083E07B
:100C000088833B832A831D821C82CE010E94F302CB
:100C1000CE01DF91CF910895C0E0D0E0CE01DF9109
:100C2000CF9108958F3F89F0F894E82FF0E0EE0F10
:100C3000FF1FE850FA4F0190F081E02D309769F0E6
:100C40008EE3858B80E078940895F894E091F20427
:100C5000F091F3048589789408958BE07894089551
:100C60001F93CF93DF93182FF894C091D004D091A5
:100C7000D104209709F459C08A819B819093D104B3
:100C80008093D004789479836883188B1F861E869E
:100C90001D861D8AE12FE695E695E695EA8BF0E044
:100CA000EE56FE4F80818C8BE12FE770E98BF0E0F0
:100CB000EE56FE4F80818B8B1F821E821B861A860A
:100CC00019861886CE010E941B02CE010E941302D3
:100CD000F894E12FF0E0EE0FFF1FE850FA4FD183B8
:100CE000C083E091CA04F091CB04FB83EA831D82A8
:100CF0001C82309711F0D583C483D093CB04C0936A
:100D0000CA048091E5049C89892B8093E504EA89D3
:100D1000F0E0EA51FB4F80819B89892B8083789496
:100D200080E0DF91CF911F910895789486E4DF9160
:100D3000CF911F910895F8948091C0049091C104BF
:100D4000A091C204B091C3040196A11DB11D80936E
:100D5000C0049093C104A093C204B093C3047894D8
:100D60000E941A02E8CFF8948091F104882309F0D8
:100D70003FC08091BE048823D9F5E091E504F0E0FE
:100D8000E656FE4F8081E82FF0E0EA51FB4FE0810C
:100D9000F0E0E656FE4F982F990F990F990F80813A
:100DA000980F9093C4048091C904981709F1E92F12
:100DB000F0E0EE0FFF1FE850FA4F80819181909391
:100DC000E2048093E1048091CC049091CD04A09141
:100DD000CE04B091CF040196A11DB11D8093CC0427
:100DE0009093CD04A093CE04B093CF040E944E13F1
:100DF000789408959C01009721F1F894A091F20451
:100E0000B091F3045296EC915297F0E0EA51FB4F07
:100E100053968C9153978095908189238083882362
:100E200049F454969C91549790958091E5048923B8
:100E30008093E5041E963C932E931D9778940E9410
:100E4000B30608958F929F92AF92BF92CF92DF9296
:100E5000EF92FF920F931F93CF93DF93882E162F5D
:100E6000942E8823C9F01C3300F58BE3891590F08C
:100E700093E0283E3907D8F083E5DF91CF911F91A9
:100E80000F91FF90EF90DF90CF90BF90AF909F9029
:100E90008F90089582E5F1CF662329F7442329F73F
:100EA0002115310529F784E5E8CF81E5E6CFB901C1
:100EB00080E090E02DE330E040E050E00E943F14FD
:100EC00068517E4F8F4F9F4F28EE33E040E050E057
:100ED0000E945E1459016A01612F70E080E090E089
:100EE0002CE330E040E050E00E943F147B018C0195
:100EF000E90CF11C011D111D682D70E080E090E0EF
:100F000020E13EE040E050E00E943F14E60EF71E74
:100F1000081F191FC801B7012DE330E040E050E081
:100F20000E943F14A60EB71EC81ED91E76010027C8
:100F30001127E7018FEF9FEFA0E0B0E0A822B922D0
:100F4000CA22DB22C5010E94FA06EF2851F080E098
:100F500090E80E94FA0680E090E80E94FA06219745
:100F6000B1F780E08ACFF8948F3FB9F1E091F204B5
:100F7000F091F304E089E81771F1E82F20E0F0E048
:100F8000EE0FFF1FE850FA4FA081B181109761F179
:100F90005296EC915297F0E0EA51FB4F53968C91A8
:100FA00053978095908189238083882349F45496B0
:100FB0009C91549790958091E50489238093E50452
:100FC0001F968C911F9788601F968C937894213080
:100FD00071F080E0089521E0D2CFE091F204F09129
:100FE000F304E08921E0CBCF78948AE508950E944C
:100FF000B30680E00895E82FF894F0E0EE0FFF1FAD
:10100000E850FA4FA081B1811097B9F01F968C91EA
:101010001F9783FD03C0789485E60895877F1F9608
:101020008C931F97882331F41D968D919C911E9768
:10103000892B31F0789480E00895789484E60895BF
:101040008091E50454969C915497892B8093E504F4
:101050005296EC915297F0E0EA51FB4F8081539603
:101060009C91892B808378940E94B30680E0089538
:101070000F931F93CF93DF93E82F8091F104882380
:1010800009F088C0F894EF3F09F49FC00E2F10E0DC
:10109000000F111FF801E850FA4FC081D18120974D
:1010A00009F499C08A89482F50E02B892095FA01CC
:1010B000EA51FB4F808182238083882309F474C026
:1010C000AE81BF81109749F0FD01E40FF51F8681C5
:1010D00082238683882309F46FC08A859B850097C5
:1010E000E1F0DC0112962D913C9113970D90BC918B
:1010F000A02D2115310509F47EC0F901B183A0832B
:10110000109721F013963C932E931297DC011496BE
:10111000ED91FC911597138612861E861D861F86FB
:101120008091BE048F3F19F08F5F8093BE04789446
:10113000F8948823A9F5CE010E9414028091D2046C
:1011400081508093D20408501A4FF8011182108206
:10115000AC81BD81109709F445C08A819B811396AB
:101160009C938E931297EA81FB81B583A48380912F
:10117000D0049091D1049B838A83D093D104C093EF
:10118000D00478940E94B30680E0DF91CF911F9144
:101190000F9108958FE3DF91CF911F910F910895E3
:1011A00081508093BE04C7CF9C8990958091E504BF
:1011B00089238093E50484CF9C89909511968C9126
:1011C0001197892311968C9388CFE091F204F091C6
:1011D000F304E0895BCF78948CE3DF91CF911F918A
:1011E0000F910895EA81FB8115821482F093CB045C
:1011F000E093CA04BCCFFC0126813781F901B28398
:10120000A183109709F482CF13961C921E92129715
:101210007DCFAF92BF92CF92DF92EF92FF920F936A
:101220001F93CF93DF93FC01122FF894C22FD0E0CD
:10123000CC0FDD1FC850DA4F88819981892B71F05E
:10124000789418E2812FDF91CF911F910F91FF9039
:10125000EF90DF90CF90BF90AF90089581E090E045
:10126000998388837894CF0120E030E00E94EB01DD
:10127000BC01812F40E050E020E030E0EE24FF246C
:101280008701CC24DD24AA24BB240E943006182F19
:10129000882371F4F8948091D2048F5F8093D204F4
:1012A00078948091BF04813069F60E94B306CACF5A
:1012B000F894198218827894C5CFFC01F894818142
:1012C000882379F4828193812FEF8F3F920731F049
:1012D000019693838283789480E00895789482E3E2
:1012E0000895CF0160E070E041E00E943C027894F4
:1012F0000E94B30680E008950F931F93CF93DF936E
:10130000EC018A018091F104882309F075C0F894FA
:101310008A819B81009709F064C0A091F204B0918A
:10132000F3041F968C911F9781601F968C931F97D3
:101330001E967C936E931D971796DC93CE9316970B
:1013400052968C915297482F50E053963C91539768
:10135000FA01EA51FB4F832F809590818923808386
:10136000882309F451C054962C91FE01E40FF51F17
:101370008681832B86838981822B898378940E943E
:10138000B306F894A091F204B091F3041F968C91E7
:101390001F9780FF43C052968C915297FE01E80F31
:1013A000F11D53968C91539780959681892386835E
:1013B000882339F454969C91549790958981892378
:1013C00089831F961C921F9717961C921E92169740
:1013D00078948AE0F8018083DF91CF911F910F917B
:1013E000089501979B838A837894FA011082DF9194
:1013F000CF911F910F91089582E0FA018083DF91D0
:10140000CF911F910F91089554962C91922F909502
:101410008091E50489238093E504A7CF17961C9259
:101420001E9216977894F8011082DF91CF911F9148
:101430000F9108950F931F93CF93DF93EC018B01CE
:10144000F8948981882399F040FF46C0CE01B80105
:1014500044E00E943C0289818823C1F778940E946D
:10146000B30680E0DF91CF911F910F910895AC8179
:10147000BD811C962D913C911D971A968D919C9142
:101480001B972817390738F078948EE1DF91CF91B8
:101490001F910F91089541FF24C01896ED91FC9182
:1014A000199712968D919C911397E817F90799F166
:1014B00032971996FC93EE931897118300832F5F50
:1014C0003F4F1D963C932E931C97789480E0DF91BC
:1014D000CF911F910F910895CE0144E00E943C02EC
:1014E000BDCF1696ED91FC91179761937193179666
:1014F000FC93EE93169714968D919C911597E8178F
:10150000F907E9F612968D919C91139717969C9383
:101510008E931697D4CF1496ED91FC91159719964A
:10152000FC93EE931897C4CFFC01F8948181882333
:1015300059F5A481B5811C962D913C911D971A9661
:101540008D919C911B972817390718F078948EE19C
:1015500008951896ED91FC91199712968D919C9192
:101560001397E817F907C9F032971996FC93EE9391
:101570001897718360832F5F3F4F1D963C932E9386
:101580001C97789480E00895CF0144E00E943C02CB
:1015900078940E94B30680E008951496ED91FC9132
:1015A00015971996FC93EE931897DECFFC01F894EB
:1015B0008181882351F5A481B5811C962D913C91A0
:1015C0001D971A968D919C911B972817390718F033
:1015D00078948EE108951696ED91FC91179761939A
:1015E00071931796FC93EE9316972F5F3F4F1D96BE
:1015F0003C932E931C9714968D919C911597E81708
:10160000F90761F0789480E00895CF0144E00E94EA
:101610003C0278940E94B30680E0089512968D9162
:101620009C91139717969C938E931697EBCF0F93DD
:101630001F93CF93DF93EC018A018091F1048823FB
:1016400009F08FC0F894AC81BD811C968D919C915E
:101650001D97009709F05DC0A091F204B091F304CA
:101660001F968C911F9784601F968C931F971E96D0
:101670007C936E931D971796DC93CE931697529694
:101680008C915297282F30E053964C915397F90143
:10169000EA51FB4F842F8095908189238083882392
:1016A00049F454969C91549790958091E504892330
:1016B0008093E504FE01E20FF31F8681842B86836D
:1016C000898154969C91892B898378940E94B306D2
:1016D000F894A091F204B091F30418962D913C91E6
:1016E00019972115310509F442C019961C921E92D2
:1016F00018971F961C921F9717961C921E9216976A
:101700007894F8011082C901DF91CF911F910F9158
:1017100008951896ED91FC911997219131911996A0
:10172000FC93EE93189701971D969C938E931C97AC
:1017300014968D919C911597E817F90749F07894C4
:10174000F8011082C901DF91CF911F910F91089587
:1017500012968D919C91139719969C938E9318973E
:10176000EECF82E0FA01808320E030E0CCCF5296C9
:101770008C915297FE01E80FF11D53968C9153976F
:101780008095968189238683882339F454969C9189
:10179000549790958981892389831F961C921F975E
:1017A00017961C921E92169778948AE0F80180830F
:1017B000AACFEF92FF921F93CF93DF93EC017A01B0
:1017C0008091F104882309F057C0F89419811123FE
:1017D00079F4662381F06130E1F0789487E0F701D5
:1017E0008083CE01DF91CF911F91FF90EF900895FC
:1017F00011E0662381F7112309F444C0789488E04E
:10180000F7018083CE01DF91CF911F91FF90EF9080
:101810000895112349F0CE0160E070E044E00E9499
:101820003C0289818823B9F7EC81FD818091E30432
:101830009091E40491838083F093E404E093E304C3
:1018400018828091EE049091EF049D838C83D09355
:10185000EF04C093EE047894113059F0F701108230
:10186000C0E0D0E0CE01DF91CF911F91FF90EF90CB
:1018700008950E94B306F2CF8CE8FA018083C0E09D
:10188000D0E0AFCFEC81FD818091E3049091E4043E
:1018900091838083F093E404E093E30418828091C1
:1018A000EE049091EF049D838C83D093EF04C0935A
:1018B000EE047894F7011082C0E0D0E092CFCF938D
:1018C000DF93EC018091F1048823A1F4F8943A812C
:1018D0004B81A091F204B091F30450968C915097F3
:1018E000841761F0381709F454C0789488E7DF91C1
:1018F000CF91089585E0DF91CF9108955296EC91B4
:101900005297F0E0EA51FB4F53968C915397809594
:10191000908189238083882349F454969C9154971D
:1019200090958091E50489238093E50450963C933B
:101930005097E32FE695E695E6955296EC935297ED
:10194000F0E0EE56FE4F208154962C935497E32FEF
:10195000E7705196EC935197F0E0EE56FE4F908170
:1019600053969C9353978091E504822B8093E504D2
:101970005296EC915297F0E0EA51FB4F8081982B00
:101980009083E32FF0E0EE0FFF1FE850FA4FB18392
:10199000A083E42FF0E0EE0FFF1FE850FA4F81E044
:1019A00090E0918380838981882361F48A819B817F
:1019B0008F6F9B838A831D821C82789480E0DF91E5
:1019C000CF910895CE0160E070E040E10E943C02BA
:1019D000E82FF0E08A819B8180708E2B9F2B9B8368
:1019E0008A83EE0FFF1FE850FA4F808191819D831B
:1019F0008C8378940E94B30680E079CFEF92FF92B7
:101A00000F931F93CF93DF938C017A018091F104A0
:101A1000882309F0DDC0F894F801228133812F3F3B
:101A200009F4EEC0432FD8011496CD91DC9115979F
:101A30008889831709F45CC0A091F204B091F30483
:101A400050968C915097821708F056C08A89E82FDB
:101A5000F0E0EA51FB4F50819B89852F892369F182
:101A6000892F809585238083882339F49C899095DC
:101A70008091E50489238093E504488BE42FE69563
:101A8000E695E695EA8BF0E0EE56FE4F20812C8B32
:101A9000E42FE770E98BF0E0EE56FE4F90819B8BD0
:101AA0008091E504822B8093E504EA89F0E0EA5115
:101AB000FB4F8081982B908313C0388BE32FE695E2
:101AC000E695E695EA8BF0E0EE56FE4F80818C8B32
:101AD000E32FE770E98BF0E0EE56FE4F80818B8BB1
:101AE000E42FF0E0EE0FFF1FE850FA4FD183C083E0
:101AF000A091F204B091F3041F968C911F9780611E
:101B00001F968C931F971E967C936E931D97179626
:101B10001C930E93169752968C915297282F30E073
:101B200053964C915397F901EA51FB4F842F8095BE
:101B3000908189238083882349F454969C915497FB
:101B400090958091E50489238093E504F801E20FE4
:101B5000F31F8681842B8683F801818154969C91A2
:101B6000892B818378940E94B306F894A091F204A3
:101B7000B091F3041F968C911F9784FF33C0529647
:101B80008C915297F801E80FF11D53968C91539761
:101B90008095968189238683882341F454969C916D
:101BA00054979095F8018181892381831F961C9217
:101BB0001F9717961C921E92169778948AE0D70169
:101BC0008C93DF91CF911F910F91FF90EF9008952B
:101BD00082E0DA018C93DF91CF911F910F91FF90FA
:101BE000EF90089517961C921E9216977894F7011D
:101BF0001082DF91CF911F910F91FF90EF90089588
:101C0000C901807093838283E091F204F091F30420
:101C1000208930E0282B392BD80113963C932E9342
:101C200012971596FC93EE9314977894FA0110820C
:101C3000DF91CF911F910F91FF90EF900895FF9248
:101C40000F931F93CF93DF93EC018A018091F104EE
:101C5000882331F5F894F980FF20E9F4662371F4C4
:101C6000FF2009F457C0789488E0F8018083CE0102
:101C7000DF91CF911F910F91FF9008956130D1F0C6
:101C8000789487E0F8018083CE01DF91CF911F9196
:101C90000F91FF900895FF24F394662309F3EECF8C
:101CA0008CE8FA018083CE01DF91CF911F910F91D3
:101CB000FF900895FF2049F0CE0160E070E040E120
:101CC0000E943C0289818823B9F7EB81F0E0EE0F96
:101CD000FF1FE850FA4F1182108218828091EE04A3
:101CE0009091EF049D838C83D093EF04C093EE0416
:101CF0007894F1E0FF1659F0F8011082C0E0D0E0CE
:101D0000CE01DF91CF911F910F91FF9008950E9416
:101D1000B306F2CFEB81F0E0EE0FFF1FE850FA4F71
:101D20001182108218828091EE049091EF049D83BD
:101D30008C83D093EF04C093EE047894F801108262
:101D4000C0E0D0E0B0CFCF92DF92EF92FF920F933E
:101D50001F93DF93CF930F92CDB7DEB78C0179013C
:101D6000F894442309F071C06095FC0183818623B7
:101D70008383F801C180D280C114D10409F475C0F5
:101D8000198210C0F6016085F80183818095862351
:101D90006817C9F0F601808191819C0169012115C4
:101DA000310501F1F6018185813089F1813050F3EF
:101DB000823009F43BC0833069F7F6016085F80191
:101DC0008381682339F3C6010E94AE03813011F785
:101DD000F1E0F983F601808191819C01690121156F
:101DE000310501F77894F981F13009F43BC0F8949A
:101DF000F80183817894F70110820F90CF91DF91E1
:101E00001F910F91FF90EF90DF90CF900895F80110
:101E100063816095F6018085682309F4BBCFC60114
:101E20000E94AE03813009F0B5CFD2CFF6016085B4
:101E3000F80183818623681709F0ACCFC6010E94A0
:101E4000AE03813009F0A6CFC3CF413031F0789492
:101E500089E9F901808380E0D0CFFC018381862B62
:101E6000838387CF0E94B306C2CF1982BBCFDF9294
:101E7000EF92FF920F931F93DF93CF93CDB7DEB70F
:101E80002B970FB6F894DEBF0FBECDBF7C01562F47
:101E9000D42E8091F104882309F075C047FD92C0CB
:101EA0001B86F894E1E0DE1609F495C0DE1608F012
:101EB0007CC0F7019381892F80958523851709F4CC
:101EC000B8C1A091F204B091F3041F968C911F97B2
:101ED00080621F968C931F971E963C932E931D979E
:101EE000CE0101961B969C938E931A975987BE83B9
:101EF000AD83F701218132813A8329831C821B82C1
:101F0000F886EF822115310519F0F9019383828358
:101F1000F701928381835296EC915297F0E0EA5157
:101F2000FB4F53968C9153978095908189238083A2
:101F3000882309F450C11A8678940E94B306F89455
:101F40002091F2043091F304F901878585FF53C095
:101F5000EB81FC81A981BA81309709F483C1B183F7
:101F6000A083109721F01396FC93EE931297ED81C6
:101F7000FE8113861286F901178678948AE0F801AB
:101F8000808380E004C082E0F801808380E02B96AB
:101F90000FB6F894DEBF0FBECDBFCF91DF911F917A
:101FA0000F91FF90EF90DF900895F2E0DF1609F4B3
:101FB0003CC083E0D81651F1789487E9F80180831A
:101FC00080E0E5CFFFE7DF2281E08B87F894E1E056
:101FD000DE1609F06BCFF7019381692F60956523B9
:101FE00009F4B4C0FB85F13009F404C1892F789459
:101FF000F8011082CCCFFB85F13009F401C1F70163
:102000009381892F7894F8011082C1CFF7019381D1
:10201000852F892309F455C0FB85F13009F4E4C00C
:10202000892F7894F8011082B2CFF7019381852F20
:102030008923851709F4EFC0A091F204B091F3044D
:102040001F968C911F9780621F968C931F971E96E8
:102050003C932E931D97CE0101961B969C938E93D5
:102060001A975987BE83AD83F701218132813A8364
:1020700029831C821B82F886EF822115310519F015
:10208000F90193838283F701928381835296EC91C5
:102090005297F0E0EA51FB4F53968C9153978095FD
:1020A000908189238083882341F454969C91909554
:1020B0008091E50489238093E50482E08A877894FF
:1020C0003CCFA091F204B091F3041F968C911F971E
:1020D00080621F968C931F971E963C932E931D979C
:1020E000CE0101961B969C938E931A975987BE83B7
:1020F000AD83F701218132813A8329831C821B82BF
:10210000F886EF822115310519F0F9019383828356
:10211000F701928381835296EC915297F0E0EA5155
:10212000FB4F53968C9153978095908189238083A0
:10213000882341F454969C9190958091E5048923DD
:102140008093E50483E08A877894F7CEA091F20427
:10215000B091F3041F968C911F9780621F968C9309
:102160001F971E963C932E931D97CE0101961B96AA
:102170009C938E931A975987BE83AD83F701218173
:1021800032813A8329831C821B82F886EF822115D3
:10219000310519F0F90193838283F70192838183DA
:1021A0005296EC915297F0E0EA51FB4F53968C9186
:1021B00053978095908189238083882341F4549696
:1021C0009C9190958091E50489238093E50481E0BA
:1021D0008A877894B2CE54969C9190958091E5042C
:1021E00089238093E504A7CE80958923F701838313
:1021F000982F16CF862F892BF7018383982FF6CE41
:10220000F1E0FD1518F1F7019381F9018485982B10
:10221000F7019383F6CEFB85F13031F4852F80955D
:102220008923F7018383982F892F7894F8011082EE
:10223000AECEFB85F13029F4892F852BF7018383FE
:10224000982F892F7894F8011082A1CE83E08D1504
:1022500008F4D5CEF90184858095F7019381982300
:102260009383CFCEEF81F885B283A183109709F4D1
:102270007ECE13961C921E92129779CEDF92EF9229
:10228000FF920F931F93CF93DF938C017A0180917C
:10229000F1048823D1F5F894F80121813281DD24FD
:1022A0002115310511F0DD24D394662339F4DD20A6
:1022B000D9F1789488E0F70180832AC0613061F019
:1022C000789487E0F701808323C0CE0160E00E940C
:1022D000AE03888199819C01E90121153105A9F797
:1022E000F80110828091F6059091F7059283818321
:1022F0001093F7050093F6057894F1E0DF1689F066
:10230000F701108200E010E003C08CE8FA0180833E
:10231000C801DF91CF911F910F91FF90EF90DF9057
:1023200008950E94B306ECCFF80110828091F60563
:102330009091F705928381831093F7050093F6053A
:102340007894F701108200E010E0E2CF8091BF04A2
:10235000813009F00895F8948091BE04882359F0E3
:1023600081508093BE04882321F48091F104882356
:1023700021F0789408957894089578940E94B30693
:1023800008950E9417028091BF04813009F00895DA
:10239000A091CA04B091CB0450968C9150978D3384
:1023A000B1F32091E50441E050E01AC054968C91BD
:1023B0005497282B5296EC915297F0E0EA51FB4F3C
:1023C000808153969C915397892B808312960D9010
:1023D000BC91A02D789450968C9150978D33C1F07C
:1023E000F8941D968D919C911E97009779F3019713
:1023F0001E969C938E931D97892B41F71F968C9167
:102400001F9783FFD3CF1E965C934E931D97DECF0D
:102410002093E50408958091BF0481110895E0910F
:10242000E504F0E0E656FE4FA081EA2FF0E0EA5125
:10243000FB4FE081F0E0E656FE4FAA0FAA0FAA0F6D
:102440008081A80FA093C404A093C904B0E0AA0F90
:10245000BB1FA850BA4F8D919C919093E20480933A
:10246000E1049093F3048093F2040E941C130895F6
:102470008091BF04813009F00895F8948091F104AF
:10248000882339F081508093F104882311F07894E7
:1024900008958091BE048823D1F7E091E504F0E02F
:1024A000E656FE4F80818093F004E82FF0E0EA5179
:1024B000FB4FE081F0E0E656FE4F982F990F990F01
:1024C000990F8081980F9093C4048091C904981744
:1024D000F1F2E92FF0E0EE0FFF1FE850FA4F808194
:1024E00091819093E2048093E1048091CC049091D7
:1024F000CD04A091CE04B091CF040196A11DB11DD1
:102500008093CC049093CD04A093CE04B093CF04D9
:102510000E94AD13BCCF0E9418021092F1041092D9
:10252000BE041092D2041092BF041092CC041092F8
:10253000CD041092CE041092CF041092C0041092D9
:10254000C1041092C2041092C3041092E504E6EE96
:10255000F4E0119284E0EE3EF807D9F71092C90436
:102560001092C4041092E2041092E1041092F30459
:102570001092F2041092CB041092CA04E8EFF5E036
:102580001192119286E0E437F807D1F784EB95E0D9
:102590009093A1058093A00546969093B7058093EC
:1025A000B60546969093CD058093CC051092E30531
:1025B0001092E205825490409093D1048093D0040D
:1025C0001092740582E895E09093790580937805E0
:1025D000109282050E9690938705809386054C97FE
:1025E0001092900510929505109294059093EF0427
:1025F0008093EE0485EC94E09093F7058093F605C4
:102600001092C5041092C7041092C60483ED94E0A2
:102610009093E4048093E3041092D4041092D304C2
:102620008BE996E060E070E043E755E02DE30E941F
:1026300009090E94190208950E9415020091BF0421
:1026400003950093BF04E091E104F091E204C1918D
:10265000CDBFD191DEBF0F910FBFFF91EF91DF9101
:10266000CF91BF91AF919F918F917F916F915F912A
:102670004F913F912F911F910F91FF90EF90DF901D
:10268000CF90BF90AF909F908F907F906F905F9012
:102690004F903F902F901F900F9008950F921F9290
:1026A0002F923F924F925F926F927F928F929F9262
:1026B000AF92BF92CF92DF92EF92FF920F931F9350
:1026C0002F933F934F935F936F937F938F939F933A
:1026D000AF93BF93CF93DF93EF93FF930FB70F9316
:1026E000E091F204F091F304CDB7C193DEB7D1933A
:1026F0000E9415020091C4040093C904E091E10412
:10270000F091E204E093F204F093F304C191CDBFA1
:10271000D191DEBF0F910FBFFF91EF91DF91CF916C
:10272000BF91AF919F918F917F916F915F914F91E9
:102730003F912F911F910F91FF90EF90DF90CF90DD
:10274000BF90AF909F908F907F906F905F904F90D1
:102750003F902F901F900F9008950E9415020091B6
:10276000C4040093C904E091E104F091E204E09311
:10277000F204F093F304C191CDBFD191DEBF0F916C
:102780000FBFFF91EF91DF91CF91BF91AF919F91DB
:102790008F917F916F915F914F913F912F911F91F9
:1027A0000F91FF90EF90DF90CF90BF90AF909F90F0
:1027B0008F907F906F905F904F903F902F901F90E1
:1027C0000F9008950F921F922F923F924F925F9217
:1027D0006F927F928F929F92AF92BF92CF92DF9231
:1027E000EF92FF920F931F932F933F934F935F931B
:1027F0006F937F938F939F93AF93BF93CF93DF9309
:10280000EF93FF930FB700680F930091F1040395C6
:102810000093F104013041F4CDB7DEB7E091F2044A
:10282000F091F304C193D19300E002BF78940E9429
:10283000C11100000E9438120F910FBFFF91EF915C
:10284000DF91CF91BF91AF919F918F917F916F91C8
:102850005F914F913F912F911F910F91FF90EF90BA
:10286000DF90CF90BF90AF909F908F907F906F90B0
:102870005F904F903F902F901F900F900895629F10
:10288000D001739FF001829FE00DF11D649FE00D68
:10289000F11D929FF00D839FF00D749FF00D659FC9
:1028A000F00D9927729FB00DE11DF91F639FB00DC8
:1028B000E11DF91FBD01CF0111240895A1E21A2ED7
:1028C000AA1BBB1BFD010DC0AA1FBB1FEE1FFF1FD4
:1028D000A217B307E407F50720F0A21BB30BE40B24
:1028E000F50B661F771F881F991F1A9469F760956B
:1028F0007095809590959B01AC01BD01CF01089525
:10290000AEE0B0E0E6E8F4E10C942F170D891E89E3
:1029100086E08C831A8309838FEF9FE79E838D83E4
:102920009E01275E3F4FCE0101966F89788DA901E8
:102930000E94A4142F813885020F131FF801108202
:102940002E96E4E00C944B17ABE0B0E0EAEAF4E139
:102950000C9421173C012B015A01FC0117821682AD
:10296000838181FD03C06FEF7FEFC6C19AE0892E9E
:102970001E010894211C311CF3012381F20123FD67
:10298000859123FF81912F01882309F4B2C18532FB
:1029900039F423FD859123FF81912F01853229F49C
:1029A00090E0B3010E949716E7CF982FFF24EE2402
:1029B0009924FFE1FF15D0F09B3269F09C3228F496
:1029C000903259F0933291F40EC09D3249F0903319
:1029D00069F441E024C052E0F52A84E0F82A28C0D6
:1029E00098E0F92A25C0E0E1FE2A22C0F7FC29C0C0
:1029F000892F80538A3070F4F6FE05C0989C902C85
:102A00001124980E15C0E89CE02C1124E80EF0E289
:102A1000FF2A0EC09E3229F4F6FC6BC140E4F42A72
:102A200007C09C3619F450E8F52A02C0983649F4DC
:102A3000F20123FD959123FF91912F01992309F034
:102A4000B8CF892F8554833018F08052833038F402
:102A500044E050E0A40EB51E5FE359830FC09336E7
:102A600031F0933779F0933509F056C020C0F50165
:102A70008081898342E050E0A40EB51E610101E02F
:102A800010E012C0F501C080D180F6FC03C06FEFEA
:102A90007FEF02C0692D70E042E050E0A40EB51E49
:102AA000C6010E948C168C015FE7F52214C0F50167
:102AB000C080D180F6FC03C06FEF7FEF02C0692DAC
:102AC00070E042E050E0A40EB51EC6010E948116DF
:102AD0008C0150E8F52AF3FE07C01AC080E290E0AE
:102AE000B3010E949716EA948E2D90E008171907FB
:102AF000A8F30EC0F601F7FC8591F7FE81916F01F6
:102B000090E0B3010E949716E110EA940150104042
:102B10000115110579F7EAC0943611F0993669F577
:102B2000F7FE08C0F501208131814281538184E0A4
:102B300090E00AC0F501808191819C01442737FD16
:102B40004095542F82E090E0A80EB91E9FE6F9222E
:102B500057FF09C050954095309521953F4F4F4FF5
:102B60005F4FE0E8FE2ACA01B901A1012AE030E086
:102B70000E94C316D82ED21840C0953729F41F2DB5
:102B80001F7E2AE030E01DC01F2D197F9F3661F0A7
:102B9000903720F4983509F0ACC00FC0903739F069
:102BA000983709F0A6C004C028E030E00AC01061E0
:102BB00014FD146020E130E004C014FD166020E133
:102BC00032E017FF08C0F501608171818281938135
:102BD00044E050E008C0F50180819181BC0180E0B3
:102BE00090E042E050E0A40EB51EA1010E94C31681
:102BF000D82ED2188FE7F82EF122F6FE0BC05EEF2A
:102C0000F522D91438F4F4FE07C0F2FC05C08FEEAB
:102C1000F82202C01D2D01C0192DF4FE0DC0FE01C9
:102C2000ED0DF11D8081803319F499EEF92208C071
:102C30001F5FF2FE05C003C08F2D867809F01F5F6D
:102C40000F2DF3FC14C0F0FE0FC01E1510F09D2CCC
:102C50000BC09D2C9E0C911A1E2D06C080E290E0A8
:102C6000B3010E9497161F5F1E15C0F304C01E1506
:102C700010F4E11A01C0EE2404FF0FC080E390E0DD
:102C8000B3010E94971602FF1DC001FD03C088E733
:102C900090E00EC088E590E00BC0802F867891F020
:102CA00001FF02C08BE201C080E2F7FC8DE290E000
:102CB000B3010E94971606C080E390E0B3010E9422
:102CC00097169A94D914C0F3DA94F101ED0DF11D21
:102CD000808190E0B3010E949716DD20A9F706C01D
:102CE00080E290E0B3010E949716EA94EE20C1F7CB
:102CF00043CEF30166817781CB012B96E2E10C9400
:102D00003D17FC010590615070400110D8F7809587
:102D100090958E0F9F1F0895FC01615070400190A7
:102D20000110D8F7809590958E0F9F1F08950F93EF
:102D30001F93CF93DF938C01EB018B8181FF1BC02D
:102D400082FF0DC02E813F818C819D81281739071C
:102D500064F4E881F9810193F983E88306C0E8858A
:102D6000F985802F0995892B31F48E819F810196F9
:102D70009F838E8302C00FEF1FEFC801DF91CF91B9
:102D80001F910F910895FA01AA27283051F120319F
:102D900081F1E8946F936E7F6E5F7F4F8F4F9F4FEF
:102DA000AF4FB1E03ED0B4E03CD0670F781F891F31
:102DB0009A1FA11D680F791F8A1F911DA11D6A0FFF
:102DC000711D811D911DA11D20D009F468943F91B2
:102DD0002AE0269F11243019305D3193DEF6CF01B1
:102DE0000895462F4770405D4193B3E00FD0C9F777
:102DF000F6CF462F4F70405D4A3318F0495D31FDE4
:102E00004052419302D0A9F7EACFB4E0A695979536
:102E1000879577956795BA95C9F70097610571050C
:102E200008959B01AC010A2E069457954795379556
:102E30002795BA95C9F7620F731F841F951FA01DB0
:102E400008952F923F924F925F926F927F928F924E
:102E50009F92AF92BF92CF92DF92EF92FF920F9329
:102E60001F93CF93DF93CDB7DEB7CA1BDB0B0FB633
:102E7000F894DEBF0FBECDBF09942A8839884888F0
:102E80005F846E847D848C849B84AA84B984C88486
:102E9000DF80EE80FD800C811B81AA81B981CE0F7D
:102EA000D11D0FB6F894DEBF0FBECDBFED01089562
:042EB000F894FFCFC4
:102EB4000A4D7574657820616371206279205461CC
:102EC400736B32000A4D65737361676520726561C7
:102ED4006420627920323A000A4E6F206D65737364
:102EE40061676520696E20517565756521000A4129
:102EF40041414141000A4242424242000A434343A3
:102F04004343000A4444444444000A5461736B310B
:102F1400000A4D657373616765207472616E736630
:102F2400657272656420746F205175657565000A59
:102F340051756575652069732066756C6C21002573
:102F44006400010204081020408000000100020017
:102F5400010003000100020001000400010002005E
:102F6400010003000100020001000500010002004D
:102F7400010003000100020001000400010002003E
:102F8400010003000100020001000600010002002C
:102F9400010003000100020001000400010002001E
:102FA400010003000100020001000500010002000D
:102FB40001000300010002000100040001000200FE
:102FC40001000300010002000100070001000200EB
:102FD40001000300010002000100040001000200DE
:102FE40001000300010002000100050001000200CD
:102FF40001000300010002000100040001000200BE
:1030040001000300010002000100060001000200AB
:10301400010003000100020001000400010002009D
:10302400010003000100020001000500010002008C
:10303400010003000100020001000400010002007D
:0A304400010003000100020001007A
:00000001FF
