:100000000C9446000C9463000C9463000C94630001
:100010000C9463000C9463000C9463000C946300D4
:100020000C9463000C9463000C9463000C946300C4
:100030000C9463000C9463000C9463000C946300B4
:100040000C94CC0A0C9463000C9463000C94630031
:100050000C9463000C9463000C9463000C94630094
:100060000C9463000C9463000C9463000C94630084
:100070000C9463000C9463000C9463000C94630074
:100080000C9463000C9463000C94630011241FBE55
:10009000CFEFD0E1DEBFCDBF12E0A0E0B1E0E8E8F5
:1000A000FCE102C005900D92A432B107D9F716E029
:1000B000A4E2B2E001C01D92AC3DB107E1F70E949D
:1000C00006010C94420E0C9400001092980087E6F2
:1000D00080939900EAE9F0E0808188618083089547
:1000E00080939C0080919B0085FFFCCF08958091B8
:1000F0009B0087FFFCCF80919C000895FC018081CC
:10010000882351F080939C0080919B0085FFFCCF59
:10011000319680818823B1F7089512BE87E083BFAE
:1001200081E087BF08958091390590913A0560E09C
:1001300070E048E355E00E948007809138058823ED
:1001400069F4E0E0F1E08AE080939C0080919B00FC
:1001500085FFFCCF319680818823B1F780913905E6
:1001600090913A050E94E1068AE590E00E94EF0333
:10017000DACF84E190E00E94EF0315BAE7E0F1E006
:100180008AE080939C0080919B0085FFFCCF319694
:100190008081882391F3F5CF1F9312BE87E083BF40
:1001A00081E087BF1FEF8FE090E00E94EF03809116
:1001B000390590913A0560E070E048E355E00E940F
:1001C000800780913805882391F4EFE0F1E08AE020
:1001D00080939C0080919B0085FFFCCF31968081AD
:1001E0008823B1F785E090E00E94EF0315BB81E022
:1001F00090E00E94EF038091390590913A050E94AA
:10020000E10682E090E00E94EF03CDCF0E948609D4
:100210008CEC90E060E070E047E355E025E00E9460
:10022000D00589EB90E060E070E043E253E026E027
:100230000E94D00583E990E060E070E043E254E082
:1002400027E00E94D00584E068E375E00E94870201
:1002500090933A05809339051092980087E6809331
:10026000990080919A00886180939A008FEF84BBF7
:100270000E940609E6E1F1E08AE080939C0080910B
:100280009B0085FFFCCF319680818823B1F70895CC
:10029000CF93DF9300D000D000D0EDB7FEB73196FA
:1002A000C4E2D4E0ADB7BEB71296DC93CE931197FB
:1002B00029E131E033832283958384830E946A0B92
:1002C000809124042DB73EB72A5F3F4F0FB6F894B4
:1002D0003EBF0FBE2DBF882359F0FE0180939C00C6
:1002E00080919B0085FFFCCF319680818823B1F7F8
:1002F000DF91CF910895FA01808392931292129226
:1003000012921292129212921292129212921292CD
:1003100012921292129212921292129212921292BD
:1003200012921292129212921292129262937293FB
:1003300012921292129212921292129280E8829368
:100340003197CF0108950895089508950895089567
:10035000089508950895089580913C05813009F02D
:10036000089580915A058F3FD9F38F5F80935A0586
:10037000089580913C05813009F00895F8948091AA
:100380003B058F3F19F08F5F80933B05789408956C
:100390008CEF90E0089508951F93CF93DF93EC01C5
:1003A000142F3981E32FF0E0EC5DFE4F2081622FA6
:1003B00070E0FB01E45EFE4F4081DC01A60FB71F39
:1003C00016969C911697E92FF0E0EC5DFE4F808128
:1003D000E82FF0E0E45EFE4F5081220F220F220F43
:1003E000280F852F8095892316968C93882321F4D6
:1003F000842F809538233983E22FF0E0EE0FFF1F22
:10040000E45AF94F0190F081E02D11861086178291
:100410001682812F8095928589238287882359F4BB
:1004200080914E05842B80934E05FB01E15BFA4FD2
:100430008081582B5083822FDF91CF911F91089597
:10044000CF93DF93EC01A0915B05B0915C0517960B
:100450009C938E9316971D968C911D97482F50E074
:100460001E963C911E97FA01E15BFA4F832F80950F
:100470009081892380838823A9F41F962C91922F41
:10048000909580914E05892380934E05FE01E40FDF
:10049000F51F8681832B86838981822B8983DF9157
:1004A000CF9108951F962C91F1CFCF93DF93EC015C
:1004B000A0915B05B0915C051D968C911D97FE0186
:1004C000E80FF11D1E968C911E97809596818923C9
:1004D0008683882339F41F969C911F979095898174
:1004E000892389831A961C921A9717961C921E923A
:1004F0001697DF91CF910895FC0111821682178221
:1005000010861186128613861486158608950F9319
:100510001F93CF93DF93982F8B0180915A058823E7
:1005200009F049C0F894292F30E0F901EE0FFF1FC0
:10053000E45AF94F80819181892B89F581E090E01F
:1005400091838083C0915705D09158052097D9F0A9
:100550008C819D819093580580935705789484E011
:100560008883922F88278F6F9B838A831D821C82AA
:10057000CE010E947C02F8011082CE01DF91CF9162
:100580001F910F91089511821082789484E0FB01ED
:100590008083CE01DF91CF911F910F9108957894C0
:1005A00088E2FB018083C0E0D0E0CE01DF91CF91F3
:1005B0001F910F9108958DE8FB018083C0E0D0E08A
:1005C000DCCFCF93DF939C0180915A058823E9F417
:1005D000F894C0915705D0915805209731F08C813F
:1005E0009D8190935805809357057894209749F002
:1005F00083E088833B832A831D821C82CE010E9474
:100600007C02CE01DF91CF910895C0E0D0E0CE0111
:10061000DF91CF9108958F3F89F0F894E82FF0E0B3
:10062000EE0FFF1FE45AF94F0190F081E02D309753
:1006300069F08EE3808B80E078940895F894E091DF
:100640005B05F0915C058089789408958BE078943F
:1006500008951F93CF93DF93182FF894C091490505
:10066000D0914A05209709F455C08A819B819093C7
:100670004A05809349057894798368831B871A8695
:1006800019861886188AE12FE695E695E695ED8796
:10069000F0E0E45EFE4F80818F87E12FE770EC870A
:1006A000F0E0E45EFE4F80818E871F821E82CE01C5
:1006B0000E94AB01CE010E94A301F894E12FF0E06B
:1006C000EE0FFF1FE45AF94FD183C083E091430539
:1006D000F0914405FB83EA831D821C82309711F060
:1006E000D583C483D0934405C093430580914E05C0
:1006F0009F85892B80934E05ED85F0E0E15BFA4FF5
:1007000080819E85892B8083789480E0DF91CF91D2
:100710001F910895789486E4DF91CF911F910895F9
:10072000F89480913D0590913E05A0913F05B091D0
:1007300040050196A11DB11D80933D0590933E0596
:10074000A0933F05B093400578940E94AA01E8CF9A
:10075000F89480915A05882309F03FC080913B05A9
:100760008823D9F5E0914E05F0E0EC5DFE4F8081E5
:10077000E82FF0E0E15BFA4FE081F0E0EC5DFE4F46
:10078000982F990F990F990F8081980F9093410599
:1007900080914205981709F1E92FF0E0EE0FFF1F55
:1007A000E45AF94F8081918190934D0580934C05D7
:1007B0008091450590914605A0914705B091480567
:1007C0000196A11DB11D8093450590934605A09308
:1007D0004705B09348050E94380A789408959C0113
:1007E000009721F1F894A0915B05B0915C051D96EE
:1007F000EC911D97F0E0E15BFA4F1E968C911E97ED
:100800008095908189238083882349F41F969C9149
:100810001F97909580914E05892380934E051996D8
:100820003C932E93189778940E94A80308958F9272
:100830009F92AF92BF92CF92DF92EF92FF920F936F
:100840001F93CF93DF93882E162F942E8823C9F001
:100850001C3300F58BE3891590F093E0283E3907AF
:10086000D8F083E5DF91CF911F910F91FF90EF902A
:10087000DF90CF90BF90AF909F908F90089582E5CA
:10088000F1CF662329F7442329F72115310529F7EC
:1008900084E5E8CF81E5E6CFB90180E090E02DE383
:1008A00030E040E050E00E94290B68517E4F8F4FAE
:1008B0009F4F28EE33E040E050E00E94480B590182
:1008C0006A01612F70E080E090E02CE330E040E0CE
:1008D00050E00E94290B7B018C01E90CF11C011DE9
:1008E000111D682D70E080E090E020E13EE040E0E6
:1008F00050E00E94290BE60EF71E081F191FC801C1
:10090000B7012DE330E040E050E00E94290BA60E35
:10091000B71EC81ED91E760100271127E7018FEFE9
:100920009FEFA0E0B0E0A822B922CA22DB22C501D5
:100930000E94EF03EF2851F080E090E80E94EF035F
:1009400080E090E80E94EF032197B1F780E08ACF22
:10095000F8948F3FB9F1E0915B05F0915C05E38578
:10096000E81771F1E82F20E0F0E0EE0FFF1FE45AE6
:10097000F94FA081B181109761F11D96EC911D97FF
:10098000F0E0E15BFA4F1E968C911E978095908166
:1009900089238083882349F41F969C911F97909503
:1009A00080914E05892380934E051A968C911A9753
:1009B00088601A968C937894213071F080E00895C5
:1009C00021E0D2CFE0915B05F0915C05E38521E069
:1009D000CBCF78948AE508950E94A80380E008951B
:1009E000E82FF894F0E0EE0FFF1FE45AF94FA081D2
:1009F000B1811097B9F01A968C911A9783FD03C0B4
:100A0000789485E60895877F1A968C931A978823A1
:100A100031F418968D919C911997892B31F0789427
:100A200080E00895789484E6089580914E051F969D
:100A30009C911F97892B80934E051D96EC911D97D5
:100A4000F0E0E15BFA4F80811E969C91892B8083B8
:100A500078940E94A80380E008950F931F93CF938A
:100A6000DF93E82F80915A05882309F068C0F89435
:100A7000EF3F09F47FC00E2F10E0000F111FF801A7
:100A8000E45AF94FC081D181209709F479C08D854E
:100A9000482F50E02E852095FA01E15BFA4F8081C6
:100AA00082238083882309F454C0AE81BF811097CC
:100AB00049F0FD01E40FF51F868182238683882398
:100AC00009F44FC0198618861A8680913B058F3F1E
:100AD00019F08F5F80933B057894F8948823A9F5EB
:100AE000CE010E94A40180914B05815080934B055B
:100AF000045A194FF80111821082AC81BD81109700
:100B000009F445C08A819B8113969C938E9312971A
:100B1000EA81FB81B583A4838091490590914A05C0
:100B20009B838A83D0934A05C093490578940E9499
:100B3000A80380E0DF91CF911F910F9108958FE37B
:100B4000DF91CF911F910F910895815080933B05C4
:100B5000C7CF9F85909580914E05892380934E0540
:100B6000A4CF9F85909511968C911197892311960A
:100B70008C93A8CFE0915B05F0915C05E3857BCF7A
:100B800078948CE3DF91CF911F910F910895EA81C2
:100B9000FB8115821482F0934405E0934305BCCF9A
:100BA000AF92BF92CF92DF92EF92FF920F931F937B
:100BB000CF93DF93FC01122FF894C22FD0E0CC0F1B
:100BC000DD1FC45AD94F88819981892B71F078949F
:100BD00018E2812FDF91CF911F910F91FF90EF903D
:100BE000DF90CF90BF90AF90089581E090E099831F
:100BF00088837894CF0120E030E00E947B01BC0123
:100C0000812F40E050E020E030E0EE24FF24870117
:100C1000CC24DD24AA24BB240E942903182F882376
:100C200071F4F89480914B058F5F80934B05789415
:100C300080913C05813069F60E94A803CACFF894E0
:100C4000198218827894C5CFFC01F8948181882399
:100C500079F4828193812FEF8F3F920731F00196D3
:100C600093838283789480E00895789482E3089552
:100C7000CF0160E070E041E00E94CC0178940E94D6
:100C8000A80380E008950F931F93CF93DF93EC01A7
:100C90008A0180915A05882309F075C0F8948A81E9
:100CA0009B81009709F064C0A0915B05B0915C0541
:100CB0001A968C911A9781601A968C931A971996A6
:100CC0007C936E9318971796DC93CE9316971D9688
:100CD0008C911D97482F50E01E963C911E97FA016B
:100CE000E15BFA4F832F809590818923808388234D
:100CF00009F451C01F962C91FE01E40FF51F868167
:100D0000832B86838981822B898378940E94A80310
:100D1000F894A0915B05B0915C051A968C911A9796
:100D200080FF43C01D968C911D97FE01E80FF11DB9
:100D30001E968C911E9780959681892386838823A1
:100D400039F41F969C911F979095898189238983F7
:100D50001A961C921A9717961C921E9216977894C0
:100D60008AE0F8018083DF91CF911F910F91089560
:100D700001979B838A837894FA011082DF91CF9147
:100D80001F910F91089582E0FA018083DF91CF9146
:100D90001F910F9108951F962C91922F90958091FD
:100DA0004E05892380934E05A7CF17961C921E925D
:100DB00016977894F8011082DF91CF911F910F91CF
:100DC0000895CF93DF93EC0180915A058823A1F415
:100DD000F8943A814B81A0915B05B0915C051B961C
:100DE0008C911B97841761F0381709F454C07894DC
:100DF00088E7DF91CF91089585E0DF91CF91089545
:100E00001D96EC911D97F0E0E15BFA4F1E968C91D8
:100E10001E978095908189238083882349F41F96AB
:100E20009C911F97909580914E05892380934E0544
:100E30001B963C931B97E32FE695E695E6951D964A
:100E4000EC931D97F0E0E45EFE4F20811F962C93FB
:100E50001F97E32FE7701C96EC931C97F0E0E45E7D
:100E6000FE4F90811E969C931E9780914E05822B7B
:100E700080934E051D96EC911D97F0E0E15BFA4FD3
:100E80008081982B9083E32FF0E0EE0FFF1FE45A50
:100E9000F94FB183A083E42FF0E0EE0FFF1FE45A77
:100EA000F94F81E090E0918380838981882361F408
:100EB0008A819B818F6F9B838A831D821C82789499
:100EC00080E0DF91CF910895CE0160E070E040E1D5
:100ED0000E94CC01E82FF0E08A819B8180708E2BEC
:100EE0009F2B9B838A83EE0FFF1FE45AF94F80816B
:100EF00091819D838C8378940E94A80380E079CFB0
:100F0000EF92FF920F931F93CF93DF938C017A019F
:100F100080915A05882309F0DDC0F894F8012281F8
:100F200033812F3F09F4EEC0432FD8011496CD91A1
:100F3000DC9115978B85831709F45CC0A0915B0544
:100F4000B0915C051B968C911B97821708F056C0D8
:100F50008D85E82FF0E0E15BFA4F50819E85852F6B
:100F6000892369F1892F809585238083882339F42B
:100F70009F85909580914E05892380934E054B87E0
:100F8000E42FE695E695E695ED87F0E0E45EFE4F0A
:100F900020812F87E42FE770EC87F0E0E45EFE4FBE
:100FA00090819E8780914E05822B80934E05ED8522
:100FB000F0E0E15BFA4F8081982B908313C03B8770
:100FC000E32FE695E695E695ED87F0E0E45EFE4FCB
:100FD00080818F87E32FE770EC87F0E0E45EFE4FBF
:100FE00080818E87E42FF0E0EE0FFF1FE45AF94F67
:100FF000D183C083A0915B05B0915C051A968C915A
:101000001A9780611A968C931A9719967C936E930F
:10101000189717961C930E9316971D968C911D97F3
:10102000282F30E01E964C911E97F901E15BFA4F94
:10103000842F8095908189238083882349F41F968B
:101040009C911F97909580914E05892380934E0522
:10105000F801E20FF31F8681842B8683F8018181DA
:101060001F969C91892B818378940E94A803F89401
:10107000A0915B05B0915C051A968C911A9784FF3C
:1010800033C01D968C911D97F801E80FF11D1E9637
:101090008C911E978095968189238683882341F4BD
:1010A0001F969C911F979095F801818189238183D8
:1010B0001A961C921A9717961C921E92169778945D
:1010C0008AE0D7018C93DF91CF911F910F91FF9010
:1010D000EF90089582E0DA018C93DF91CF911F9118
:1010E0000F91FF90EF90089517961C921E921697FD
:1010F0007894F7011082DF91CF911F910F91FF90AB
:10110000EF900895C901807093838283E0915B051D
:10111000F0915C05238530E0282B392BD8011396FC
:101120003C932E9312971596FC93EE931497789414
:10113000FA011082DF91CF911F910F91FF90EF90F4
:10114000089580913C05813009F00895F8948091CC
:101150003B05882359F0815080933B05882321F477
:1011600080915A05882321F0789408957894089501
:1011700078940E94A80308950E94A70180913C05DD
:10118000813009F00895A0914305B09144051B9664
:101190008C911B978F33B1F320914E0541E050E0C5
:1011A0001AC01F968C911F97282B1D96EC911D97A6
:1011B000F0E0E15BFA4F80811E969C911E97892B8F
:1011C000808312960D90BC91A02D78941B968C91E3
:1011D0001B978F33C1F0F89418968D919C911997B5
:1011E000009779F3019719969C938E931897892B02
:1011F00041F71A968C911A9783FFD3CF19965C9377
:101200004E931897DECF20934E05089580913C05AC
:1012100081110895E0914E05F0E0EC5DFE4FA08154
:10122000EA2FF0E0E15BFA4FE081F0E0EC5DFE4F89
:10123000AA0FAA0FAA0F8081A80FA0934105A0931F
:101240004205B0E0AA0FBB1FA45AB94F8D919C91E3
:1012500090934D0580934C0590935C0580935B05BE
:101260000E94060A089580913C05813009F0089596
:10127000F89480915A05882339F0815080935A055B
:10128000882311F07894089580913B058823D1F745
:10129000E0914E05F0E0EC5DFE4F808180935905B2
:1012A000E82FF0E0E15BFA4FE081F0E0EC5DFE4F0B
:1012B000982F990F990F990F8081980F909341055E
:1012C000809142059817F1F2E92FF0E0EE0FFF1F31
:1012D000E45AF94F8081918190934D0580934C059C
:1012E0008091450590914605A0914705B09148052C
:1012F0000196A11DB11D8093450590934605A093CD
:101300004705B09348050E94970ABCCF0E94A801E8
:1013100010925A0510923B0510924B0510923C0515
:101320001092450510924605109247051092480507
:1013300010923D0510923E0510923F051092400517
:1013400010924E05EFE4F5E0119285E0E735F807DD
:10135000D9F7109242051092410510924D05109256
:101360004C0510925C0510925B051092440510929A
:101370004305ECE5F6E01192119286E0EC3DF807AA
:10138000D1F788E196E090930A068093090641968A
:1013900090931B0680931A06419690932C06809397
:1013A0002B06419690933D0680933C0610924E0684
:1013B00010924D068454904090934A0580934905BD
:1013C0001092DD058BEE95E09093E2058093E105A8
:1013D0001092EB050E969093F0058093EF054C97D5
:1013E0001092F9051092FE051092FD059093580594
:1013F0008093570580E993E060E070E04CED55E0A4
:101400002FE30E94D0050E94A90108950E94A50122
:1014100000913C05039500933C05E0914C05F0914B
:101420004D05C191CDBFD191DEBF0F910FBFFF918F
:10143000EF91DF91CF91BF91AF919F918F917F916C
:101440006F915F914F913F912F911F910F91FF905D
:10145000EF90DF90CF90BF90AF909F908F907F9054
:101460006F905F904F903F902F901F900F90089536
:101470000F921F922F923F924F925F926F927F92A4
:101480008F929F92AF92BF92CF92DF92EF92FF9294
:101490000F931F932F933F934F935F936F937F937C
:1014A0008F939F93AF93BF93CF93DF93EF93FF936C
:1014B0000FB70F93E0915B05F0915C05CDB7C19339
:1014C000DEB7D1930E94A50100914105009342052A
:1014D000E0914C05F0914D05E0935B05F0935C05C0
:1014E000C191CDBFD191DEBF0F910FBFFF91EF91A1
:1014F000DF91CF91BF91AF919F918F917F916F912C
:101500005F914F913F912F911F910F91FF90EF901D
:10151000DF90CF90BF90AF909F908F907F906F9013
:101520005F904F903F902F901F900F9008950E94D2
:10153000A5010091410500934205E0914C05F09111
:101540004D05E0935B05F0935C05C191CDBFD19152
:10155000DEBF0F910FBFFF91EF91DF91CF91BF9150
:10156000AF919F918F917F916F915F914F913F913B
:101570002F911F910F91FF90EF90DF90CF90BF9030
:10158000AF909F908F907F906F905F904F903F9023
:101590002F901F900F9008950F921F922F923F92BD
:1015A0004F925F926F927F928F929F92AF92BF9273
:1015B000CF92DF92EF92FF920F931F932F933F935F
:1015C0004F935F936F937F938F939F93AF93BF934B
:1015D000CF93DF93EF93FF930FB700680F930091C2
:1015E0005A05039500935A05013041F4CDB7DEB793
:1015F000E0915B05F0915C05C193D19300E002BFDF
:1016000078940E94BC0800000E9433090F910FBF1C
:10161000FF91EF91DF91CF91BF91AF919F918F910A
:101620007F916F915F914F913F912F911F910F91FA
:10163000FF90EF90DF90CF90BF90AF909F908F90F2
:101640007F906F905F904F903F902F901F900F90E2
:101650000895629FD001739FF001829FE00DF11DFC
:10166000649FE00DF11D929FF00D839FF00D749F1C
:10167000F00D659FF00D9927729FB00DE11DF91FC8
:10168000639FB00DE11DF91FBD01CF011124089525
:10169000A1E21A2EAA1BBB1BFD010DC0AA1FBB1F76
:1016A000EE1FFF1FA217B307E407F50720F0A21BE8
:1016B000B30BE40BF50B661F771F881F991F1A9455
:1016C00069F760957095809590959B01AC01BD017F
:1016D000CF010895AEE0B0E0E0E7FBE00C94190E16
:1016E0000D891E8986E08C831A8309838FEF9FE71B
:1016F0009E838D839E01275E3F4FCE0101966F89A9
:10170000788DA9010E948E0B2F813885020F131F3F
:10171000F80110822E96E4E00C94350EABE0B0E0B8
:10172000E4E9FBE00C940B0E3C012B015A01FC0197
:1017300017821682838181FD03C06FEF7FEFC6C1E0
:101740009AE0892E1E010894211C311CF30123818B
:10175000F20123FD859123FF81912F01882309F454
:10176000B2C1853239F423FD859123FF81912F0188
:10177000853229F490E0B3010E94810DE7CF982FC4
:10178000FF24EE249924FFE1FF15D0F09B3269F08D
:101790009C3228F4903259F0933291F40EC09D326D
:1017A00049F0903369F441E024C052E0F52A84E026
:1017B000F82A28C098E0F92A25C0E0E1FE2A22C0D4
:1017C000F7FC29C0892F80538A3070F4F6FE05C0DB
:1017D000989C902C1124980E15C0E89CE02C1124A4
:1017E000E80EF0E2FF2A0EC09E3229F4F6FC6BC12F
:1017F00040E4F42A07C09C3619F450E8F52A02C0E8
:10180000983649F4F20123FD959123FF91912F0120
:10181000992309F0B8CF892F8554833018F080526E
:10182000833038F444E050E0A40EB51E5FE35983E2
:101830000FC0933631F0933779F0933509F056C0E5
:1018400020C0F5018081898342E050E0A40EB51EDE
:10185000610101E010E012C0F501C080D180F6FC0A
:1018600003C06FEF7FEF02C0692D70E042E050E0EF
:10187000A40EB51EC6010E94760D8C015FE7F5220D
:1018800014C0F501C080D180F6FC03C06FEF7FEF7C
:1018900002C0692D70E042E050E0A40EB51EC60102
:1018A0000E946B0D8C0150E8F52AF3FE07C01AC0A8
:1018B00080E290E0B3010E94810DEA948E2D90E0C9
:1018C00008171907A8F30EC0F601F7FC8591F7FE7B
:1018D00081916F0190E0B3010E94810DE110EA94C3
:1018E000015010400115110579F7EAC0943611F046
:1018F000993669F5F7FE08C0F501208131814281F2
:10190000538184E090E00AC0F501808191819C01BF
:10191000442737FD4095542F82E090E0A80EB91E71
:101920009FE6F92257FF09C05095409530952195C3
:101930003F4F4F4F5F4FE0E8FE2ACA01B901A101B6
:101940002AE030E00E94AD0DD82ED21840C0953765
:1019500029F41F2D1F7E2AE030E01DC01F2D197FA6
:101960009F3661F0903720F4983509F0ACC00FC075
:10197000903739F0983709F0A6C004C028E030E06D
:101980000AC0106114FD146020E130E004C014FDB1
:10199000166020E132E017FF08C0F5016081718117
:1019A0008281938144E050E008C0F50180819181FB
:1019B000BC0180E090E042E050E0A40EB51EA10121
:1019C0000E94AD0DD82ED2188FE7F82EF122F6FE28
:1019D0000BC05EEFF522D91438F4F4FE07C0F2FC18
:1019E00005C08FEEF82202C01D2D01C0192DF4FE96
:1019F0000DC0FE01ED0DF11D8081803319F499EECB
:101A0000F92208C01F5FF2FE05C003C08F2D867843
:101A100009F01F5F0F2DF3FC14C0F0FE0FC01E1560
:101A200010F09D2C0BC09D2C9E0C911A1E2D06C0F3
:101A300080E290E0B3010E94810D1F5F1E15C0F38C
:101A400004C01E1510F4E11A01C0EE2404FF0FC0FB
:101A500080E390E0B3010E94810D02FF1DC001FDF3
:101A600003C088E790E00EC088E590E00BC0802FAF
:101A7000867891F001FF02C08BE201C080E2F7FCA2
:101A80008DE290E0B3010E94810D06C080E390E0FA
:101A9000B3010E94810D9A94D914C0F3DA94F10134
:101AA000ED0DF11D808190E0B3010E94810DDD20DC
:101AB000A9F706C080E290E0B3010E94810DEA948C
:101AC000EE20C1F743CEF30166817781CB012B96DF
:101AD000E2E10C94270EFC0105906150704001106A
:101AE000D8F7809590958E0F9F1F0895FC01615047
:101AF000704001900110D8F7809590958E0F9F1F30
:101B000008950F931F93CF93DF938C01EB018B818B
:101B100081FF1BC082FF0DC02E813F818C819D8182
:101B20002817390764F4E881F9810193F983E88380
:101B300006C0E885F985802F0995892B31F48E81BF
:101B40009F8101969F838E8302C00FEF1FEFC80114
:101B5000DF91CF911F910F910895FA01AA272830A4
:101B600051F1203181F1E8946F936E7F6E5F7F4F6A
:101B70008F4F9F4FAF4FB1E03ED0B4E03CD0670FE6
:101B8000781F891F9A1FA11D680F791F8A1F911D39
:101B9000A11D6A0F711D811D911DA11D20D009F489
:101BA00068943F912AE0269F11243019305D3193CB
:101BB000DEF6CF010895462F4770405D4193B3E0B4
:101BC0000FD0C9F7F6CF462F4F70405D4A3318F05B
:101BD000495D31FD4052419302D0A9F7EACFB4E00C
:101BE000A6959795879577956795BA95C9F70097C4
:101BF0006105710508959B01AC010A2E0694579565
:101C0000479537952795BA95C9F7620F731F841FBB
:101C1000951FA01D08952F923F924F925F926F9251
:101C20007F928F929F92AF92BF92CF92DF92EF926C
:101C3000FF920F931F93CF93DF93CDB7DEB7CA1BED
:101C4000DB0B0FB6F894DEBF0FBECDBF09942A8818
:101C5000398848885F846E847D848C849B84AA84C0
:101C6000B984C884DF80EE80FD800C811B81AA814D
:101C7000B981CE0FD11D0FB6F894DEBF0FBECDBF18
:081C8000ED010895F894FFCF77
:101C88000A5461736B33000A097461736B32000A7A
:101C98005461736B31000A200025640001020408B6
:101CA8001020408000000100020001000300010034
:101CB800020001000400010002000100030001000D
:101CC80002000100050001000200010003000100FC
:101CD80002000100040001000200010003000100ED
:101CE80002000100060001000200010003000100DB
:101CF80002000100040001000200010003000100CD
:101D080002000100050001000200010003000100BB
:101D180002000100040001000200010003000100AC
:101D28000200010007000100020001000300010099
:101D3800020001000400010002000100030001008C
:101D4800020001000500010002000100030001007B
:101D5800020001000400010002000100030001006C
:101D6800020001000600010002000100030001005A
:101D7800020001000400010002000100030001004C
:101D8800020001000500010002000100030001003B
:101D9800020001000400010002000100030001002C
:041DA8000200010034
:00000001FF
