:100000000C9446000C9463000C9463000C94630001
:100010000C9463000C9463000C9463000C946300D4
:100020000C9463000C9463000C9463000C946300C4
:100030000C9463000C9463000C9463000C946300B4
:100040000C94A8080C9463000C9463000C94630057
:100050000C9463000C9463000C9463000C94630094
:100060000C9463000C9463000C9463000C94630084
:100070000C9463000C9463000C9463000C94630074
:100080000C9463000C9463000C94630011241FBE55
:10009000CFEFD0E1DEBFCDBF12E0A0E0B1E0E0E401
:1000A000F8E102C005900D92AC31B107D9F716E026
:1000B000ACE1B2E001C01D92A43DB107E1F70E949E
:1000C000FD000C941E0C0C9400001092980087E622
:1000D00080939900EAE9F0E0808188618083089547
:1000E00080939C0080919B0085FFFCCF08958091B8
:1000F0009B0087FFFCCF80919C000895FC018081CC
:10010000882351F080939C0080919B0085FFFCCF59
:10011000319680818823B1F7089512BE87E083BFAE
:1001200081E087BF089580E590E00E948B032EEE6A
:1001300032E085B3809585BBC9010197F1F7F9CF0E
:10014000809131059091320560E070E040E355E028
:100150000E94DF0580913005882369F4E0E0F1E03A
:100160008AE080939C0080919B0085FFFCCF3196B4
:1001700080818823B1F787E090E00E948B03809113
:100180003105909132050E94C0058CE390E00E94F9
:100190008B03D6CF12BE87E083BF81E087BF8FE09D
:1001A00090E00E948B03809131059091320560E0D0
:1001B00070E040E355E00E94DF0580913005882320
:1001C00069F4E7E0F1E08AE080939C0080919B0075
:1001D00085FFFCCF319680818823B1F781E090E0E4
:1001E0000E948B0380913105909132050E94C005D9
:1001F00082E090E00E948B03D2CF0E9462078AECDB
:1002000090E060E070E04FE255E024E00E946C0571
:1002100083E990E060E070E04BE153E025E00E946C
:100220006C0580EA90E060E070E04BE154E026E08D
:100230000E946C0581E090E00E947D02909332055F
:10024000809331051092980087E680939900809101
:100250009A00886180939A008FEF84BB0E94E20627
:10026000EEE0F1E08AE080939C0080919B0085FFA6
:10027000FCCF319680818823B1F70895CF93DF9327
:1002800000D000D000D0EDB7FEB73196CCE1D4E07D
:10029000ADB7BEB71296DC93CE93119721E131E052
:1002A00033832283958384830E94460980911C04B2
:1002B0002DB73EB72A5F3F4F0FB6F8943EBF0FBE33
:1002C0002DBF882359F0FE0180939C0080919B00F4
:1002D00085FFFCCF319680818823B1F7DF91CF91E4
:1002E0000895FA01808392931292129212921292BE
:1002F00012921292129212921292129212921292DE
:1003000012921292129212921292129212921292CD
:10031000129212921292129262937293129212920B
:10032000129212921292129280E882933197CF0128
:1003300008950895089508950895089508950895D5
:100340000895089580913405813009F008958091D1
:1003500052058F3FD9F38F5F8093520508958091A6
:100360003405813009F00895F894809133058F3F6A
:1003700019F08F5F80933305789408958CEF90E0A7
:10038000089508951F93CF93DF93EC01142F3981C3
:10039000E32FF0E0E45EFE4F2081622F70E0FB016E
:1003A000EC5EFE4F4081DC01A60FB71F16969C91B4
:1003B0001697E92FF0E0E45EFE4F8081E82FF0E031
:1003C000EC5EFE4F5081220F220F220F280F852F47
:1003D0008095892316968C93882321F4842F809509
:1003E00038233983E22FF0E0EE0FFF1FEC5AF94F6C
:1003F0000190F081E02D1186108617821682812FE0
:100400008095928589238287882359F480914605B7
:10041000842B80934605FB01E95BFA4F8081582BC2
:100420005083822FDF91CF911F910895CF93DF9357
:10043000EC01A0915305B091540517969C938E93AF
:1004400016971D968C911D97482F50E01E963C9153
:100450001E97FA01E95BFA4F832F809590818923DB
:1004600080838823A9F41F962C91922F90958091D8
:100470004605892380934605FE01E40FF51F86811A
:10048000832B86838981822B8983DF91CF91089585
:100490001F962C91F1CFCF93DF93EC01A0915305E0
:1004A000B09154051D968C911D97FE01E80FF11D2A
:1004B0001E968C911E97809596818923868388232A
:1004C00039F41F969C911F97909589818923898380
:1004D0001A961C921A9717961C921E921697DF91E5
:1004E000CF910895FC011182168217821086118621
:1004F00012861386148615860895CF93DF939C0188
:10050000809152058823E9F4F894C0914F05D09169
:100510005005209731F08C819D81909350058093F8
:100520004F057894209749F083E088833B832A83A2
:100530001D821C82CE010E947202CE01DF91CF91FA
:100540000895C0E0D0E0CE01DF91CF9108958F3FB4
:1005500089F0F894E82FF0E0EE0FFF1FEC5AF94F06
:100560000190F081E02D309769F08EE3808B80E080
:1005700078940895F894E0915305F091540580899A
:10058000789408958BE0789408951F93CF93DF9328
:10059000182FF894C0914105D0914205209709F495
:1005A00055C08A819B819093420580934105789440
:1005B000798368831B871A8619861886188AE12F23
:1005C000E695E695E695ED87F0E0EC5EFE4F8081DE
:1005D0008F87E12FE770EC87F0E0EC5EFE4F8081C3
:1005E0008E871F821E82CE010E94A101CE010E9431
:1005F0009901F894E12FF0E0EE0FFF1FEC5AF94F4C
:10060000D183C083E0913B05F0913C05FB83EA83F5
:100610001D821C82309711F0D583C483D0933C0592
:10062000C0933B05809146059F85892B80934605A5
:10063000ED85F0E0E95BFA4F80819E85892B808310
:10064000789480E0DF91CF911F910895789486E4AB
:10065000DF91CF911F910895F89480913505909185
:100660003605A0913705B09138050196A11DB11D41
:100670008093350590933605A0933705B0933805E0
:1006800078940E94A001E8CFF894809152058823C5
:1006900009F03FC0809133058823D9F5E0914605E4
:1006A000F0E0E45EFE4F8081E82FF0E0E95BFA4F76
:1006B000E081F0E0E45EFE4F982F990F990F990FBB
:1006C0008081980F9093390580913A05981709F128
:1006D000E92FF0E0EE0FFF1FEC5AF94F8081918176
:1006E000909345058093440580913D0590913E058A
:1006F000A0913F05B09140050196A11DB11D8093C9
:100700003D0590933E05A0933F05B09340050E94A0
:100710001408789408959C01009721F1F894A09111
:100720005305B09154051D96EC911D97F0E0E95BDF
:10073000FA4F1E968C911E97809590818923808315
:10074000882349F41F969C911F97909580914605A8
:1007500089238093460519963C932E931897789495
:100760000E94440308958F929F92AF92BF92CF92BE
:10077000DF92EF92FF920F931F93CF93DF93882E18
:10078000162F942E8823C9F01C3300F58BE38915AE
:1007900090F093E0283E3907D8F083E5DF91CF91C0
:1007A0001F910F91FF90EF90DF90CF90BF90AF908F
:1007B0009F908F90089582E5F1CF662329F7442317
:1007C00029F72115310529F784E5E8CF81E5E6CF42
:1007D000B90180E090E02DE330E040E050E00E947D
:1007E000050968517E4F8F4F9F4F28EE33E040E060
:1007F00050E00E94240959016A01612F70E080E0F5
:1008000090E02CE330E040E050E00E9405097B01DD
:100810008C01E90CF11C011D111D682D70E080E0B8
:1008200090E020E13EE040E050E00E940509E60E45
:10083000F71E081F191FC801B7012DE330E040E083
:1008400050E00E940509A60EB71EC81ED91E7601EB
:1008500000271127E7018FEF9FEFA0E0B0E0A8226B
:10086000B922CA22DB22C5010E948B03EF2851F076
:1008700080E090E80E948B0380E090E80E948B0368
:100880002197B1F780E08ACFF8948F3FB9F1E091DA
:100890005305F0915405E385E81771F1E82F20E046
:1008A000F0E0EE0FFF1FEC5AF94FA081B1811097D5
:1008B00061F11D96EC911D97F0E0E95BFA4F1E96F1
:1008C0008C911E978095908189238083882349F499
:1008D0001F969C911F979095809146058923809340
:1008E00046051A968C911A9788601A968C9378947C
:1008F000213071F080E0089521E0D2CFE0915305DE
:10090000F0915405E38521E0CBCF78948AE50895F2
:100910000E94440380E00895E82FF894F0E0EE0F81
:10092000FF1FEC5AF94FA081B1811097B9F01A96C8
:100930008C911A9783FD03C0789485E60895877F8C
:100940001A968C931A97882331F418968D919C915E
:100950001997892B31F0789480E00895789484E693
:100960000895809146051F969C911F97892B80932F
:1009700046051D96EC911D97F0E0E95BFA4F8081EA
:100980001E969C91892B808378940E94440380E07A
:1009900008950F931F93CF93DF93E82F8091520513
:1009A000882309F068C0F894EF3F09F47FC00E2F48
:1009B00010E0000F111FF801EC5AF94FC081D181EE
:1009C000209709F479C08D85482F50E02E85209519
:1009D000FA01E95BFA4F808182238083882309F43E
:1009E00054C0AE81BF81109749F0FD01E40FF51F9F
:1009F000868182238683882309F44FC0198618864E
:100A00001A86809133058F3F19F08F5F80933305ED
:100A10007894F8948823A9F5CE010E949A018091D8
:100A200043058150809343050C5A194FF8011182F8
:100A30001082AC81BD81109709F445C08A819B81E9
:100A400013969C938E931297EA81FB81B583A483BE
:100A500080914105909142059B838A83D093420502
:100A6000C093410578940E94440380E0DF91CF91C8
:100A70001F910F9108958FE3DF91CF911F910F91F7
:100A80000895815080933305C7CF9F8590958091BD
:100A90004605892380934605A4CF9F85909511969E
:100AA0008C911197892311968C93A8CFE0915305CF
:100AB000F0915405E3857BCF78948CE3DF91CF915F
:100AC0001F910F910895EA81FB8115821482F093A2
:100AD0003C05E0933B05BCCFAF92BF92CF92DF9233
:100AE000EF92FF920F931F93CF93DF93FC01122F8E
:100AF000F894C22FD0E0CC0FDD1FCC5AD94F88819B
:100B00009981892B71F0789418E2812FDF91CF9130
:100B10001F910F91FF90EF90DF90CF90BF90AF901B
:100B2000089581E090E0998388837894CF0120E054
:100B300030E00E947101BC01812F40E050E020E0D4
:100B400030E0EE24FF248701CC24DD24AA24BB243A
:100B50000E94C502182F882371F4F89480914305F0
:100B60008F5F80934305789480913405813069F6D6
:100B70000E944403CACFF894198218827894C5CF92
:100B8000FC01F8948181882379F4828193812FEF8D
:100B90008F3F920731F0019693838283789480E0AF
:100BA0000895789482E30895CF0160E070E041E019
:100BB0000E94C20178940E94440380E008950F933C
:100BC0001F93CF93DF93EC018A0180915205882314
:100BD00009F075C0F8948A819B81009709F064C080
:100BE000A0915305B09154051A968C911A97816083
:100BF0001A968C931A9719967C936E93189717965A
:100C0000DC93CE9316971D968C911D97482F50E03C
:100C10001E963C911E97FA01E95BFA4F832F80954F
:100C2000908189238083882309F451C01F962C91D9
:100C3000FE01E40FF51F8681832B86838981822B39
:100C4000898378940E944403F894A0915305B0914D
:100C500054051A968C911A9780FF43C01D968C916B
:100C60001D97FE01E80FF11D1E968C911E97809531
:100C7000968189238683882339F41F969C911F9738
:100C800090958981892389831A961C921A971796C1
:100C90001C921E92169778948AE0F8018083DF9167
:100CA000CF911F910F91089501979B838A83789428
:100CB000FA011082DF91CF911F910F91089582E088
:100CC000FA018083DF91CF911F910F9108951F96B4
:100CD0002C91922F9095809146058923809346050B
:100CE000A7CF17961C921E9216977894F80110823F
:100CF000DF91CF911F910F9108958091340581303C
:100D000009F00895F89480913305882359F08150B3
:100D100080933305882321F480915205882321F0A4
:100D2000789408957894089578940E9444030895DF
:100D30000E949D0180913405813009F00895A091B1
:100D40003B05B0913C051B968C911B978F33B1F3FB
:100D50002091460541E050E01AC01F968C911F97E4
:100D6000282B1D96EC911D97F0E0E95BFA4F8081EE
:100D70001E969C911E97892B808312960D90BC9194
:100D8000A02D78941B968C911B978F33C1F0F8940B
:100D900018968D919C911997009779F30197199660
:100DA0009C938E931897892B41F71A968C911A97DA
:100DB00083FFD3CF19965C934E931897DECF209381
:100DC000460508958091340581110895E091460506
:100DD000F0E0E45EFE4FA081EA2FF0E0E95BFA4F1D
:100DE000E081F0E0E45EFE4FAA0FAA0FAA0F808117
:100DF000A80FA0933905A0933A05B0E0AA0FBB1F36
:100E0000AC5AB94F8D919C919093450580934405C0
:100E100090935405809353050E94E20708958091B2
:100E20003405813009F00895F894809152058823A3
:100E300039F0815080935205882311F078940895F9
:100E4000809133058823D1F7E0914605F0E0E45E18
:100E5000FE4F808180935105E82FF0E0E95BFA4F67
:100E6000E081F0E0E45EFE4F982F990F990F990F03
:100E70008081980F9093390580913A059817F1F287
:100E8000E92FF0E0EE0FFF1FEC5AF94F80819181BE
:100E9000909345058093440580913D0590913E05D2
:100EA000A0913F05B09140050196A11DB11D809311
:100EB0003D0590933E05A0933F05B09340050E94E9
:100EC0007308BCCF0E949E01109252051092330508
:100ED000109243051092340510923D0510923E0584
:100EE00010923F051092400510923505109236057C
:100EF000109237051092380510924605E7E4F5E0A8
:100F0000119285E0EF34F807D9F710923A05109264
:100F1000390510924505109244051092540510921F
:100F2000530510923C0510923B05E4E5F6E0119262
:100F3000119286E0E43DF807D1F780E196E09093C6
:100F40000206809301064196909313068093120641
:100F500041969093240680932306419690933506FC
:100F600080933406109246061092450684549040B1
:100F700090934205809341051092D50583EE95E04C
:100F80009093DA058093D9051092E3050E9690931D
:100F9000E8058093E7054C971092F1051092F6054D
:100FA0001092F5059093500580934F058CE293E0E5
:100FB00060E070E044ED55E02FE30E946C050E9474
:100FC0009F0108950E949B010091340503950093B1
:100FD0003405E0914405F0914505C191CDBFD19113
:100FE000DEBF0F910FBFFF91EF91DF91CF91BF91C6
:100FF000AF919F918F917F916F915F914F913F91B1
:101000002F911F910F91FF90EF90DF90CF90BF90A5
:10101000AF909F908F907F906F905F904F903F9098
:101020002F901F900F9008950F921F922F923F9232
:101030004F925F926F927F928F929F92AF92BF92E8
:10104000CF92DF92EF92FF920F931F932F933F93D4
:101050004F935F936F937F938F939F93AF93BF93C0
:10106000CF93DF93EF93FF930FB70F93E091530567
:10107000F0915405CDB7C193DEB7D1930E949B0187
:101080000091390500933A05E0914405F09145053A
:10109000E0935305F0935405C191CDBFD191DEBFCC
:1010A0000F910FBFFF91EF91DF91CF91BF91AF9162
:1010B0009F918F917F916F915F914F913F912F9170
:1010C0001F910F91FF90EF90DF90CF90BF90AF9066
:1010D0009F908F907F906F905F904F903F902F9058
:1010E0001F900F9008950E949B0100913905009375
:1010F0003A05E0914405F0914505E0935305F093DE
:101100005405C191CDBFD191DEBF0F910FBFFF91AB
:10111000EF91DF91CF91BF91AF919F918F917F918F
:101120006F915F914F913F912F911F910F91FF9080
:10113000EF90DF90CF90BF90AF909F908F907F9077
:101140006F905F904F903F902F901F900F90089559
:101150000F921F922F923F924F925F926F927F92C7
:101160008F929F92AF92BF92CF92DF92EF92FF92B7
:101170000F931F932F933F934F935F936F937F939F
:101180008F939F93AF93BF93CF93DF93EF93FF938F
:101190000FB700680F930091520503950093520515
:1011A000013041F4CDB7DEB7E0915305F09154051D
:1011B000C193D19300E002BF78940E94980600008A
:1011C0000E940F070F910FBFFF91EF91DF91CF9119
:1011D000BF91AF919F918F917F916F915F914F914F
:1011E0003F912F911F910F91FF90EF90DF90CF9043
:1011F000BF90AF909F908F907F906F905F904F9037
:101200003F902F901F900F900895629FD001739F81
:10121000F001829FE00DF11D649FE00DF11D929F92
:10122000F00D839FF00D749FF00D659FF00D9927D1
:10123000729FB00DE11DF91F639FB00DE11DF91FF5
:10124000BD01CF0111240895A1E21A2EAA1BBB1BD8
:10125000FD010DC0AA1FBB1FEE1FFF1FA217B30782
:10126000E407F50720F0A21BB30BE40BF50B661F98
:10127000771F881F991F1A9469F76095709580955C
:1012800090959B01AC01BD01CF010895AEE0B0E0A7
:10129000ECE4F9E00C94F50B0D891E8986E08C8353
:1012A0001A8309838FEF9FE79E838D839E01275EBC
:1012B0003F4FCE0101966F89788DA9010E946A097E
:1012C0002F813885020F131FF80110822E96E4E05B
:1012D0000C94110CABE0B0E0E0E7F9E00C94E70B04
:1012E0003C012B015A01FC0117821682838181FD8A
:1012F00003C06FEF7FEFC6C19AE0892E1E010894EC
:10130000211C311CF3012381F20123FD859123FF70
:1013100081912F01882309F4B2C1853239F423FD6C
:10132000859123FF81912F01853229F490E0B3014B
:101330000E945D0BE7CF982FFF24EE249924FFE154
:10134000FF15D0F09B3269F09C3228F4903259F0AE
:10135000933291F40EC09D3249F0903369F441E02C
:1013600024C052E0F52A84E0F82A28C098E0F92A3F
:1013700025C0E0E1FE2A22C0F7FC29C0892F805356
:101380008A3070F4F6FE05C0989C902C1124980EBB
:1013900015C0E89CE02C1124E80EF0E2FF2A0EC0F4
:1013A0009E3229F4F6FC6BC140E4F42A07C09C3657
:1013B00019F450E8F52A02C0983649F4F20123FDE9
:1013C000959123FF91912F01992309F0B8CF892F8F
:1013D0008554833018F08052833038F444E050E074
:1013E000A40EB51E5FE359830FC0933631F09337D7
:1013F00079F0933509F056C020C0F50180818983CA
:1014000042E050E0A40EB51E610101E010E012C000
:10141000F501C080D180F6FC03C06FEF7FEF02C002
:10142000692D70E042E050E0A40EB51EC6010E9496
:10143000520B8C015FE7F52214C0F501C080D1800A
:10144000F6FC03C06FEF7FEF02C0692D70E042E051
:1014500050E0A40EB51EC6010E94470B8C0150E857
:10146000F52AF3FE07C01AC080E290E0B3010E94A3
:101470005D0BEA948E2D90E008171907A8F30EC0B3
:10148000F601F7FC8591F7FE81916F0190E0B301C1
:101490000E945D0BE110EA94015010400115110506
:1014A00079F7EAC0943611F0993669F5F7FE08C06D
:1014B000F501208131814281538184E090E00AC0AE
:1014C000F501808191819C01442737FD4095542F7F
:1014D00082E090E0A80EB91E9FE6F92257FF09C0EE
:1014E00050954095309521953F4F4F4F5F4FE0E825
:1014F000FE2ACA01B901A1012AE030E00E94890B4D
:10150000D82ED21840C0953729F41F2D1F7E2AE00F
:1015100030E01DC01F2D197F9F3661F0903720F4F9
:10152000983509F0ACC00FC0903739F0983709F002
:10153000A6C004C028E030E00AC0106114FD1460A9
:1015400020E130E004C014FD166020E132E017FF16
:1015500008C0F501608171818281938144E050E08F
:1015600008C0F50180819181BC0180E090E042E0FB
:1015700050E0A40EB51EA1010E94890BD82ED218EE
:101580008FE7F82EF122F6FE0BC05EEFF522D9149C
:1015900038F4F4FE07C0F2FC05C08FEEF82202C05A
:1015A0001D2D01C0192DF4FE0DC0FE01ED0DF11D24
:1015B0008081803319F499EEF92208C01F5FF2FE92
:1015C00005C003C08F2D867809F01F5F0F2DF3FC37
:1015D00014C0F0FE0FC01E1510F09D2C0BC09D2CEA
:1015E0009E0C911A1E2D06C080E290E0B3010E946D
:1015F0005D0B1F5F1E15C0F304C01E1510F4E11A29
:1016000001C0EE2404FF0FC080E390E0B3010E940C
:101610005D0B02FF1DC001FD03C088E790E00EC016
:1016200088E590E00BC0802F867891F001FF02C022
:101630008BE201C080E2F7FC8DE290E0B3010E94F2
:101640005D0B06C080E390E0B3010E945D0B9A94AD
:10165000D914C0F3DA94F101ED0DF11D808190E011
:10166000B3010E945D0BDD20A9F706C080E290E087
:10167000B3010E945D0BEA94EE20C1F743CEF30163
:1016800066817781CB012B96E2E10C94030CFC017F
:101690000590615070400110D8F7809590958E0F9D
:1016A0009F1F0895FC016150704001900110D8F710
:1016B000809590958E0F9F1F08950F931F93CF9342
:1016C000DF938C01EB018B8181FF1BC082FF0DC07A
:1016D0002E813F818C819D812817390764F4E88130
:1016E000F9810193F983E88306C0E885F985802FA5
:1016F0000995892B31F48E819F8101969F838E837A
:1017000002C00FEF1FEFC801DF91CF911F910F9122
:101710000895FA01AA27283051F1203181F1E89487
:101720006F936E7F6E5F7F4F8F4F9F4FAF4FB1E0D4
:101730003ED0B4E03CD0670F781F891F9A1FA11DCF
:10174000680F791F8A1F911DA11D6A0F711D811DD0
:10175000911DA11D20D009F468943F912AE0269F95
:1017600011243019305D3193DEF6CF010895462FF4
:101770004770405D4193B3E00FD0C9F7F6CF462FD5
:101780004F70405D4A3318F0495D31FD405241933E
:1017900002D0A9F7EACFB4E0A695979587957795FB
:1017A0006795BA95C9F700976105710508959B0182
:1017B000AC010A2E06945795479537952795BA950B
:1017C000C9F7620F731F841F951FA01D08952F92E4
:1017D0003F924F925F926F927F928F929F92AF92C1
:1017E000BF92CF92DF92EF92FF920F931F93CF930E
:1017F000DF93CDB7DEB7CA1BDB0B0FB6F894DEBFA5
:101800000FBECDBF09942A88398848885F846E84CA
:101810007D848C849B84AA84B984C884DF80EE8014
:10182000FD800C811B81AA81B981CE0FD11D0FB61D
:10183000F894DEBF0FBECDBFED010895F894FFCF41
:101840000A5461736B33000A5461736B31000A20D0
:1018500000256400010204081020408000000100FF
:101860000200010003000100020001000400010069
:101870000200010003000100020001000500010058
:101880000200010003000100020001000400010049
:101890000200010003000100020001000600010037
:1018A0000200010003000100020001000400010029
:1018B0000200010003000100020001000500010018
:1018C0000200010003000100020001000400010009
:1018D00002000100030001000200010007000100F6
:1018E00002000100030001000200010004000100E9
:1018F00002000100030001000200010005000100D8
:1019000002000100030001000200010004000100C8
:1019100002000100030001000200010006000100B6
:1019200002000100030001000200010004000100A8
:101930000200010003000100020001000500010097
:101940000200010003000100020001000400010088
:0C19500002000100030001000200010081
:00000001FF
