:100000000C9446000C9463000C9463000C94630001
:100010000C9463000C9463000C9463000C946300D4
:100020000C9463000C9463000C9463000C946300C4
:100030000C9463000C9463000C9463000C946300B4
:100040000C9465080C9463000C9463000C9463009A
:100050000C9463000C9463000C9463000C94630094
:100060000C9463000C9463000C9463000C94630084
:100070000C9463000C9463000C9463000C94630074
:100080000C9463000C9463000C94630011241FBE55
:10009000CFEFD0E1DEBFCDBF12E0A0E0B1E0EAEBF0
:1000A000F7E102C005900D92AA35B107D9F716E025
:1000B000AAE5B2E001C01D92AF30B107E1F70E949E
:1000C000DA000C94DB0B0C9400001092980087E689
:1000D00080939900EAE9F0E0808188618083089547
:1000E00080939C0080919B0085FFFCCF08958091B8
:1000F0009B0087FFFCCF80919C000895FC018081CC
:10010000882351F080939C0080919B0085FFFCCF59
:10011000319680818823B1F7089512BE87E083BFAE
:1001200081E087BF0895E0E0F1E08081882391F4C9
:1001300087EB90E00E944803E4E1F1E08AE08093DD
:100140009C0080919B0085FFFCCF319680818823A5
:10015000B1F7E9CF80939C0080919B0085FFFCCF95
:100160003196E3CF12BE87E083BF81E087BFE7E22D
:10017000F1E080818823B1F48DE390E00E94480390
:10018000EBE3F1E08AE080939C0080919B0085FF87
:10019000FCCF319680818823B1F7E7E2F1E08081DE
:1001A000882351F380939C0080919B0085FFFCCFB6
:1001B0003196DFCF0E941F0782EB90E060E070E095
:1001C0004DE654E024E00E94290583E990E060E0D8
:1001D00070E049E553E025E00E942905109298005F
:1001E00087E680939900EAE9F0E080818861808366
:1001F0000E949F060895CF93DF9300D000D000D0D7
:10020000EDB7FEB73196CAE5D3E0ADB7BEB71296EB
:10021000DC93CE9311972EE431E0338322839583D0
:1002200084830E94030980915A032DB73EB72A5F49
:100230003F4F0FB6F8943EBF0FBE2DBF882359F035
:10024000FE0180939C0080919B0085FFFCCF31963E
:1002500080818823B1F7DF91CF910895FA018083DF
:1002600092931292129212921292129212921292ED
:10027000129212921292129212921292129212925E
:10028000129212921292129212921292129212924E
:10029000129262937293129212921292129212928C
:1002A000129280E882933197CF01089508950895BE
:1002B00008950895089508950895089508958091E2
:1002C0006F04813009F0089580918D048F3FD9F338
:1002D0008F5F80938D04089580916F04813009F0C1
:1002E0000895F89480916E048F3F19F08F5F80938A
:1002F0006E04789408958CEF90E0089508951F930C
:10030000CF93DF93EC01142F3981E32FF0E0E75A0C
:10031000FE4F2081622F70E0FB01EF5AFE4F4081BB
:10032000DC01A60FB71F16969C911697E92FF0E0F7
:10033000E75AFE4F8081E82FF0E0EF5AFE4F5081E0
:10034000220F220F220F280F852F809589231696C2
:100350008C93882321F4842F809538233983E22FCE
:10036000F0E0EE0FFF1FE157FA4F0190F081E02D12
:100370001186108617821682812F80959285892397
:100380008287882359F480918104842B809381048F
:10039000FB01EE57FB4F8081582B5083822FDF915A
:1003A000CF911F910895CF93DF93EC01A0918E041C
:1003B000B0918F0417969C938E9316971D968C91EF
:1003C0001D97482F50E01E963C911E97FA01EE575C
:1003D000FB4F832F80959081892380838823A9F404
:1003E0001F962C91922F9095809181048923809360
:1003F0008104FE01E40FF51F8681832B86838981AA
:10040000822B8983DF91CF9108951F962C91F1CF94
:10041000CF93DF93EC01A0918E04B0918F041D96D1
:100420008C911D97FE01E80FF11D1E968C911E9771
:100430008095968189238683882339F41F969C9121
:100440001F9790958981892389831A961C921A9700
:1004500017961C921E921697DF91CF910895FC017A
:1004600011821682178210861186128613861486D0
:1004700015860895CF93DF939C0180918D04882386
:10048000E9F4F894C0918A04D0918B04209731F05C
:100490008C819D8190938B0480938A04789420971B
:1004A00049F083E088833B832A831D821C82CE012E
:1004B0000E942F02CE01DF91CF910895C0E0D0E0DD
:1004C000CE01DF91CF9108958F3F89F0F894E82F06
:1004D000F0E0EE0FFF1FE157FA4F0190F081E02DA1
:1004E000309769F08EE3808B80E078940895F894DB
:1004F000E0918E04F0918F048089789408958BE0C8
:10050000789408951F93CF93DF93182FF894C09198
:100510007C04D0917D04209709F455C08A819B8189
:1005200090937D0480937C047894798368831B87FF
:100530001A8619861886188AE12FE695E695E695BB
:10054000ED87F0E0EF5AFE4F80818F87E12FE77053
:10055000EC87F0E0EF5AFE4F80818E871F821E826B
:10056000CE010E945E01CE010E945601F894E12F57
:10057000F0E0EE0FFF1FE157FA4FD183C083E09107
:100580007604F0917704FB83EA831D821C82309706
:1005900011F0D583C483D0937704C09376048091FF
:1005A00081049F85892B80938104ED85F0E0EE57CF
:1005B000FB4F80819E85892B8083789480E0DF913A
:1005C000CF911F910895789486E4DF91CF911F9188
:1005D0000895F8948091700490917104A091720430
:1005E000B09173040196A11DB11D80937004909386
:1005F0007104A0937204B093730478940E945D0117
:10060000E8CFF89480918D04882309F03FC0809151
:100610006E048823D9F5E0918104F0E0E75AFE4F9B
:100620008081E82FF0E0EE57FB4FE081F0E0E75AE1
:10063000FE4F982F990F990F990F8081980F9093E3
:10064000740480917504981709F1E92FF0E0EE0F1A
:10065000FF1FE157FA4F808191819093800480932E
:100660007F048091780490917904A0917A04B091EC
:100670007B040196A11DB11D8093780490937904A9
:10068000A0937A04B0937B040E94D10778940895D4
:100690009C01009721F1F894A0918E04B0918F04F1
:1006A0001D96EC911D97F0E0EE57FB4F1E968C9136
:1006B0001E978095908189238083882349F41F9613
:1006C0009C911F9790958091810489238093810448
:1006D00019963C932E93189778940E9401030895DD
:1006E0008F929F92AF92BF92CF92DF92EF92FF9242
:1006F0000F931F93CF93DF93882E162F942E88236A
:10070000C9F01C3300F58BE3891590F093E0283E87
:100710003907D8F083E5DF91CF911F910F91FF90BA
:10072000EF90DF90CF90BF90AF909F908F90089503
:1007300082E5F1CF662329F7442329F721153105F6
:1007400029F784E5E8CF81E5E6CFB90180E090E0C4
:100750002DE330E040E050E00E94C20868517E4F37
:100760008F4F9F4F28EE33E040E050E00E94E108B9
:1007700059016A01612F70E080E090E02CE330E0E5
:1007800040E050E00E94C2087B018C01E90CF11CA2
:10079000011D111D682D70E080E090E020E13EE039
:1007A00040E050E00E94C208E60EF71E081F191F25
:1007B000C801B7012DE330E040E050E00E94C208DC
:1007C000A60EB71EC81ED91E760100271127E70105
:1007D0008FEF9FEFA0E0B0E0A822B922CA22DB226F
:1007E000C5010E944803EF2851F080E090E80E9484
:1007F000480380E090E80E9448032197B1F780E029
:100800008ACFF8948F3FB9F1E0918E04F0918F0474
:10081000E385E81771F1E82F20E0F0E0EE0FFF1F0D
:10082000E157FA4FA081B181109761F11D96EC91CB
:100830001D97F0E0EE57FB4F1E968C911E9780950A
:10084000908189238083882349F41F969C911F9768
:100850009095809181048923809381041A968C91CC
:100860001A9788601A968C937894213071F080E002
:10087000089521E0D2CFE0918E04F0918F04E385BA
:1008800021E0CBCF78948AE508950E94010380E0AF
:100890000895E82FF894F0E0EE0FFF1FE157FA4FAC
:1008A000A081B1811097B9F01A968C911A9783FDA7
:1008B00003C0789485E60895877F1A968C931A97DB
:1008C000882331F418968D919C911997892B31F0DA
:1008D000789480E00895789484E608958091810466
:1008E0001F969C911F97892B809381041D96EC91F4
:1008F0001D97F0E0EE57FB4F80811E969C91892B4F
:10090000808378940E94010380E008950F931F93E1
:10091000CF93DF93E82F80918D04882309F068C07E
:10092000F894EF3F09F47FC00E2F10E0000F111F65
:10093000F801E157FA4FC081D181209709F479C0BD
:100940008D85482F50E02E852095FA01EE57FB4FFC
:10095000808182238083882309F454C0AE81BF81C3
:10096000109749F0FD01E40FF51F868182238683ED
:10097000882309F44FC0198618861A8680916E0460
:100980008F3F19F08F5F80936E047894F8948823DA
:10099000A9F5CE010E94570180917E048150809379
:1009A0007E0401571A4FF80111821082AC81BD817B
:1009B000109709F445C08A819B8113969C938E936E
:1009C0001297EA81FB81B583A48380917C04909186
:1009D0007D049B838A83D0937D04C0937C047894A8
:1009E0000E94010380E0DF91CF911F910F91089544
:1009F0008FE3DF91CF911F910F91089581508093E4
:100A00006E04C7CF9F859095809181048923809340
:100A10008104A4CF9F85909511968C91119789237D
:100A200011968C93A8CFE0918E04F0918F04E3850A
:100A30007BCF78948CE3DF91CF911F910F91089534
:100A4000EA81FB8115821482F0937704E0937604A7
:100A5000BCCFAF92BF92CF92DF92EF92FF920F93F3
:100A60001F93CF93DF93FC01122FF894C22FD0E095
:100A7000CC0FDD1FC157DA4F88819981892B71F026
:100A8000789418E2812FDF91CF911F910F91FF9001
:100A9000EF90DF90CF90BF90AF90089581E090E00D
:100AA000998388837894CF0120E030E00E942E0162
:100AB000BC01812F40E050E020E030E0EE24FF2434
:100AC0008701CC24DD24AA24BB240E948202182F93
:100AD000882371F4F89480917E048F5F80937E0464
:100AE000789480916F04813069F60E940103CACF27
:100AF000F894198218827894C5CFFC01F89481810A
:100B0000882379F4828193812FEF8F3F920731F010
:100B1000019693838283789480E00895789482E3A9
:100B20000895CF0160E070E041E00E947F01789479
:100B30000E94010380E008950F931F93CF93DF93EA
:100B4000EC018A0180918D04882309F075C0F89426
:100B50008A819B81009709F064C0A0918E04B091B6
:100B60008F041A968C911A9781601A968C931A9713
:100B700019967C936E9318971796DC93CE931697DD
:100B80001D968C911D97482F50E01E963C911E9704
:100B9000FA01EE57FB4F832F809590818923808344
:100BA000882309F451C01F962C91FE01E40FF51F14
:100BB0008681832B86838981822B898378940E9406
:100BC0000103F894A0918E04B0918F041A968C9131
:100BD0001A9780FF43C01D968C911D97FE01E80F68
:100BE000F11D1E968C911E97809596818923868390
:100BF000882339F41F969C911F97909589818923AA
:100C000089831A961C921A9717961C921E92169711
:100C100078948AE0F8018083DF91CF911F910F9142
:100C2000089501979B838A837894FA011082DF915B
:100C3000CF911F910F91089582E0FA018083DF9197
:100C4000CF911F910F9108951F962C91922F9095FF
:100C500080918104892380938104A7CF17961C92E9
:100C60001E9216977894F8011082DF91CF911F9110
:100C70000F91089580916F04813009F00895F894E0
:100C800080916E04882359F0815080936E048823EC
:100C900021F480918D04882321F07894089578942C
:100CA000089578940E94010308950E945A0180914A
:100CB0006F04813009F00895A0917604B091770413
:100CC0001B968C911B978F33B1F32091810441E0E7
:100CD00050E01AC01F968C911F97282B1D96EC91FF
:100CE0001D97F0E0EE57FB4F80811E969C911E975A
:100CF000892B808312960D90BC91A02D78941B9621
:100D00008C911B978F33C1F0F89418968D919C911C
:100D10001997009779F3019719969C938E931897DA
:100D2000892B41F71A968C911A9783FFD3CF199686
:100D30005C934E931897DECF2093810408958091A1
:100D40006F0481110895E0918104F0E0E75AFE4FAD
:100D5000A081EA2FF0E0EE57FB4FE081F0E0E75A88
:100D6000FE4FAA0FAA0FAA0F8081A80FA0937404A8
:100D7000A0937504B0E0AA0FBB1FA157BA4F8D9185
:100D80009C919093800480937F0490938F04809330
:100D90008E040E949F07089580916F04813009F0AE
:100DA0000895F89480918D04882339F081508093C0
:100DB0008D04882311F07894089580916E0488231F
:100DC000D1F7E0918104F0E0E75AFE4F80818093F3
:100DD0008C04E82FF0E0EE57FB4FE081F0E0E75A9B
:100DE000FE4F982F990F990F990F8081980F90932C
:100DF0007404809175049817F1F2E92FF0E0EE0F7A
:100E0000FF1FE157FA4F8081918190938004809376
:100E10007F048091780490917904A0917A04B09134
:100E20007B040196A11DB11D8093780490937904F1
:100E3000A0937A04B0937B040E943008BCCF0E9438
:100E40005B0110928D0410926E0410927E04109239
:100E50006F04109278041092790410927A04109220
:100E60007B0410927004109271041092720410921C
:100E7000730410928104E2E8F4E0119284E0EA380D
:100E8000F807D9F710927504109274041092800438
:100E900010927F0410928F0410928E0410927704A7
:100EA00010927604EFE8F5E01192119286E0EF30AF
:100EB000F807D1F78BE495E090933D0580933C05CE
:100EC000419690934E0580934D05419690935F0512
:100ED00080935E0541969093700580936F05109204
:100EE0008105109280058454904090937D048093F6
:100EF0007C04109210058EE195E090931505809387
:100F0000140510921E050E969093230580932205DA
:100F10004C9710922C051092310510923005909349
:100F20008B0480938A0489EE92E060E070E04FE0E9
:100F300055E02FE30E9429050E945C0108950E945C
:100F4000580100916F04039500936F04E0917F04B2
:100F5000F0918004C191CDBFD191DEBF0F910FBF41
:100F6000FF91EF91DF91CF91BF91AF919F918F91C1
:100F70007F916F915F914F913F912F911F910F91B1
:100F8000FF90EF90DF90CF90BF90AF909F908F90A9
:100F90007F906F905F904F903F902F901F900F9099
:100FA00008950F921F922F923F924F925F926F92ED
:100FB0007F928F929F92AF92BF92CF92DF92EF92E9
:100FC000FF920F931F932F933F934F935F936F93D2
:100FD0007F938F939F93AF93BF93CF93DF93EF93C1
:100FE000FF930FB70F93E0918E04F0918F04CDB76C
:100FF000C193DEB7D1930E9458010091740400930D
:101000007504E0917F04F0918004E0938E04F093E6
:101010008F04C191CDBFD191DEBF0F910FBFFF9162
:10102000EF91DF91CF91BF91AF919F918F917F9180
:101030006F915F914F913F912F911F910F91FF9071
:10104000EF90DF90CF90BF90AF909F908F907F9068
:101050006F905F904F903F902F901F900F9008954A
:101060000E9458010091740400937504E0917F047C
:10107000F0918004E0938E04F0938F04C191CDBF72
:10108000D191DEBF0F910FBFFF91EF91DF91CF9113
:10109000BF91AF919F918F917F916F915F914F9190
:1010A0003F912F911F910F91FF90EF90DF90CF9084
:1010B000BF90AF909F908F907F906F905F904F9078
:1010C0003F902F901F900F9008950F921F922F9294
:1010D0003F924F925F926F927F928F929F92AF92C8
:1010E000BF92CF92DF92EF92FF920F931F932F93B5
:1010F0003F934F935F936F937F938F939F93AF93A0
:10110000BF93CF93DF93EF93FF930FB700680F93D5
:1011100000918D04039500938D04013041F4CDB707
:10112000DEB7E0918E04F0918F04C193D19300E07B
:1011300002BF78940E94550600000E94CC060F91D1
:101140000FBFFF91EF91DF91CF91BF91AF919F9131
:101150008F917F916F915F914F913F912F911F914F
:101160000F91FF90EF90DF90CF90BF90AF909F9046
:101170008F907F906F905F904F903F902F901F9037
:101180000F900895629FD001739FF001829FE00D40
:10119000F11D649FE00DF11D929FF00D839FF00DF6
:1011A000749FF00D659FF00D9927729FB00DE11DA2
:1011B000F91F639FB00DE11DF91FBD01CF0111247F
:1011C0000895A1E21A2EAA1BBB1BFD010DC0AA1F88
:1011D000BB1FEE1FFF1FA217B307E407F50720F0A0
:1011E000A21BB30BE40BF50B661F771F881F991F1B
:1011F0001A9469F760957095809590959B01AC0164
:10120000BD01CF010895AEE0B0E0E9E0F9E00C9453
:10121000B20B0D891E8986E08C831A8309838FEFB8
:101220009FE79E838D839E01275E3F4FCE010196EF
:101230006F89788DA9010E9427092F813885020FB7
:10124000131FF80110822E96E4E00C94CE0BABE055
:10125000B0E0EDE2F9E00C94A40B3C012B015A0143
:10126000FC0117821682838181FD03C06FEF7FEF3F
:10127000C6C19AE0892E1E010894211C311CF3017D
:101280002381F20123FD859123FF81912F01882382
:1012900009F4B2C1853239F423FD859123FF819190
:1012A0002F01853229F490E0B3010E941A0BE7CF99
:1012B000982FFF24EE249924FFE1FF15D0F09B32F4
:1012C00069F09C3228F4903259F0933291F40EC0B8
:1012D0009D3249F0903369F441E024C052E0F52A90
:1012E00084E0F82A28C098E0F92A25C0E0E1FE2A27
:1012F00022C0F7FC29C0892F80538A3070F4F6FE93
:1013000005C0989C902C1124980E15C0E89CE02CE8
:101310001124E80EF0E2FF2A0EC09E3229F4F6FCFA
:101320006BC140E4F42A07C09C3619F450E8F52A52
:1013300002C0983649F4F20123FD959123FF919163
:101340002F01992309F0B8CF892F8554833018F0E5
:101350008052833038F444E050E0A40EB51E5FE3C1
:1013600059830FC0933631F0933779F0933509F0F4
:1013700056C020C0F5018081898342E050E0A40E70
:10138000B51E610101E010E012C0F501C080D180FE
:10139000F6FC03C06FEF7FEF02C0692D70E042E002
:1013A00050E0A40EB51EC6010E940F0B8C015FE732
:1013B000F52214C0F501C080D180F6FC03C06FEFA8
:1013C0007FEF02C0692D70E042E050E0A40EB51E30
:1013D000C6010E94040B8C0150E8F52AF3FE07C0F9
:1013E0001AC080E290E0B3010E941A0BEA948E2D9D
:1013F00090E008171907A8F30EC0F601F7FC8591D5
:10140000F7FE81916F0190E0B3010E941A0BE11089
:10141000EA94015010400115110579F7EAC094369D
:1014200011F0993669F5F7FE08C0F5012081318188
:101430004281538184E090E00AC0F501808191816E
:101440009C01442737FD4095542F82E090E0A80E80
:10145000B91E9FE6F92257FF09C050954095309577
:1014600021953F4F4F4F5F4FE0E8FE2ACA01B90177
:10147000A1012AE030E00E94460BD82ED21840C0CD
:10148000953729F41F2D1F7E2AE030E01DC01F2D47
:10149000197F9F3661F0903720F4983509F0ACC081
:1014A0000FC0903739F0983709F0A6C004C028E083
:1014B00030E00AC0106114FD146020E130E004C087
:1014C00014FD166020E132E017FF08C0F5016081CD
:1014D00071818281938144E050E008C0F5018081F0
:1014E0009181BC0180E090E042E050E0A40EB51E86
:1014F000A1010E94460BD82ED2188FE7F82EF122B8
:10150000F6FE0BC05EEFF522D91438F4F4FE07C0E6
:10151000F2FC05C08FEEF82202C01D2D01C0192D6E
:10152000F4FE0DC0FE01ED0DF11D8081803319F434
:1015300099EEF92208C01F5FF2FE05C003C08F2D8F
:10154000867809F01F5F0F2DF3FC14C0F0FE0FC06A
:101550001E1510F09D2C0BC09D2C9E0C911A1E2D5B
:1015600006C080E290E0B3010E941A0B1F5F1E15B7
:10157000C0F304C01E1510F4E11A01C0EE2404FFEC
:101580000FC080E390E0B3010E941A0B02FF1DC060
:1015900001FD03C088E790E00EC088E590E00BC035
:1015A000802F867891F001FF02C08BE201C080E2BB
:1015B000F7FC8DE290E0B3010E941A0B06C080E3B5
:1015C00090E0B3010E941A0B9A94D914C0F3DA94F4
:1015D000F101ED0DF11D808190E0B3010E941A0B25
:1015E000DD20A9F706C080E290E0B3010E941A0B4B
:1015F000EA94EE20C1F743CEF30166817781CB01F7
:101600002B96E2E10C94C00BFC01059061507040F8
:101610000110D8F7809590958E0F9F1F0895FC01BB
:101620006150704001900110D8F7809590958E0F11
:101630009F1F08950F931F93CF93DF938C01EB01AE
:101640008B8181FF1BC082FF0DC02E813F818C8169
:101650009D812817390764F4E881F9810193F983A2
:10166000E88306C0E885F985802F0995892B31F438
:101670008E819F8101969F838E8302C00FEF1FEFA3
:10168000C801DF91CF911F910F910895FA01AA2708
:10169000283051F1203181F1E8946F936E7F6E5FB5
:1016A0007F4F8F4F9F4FAF4FB1E03ED0B4E03CD063
:1016B000670F781F891F9A1FA11D680F791F8A1F46
:1016C000911DA11D6A0F711D811D911DA11D20D0AD
:1016D00009F468943F912AE0269F11243019305D67
:1016E0003193DEF6CF010895462F4770405D419358
:1016F000B3E00FD0C9F7F6CF462F4F70405D4A33A5
:1017000018F0495D31FD4052419302D0A9F7EACF6C
:10171000B4E0A6959795879577956795BA95C9F79B
:1017200000976105710508959B01AC010A2E06948E
:101730005795479537952795BA95C9F7620F731F47
:10174000841F951FA01D08952F923F924F925F9284
:101750006F927F928F929F92AF92BF92CF92DF92C1
:10176000EF92FF920F931F93CF93DF93CDB7DEB726
:10177000CA1BDB0B0FB6F894DEBF0FBECDBF0994BA
:101780002A88398848885F846E847D848C849B8411
:10179000AA84B984C884DF80EE80FD800C811B811F
:1017A000AA81B981CE0FD11D0FB6F894DEBF0FBE4E
:0A17B000CDBFED010895F894FFCFBE
:1017BA000A5461736B32206265666F7265206465D4
:1017CA006C6179000A5461736B32206166746572C8
:1017DA002064656C6179000A5461736B312062651B
:1017EA00666F72652064656C6179000A5461736B77
:1017FA00312061667465722064656C6179002564C4
:10180A0000010204081020408000000100020001CB
:10181A0000030001000200010004000100020001AF
:10182A00000300010002000100050001000200019E
:10183A00000300010002000100040001000200018F
:10184A00000300010002000100060001000200017D
:10185A00000300010002000100040001000200016F
:10186A00000300010002000100050001000200015E
:10187A00000300010002000100040001000200014F
:10188A00000300010002000100070001000200013C
:10189A00000300010002000100040001000200012F
:1018AA00000300010002000100050001000200011E
:1018BA00000300010002000100040001000200010F
:1018CA0000030001000200010006000100020001FD
:1018DA0000030001000200010004000100020001EF
:1018EA0000030001000200010005000100020001DE
:1018FA0000030001000200010004000100020001CF
:0A190A0000030001000200010000CC
:00000001FF
