:100000000C9446000C9463000C9463000C94630001
:100010000C9463000C9463000C9463000C946300D4
:100020000C9463000C9463000C9463000C946300C4
:100030000C9463000C9463000C9463000C946300B4
:100040000C9489080C9463000C9463000C94630076
:100050000C9463000C9463000C9463000C94630094
:100060000C9463000C9463000C9463000C94630084
:100070000C9463000C9463000C9463000C94630074
:100080000C9463000C9463000C94630011241FBE55
:10009000CFEFD0E1DEBFCDBF12E0A0E0B1E0E2E003
:1000A000F8E102C005900D92AA36B107D9F716E023
:1000B000AAE6B2E001C01D92AE30B107E1F70E949E
:1000C00004010C94FF0B0C9400001092980087E63A
:1000D00080939900EAE9F0E0808188618083089547
:1000E00080939C0080919B0085FFFCCF08958091B8
:1000F0009B0087FFFCCF80919C000895FC018081CC
:10010000882351F080939C0080919B0085FFFCCF59
:10011000319680818823B1F7089512BE87E083BFAE
:1001200081E087BF0895CF93DF93E0E0F1E0C9E17C
:10013000D0E08081882329F520E137E2CE010197C4
:10014000F1F721503040D1F784E00E947304E9E1D7
:10015000F1E08AE080939C0080919B0085FFFCCFBA
:10016000319680818823B1F720E137E2CE010197F3
:10017000F1F721503040D1F7E0E0F1E080818823B1
:10018000D9F280939C0080919B0085FFFCCF319633
:10019000D0CFCF93DF9312BE87E083BF81E087BFCC
:1001A000EFE2F1E0C9E1D0E08081882329F520E188
:1001B00037E2CE010197F1F721503040D1F784E0CA
:1001C0000E942B04E8E4F1E08AE080939C00809197
:1001D0009B0085FFFCCF319680818823B1F720E119
:1001E00037E2CE010197F1F721503040D1F7EFE22D
:1001F000F1E080818823D9F280939C0080919B005C
:1002000085FFFCCF3196D0CF0E94490789EC90E062
:1002100060E070E04DE754E024E00E94530583E97C
:1002200090E060E070E049E653E025E00E9453056D
:100230001092980087E680939900EAE9F0E08081C7
:10024000886180830E94C9060895CF93DF9300D010
:1002500000D000D0EDB7FEB73196CAE6D3E0ADB717
:10026000BEB71296DC93CE9311972EE531E033831F
:100270002283958384830E94270980916A032DB786
:100280003EB72A5F3F4F0FB6F8943EBF0FBE2DBF5B
:10029000882359F0FE0180939C0080919B0085FF8C
:1002A000FCCF319680818823B1F7DF91CF910895FB
:1002B000FA018083929312921292129212921292E7
:1002C000129212921292129212921292129212920E
:1002D00012921292129212921292129212921292FE
:1002E000129212921292629372931292129212923C
:1002F00012921292129280E882933197CF01089560
:100300000895089508950895089508950895089505
:10031000089580917F04813009F0089580919D04B3
:100320008F3FD9F38F5F80939D04089580917F0460
:10033000813009F00895F89480917E048F3F19F080
:100340008F5F80937E04789408958CEF90E00895F9
:1003500008951F93CF93DF93EC01142F3981E32F7E
:10036000F0E0E759FE4F2081622F70E0FB01EF596A
:10037000FE4F4081DC01A60FB71F16969C91169781
:10038000E92FF0E0E759FE4F8081E82FF0E0EF59C8
:10039000FE4F5081220F220F220F280F852F8095AC
:1003A000892316968C93882321F4842F80953823F3
:1003B0003983E22FF0E0EE0FFF1FE257FA4F019072
:1003C000F081E02D1186108617821682812F80958C
:1003D000928589238287882359F480919104842B04
:1003E00080939104FB01EE56FB4F8081582B508384
:1003F000822FDF91CF911F910895CF93DF93EC016E
:10040000A0919E04B0919F0417969C938E9316978B
:100410001D968C911D97482F50E01E963C911E977B
:10042000FA01EE56FB4F832F8095908189238083BC
:100430008823A9F41F962C91922F90958091910476
:10044000892380939104FE01E40FF51F8681832B9D
:1004500086838981822B8983DF91CF9108951F96AE
:100460002C91F1CFCF93DF93EC01A0919E04B0913A
:100470009F041D968C911D97FE01E80FF11D1E969D
:100480008C911E978095968189238683882339F4E1
:100490001F969C911F9790958981892389831A962D
:1004A0001C921A9717961C921E921697DF91CF9165
:1004B0000895FC0111821682178210861186128619
:1004C0001386148615860895CF93DF939C0180913F
:1004D0009D048823E9F4F894C0919A04D0919B0478
:1004E000209731F08C819D8190939B0480939A0496
:1004F0007894209749F083E088833B832A831D8288
:100500001C82CE010E945902CE01DF91CF91089545
:10051000C0E0D0E0CE01DF91CF9108958F3F89F008
:10052000F894E82FF0E0EE0FFF1FE257FA4F01902A
:10053000F081E02D309769F08EE3808B80E0789435
:100540000895F894E0919E04F0919F048089789436
:1005500008958BE0789408951F93CF93DF93182F1D
:10056000F894C0918C04D0918D04209709F455C063
:100570008A819B8190938D0480938C0478947983F5
:1005800068831B871A8619861886188AE12FE695D4
:10059000E695E695ED87F0E0EF59FE4F80818F8775
:1005A000E12FE770EC87F0E0EF59FE4F80818E87F6
:1005B0001F821E82CE010E948801CE010E9480010E
:1005C000F894E12FF0E0EE0FFF1FE257FA4FD183CE
:1005D000C083E0918604F0918704FB83EA831D8247
:1005E0001C82309711F0D583C483D0938704C093C5
:1005F0008604809191049F85892B80939104ED85D9
:10060000F0E0EE56FB4F80819E85892B80837894A5
:1006100080E0DF91CF911F910895789486E4DF9177
:10062000CF911F910895F894809180049091810456
:10063000A0918204B09183040196A11DB11D809305
:10064000800490938104A0938204B09383047894EF
:100650000E948701E8CFF89480919D04882309F0D7
:100660003FC080917E048823D9F5E0919104F0E0A9
:10067000E759FE4F8081E82FF0E0EE56FB4FE08116
:10068000F0E0E759FE4F982F990F990F990F80814D
:10069000980F9093840480918504981709F1E92FAD
:1006A000F0E0EE0FFF1FE257FA4F808191819093A7
:1006B000900480938F048091880490918904A09184
:1006C0008A04B0918B040196A11DB11D809388040A
:1006D00090938904A0938A04B0938B040E94F50739
:1006E000789408959C01009721F1F894A0919E04BC
:1006F000B0919F041D96EC911D97F0E0EE56FB4FD4
:100700001E968C911E9780959081892380838823E3
:1007100049F41F969C911F9790958091910489238D
:100720008093910419963C932E93189778940E9485
:100730002B0308958F929F92AF92BF92CF92DF9238
:10074000EF92FF920F931F93CF93DF93882E162F74
:10075000942E8823C9F01C3300F58BE3891590F0A3
:1007600093E0283E3907D8F083E5DF91CF911F91C0
:100770000F91FF90EF90DF90CF90BF90AF909F9040
:100780008F90089582E5F1CF662329F7442329F756
:100790002115310529F784E5E8CF81E5E6CFB901D8
:1007A00080E090E02DE330E040E050E00E94E60879
:1007B00068517E4F8F4F9F4F28EE33E040E050E06E
:1007C0000E94050959016A01612F70E080E090E004
:1007D0002CE330E040E050E00E94E6087B018C0111
:1007E000E90CF11C011D111D682D70E080E090E006
:1007F00020E13EE040E050E00E94E608E60EF71EF1
:10080000081F191FC801B7012DE330E040E050E098
:100810000E94E608A60EB71EC81ED91E7601002744
:100820001127E7018FEF9FEFA0E0B0E0A822B922E7
:10083000CA22DB22C5010E947203EF2851F080E03A
:1008400090E80E94720380E090E80E947203219772
:10085000B1F780E08ACFF8948F3FB9F1E0919E0420
:10086000F0919F04E385E81771F1E82F20E0F0E0B4
:10087000EE0FFF1FE257FA4FA081B181109761F18F
:100880001D96EC911D97F0E0EE56FB4F1E968C9155
:100890001E978095908189238083882349F41F9631
:1008A0009C911F9790958091910489238093910446
:1008B0001A968C911A9788601A968C9378942130A6
:1008C00071F080E0089521E0D2CFE0919E04F09194
:1008D0009F04E38521E0CBCF78948AE508950E94B8
:1008E0002B0380E00895E82FF894F0E0EE0FFF1F4F
:1008F000E257FA4FA081B1811097B9F01A968C9106
:100900001A9783FD03C0789485E60895877F1A9629
:100910008C931A97882331F418968D919C9119978E
:10092000892B31F0789480E00895789484E60895D6
:10093000809191041F969C911F97892B809391041D
:100940001D96EC911D97F0E0EE56FB4F80811E96B0
:100950009C91892B808378940E942B0380E00895DA
:100960000F931F93CF93DF93E82F80919D048823EB
:1009700009F068C0F894EF3F09F47FC00E2F10E033
:10098000000F111FF801E257FA4FC081D181209763
:1009900009F479C08D85482F50E02E852095FA0105
:1009A000EE56FB4F808182238083882309F454C054
:1009B000AE81BF81109749F0FD01E40FF51F8681DC
:1009C00082238683882309F44FC0198618861A86E5
:1009D00080917E048F3F19F08F5F80937E0478941E
:1009E000F8948823A9F5CE010E94810180918E049C
:1009F000815080938E0402571A4FF80111821082A1
:100A0000AC81BD81109709F445C08A819B81139602
:100A10009C938E931297EA81FB81B583A483809186
:100A20008C0490918D049B838A83D0938D04C09312
:100A30008C0478940E942B0380E0DF91CF911F916A
:100A40000F9108958FE3DF91CF911F910F9108953A
:100A5000815080937E04C7CF9F85909580919104AB
:100A6000892380939104A4CF9F85909511968C91B2
:100A70001197892311968C93A8CFE0919E04F09151
:100A80009F04E3857BCF78948CE3DF91CF911F9116
:100A90000F910895EA81FB8115821482F0938704F7
:100AA000E0938604BCCFAF92BF92CF92DF92EF92D9
:100AB000FF920F931F93CF93DF93FC01122FF894B3
:100AC000C22FD0E0CC0FDD1FC257DA4F8881998149
:100AD000892B71F0789418E2812FDF91CF911F91CB
:100AE0000F91FF90EF90DF90CF90BF90AF9008955F
:100AF00081E090E0998388837894CF0120E030E012
:100B00000E945801BC01812F40E050E020E030E01D
:100B1000EE24FF248701CC24DD24AA24BB240E94D8
:100B2000AC02182F882371F4F89480918E048F5FA3
:100B300080938E04789480917F04813069F60E94BE
:100B40002B03CACFF894198218827894C5CFFC0180
:100B5000F8948181882379F4828193812FEF8F3FEC
:100B6000920731F0019693838283789480E0089510
:100B7000789482E30895CF0160E070E041E00E9444
:100B8000A90178940E942B0380E008950F931F938E
:100B9000CF93DF93EC018A0180919D04882309F0B3
:100BA00075C0F8948A819B81009709F064C0A09178
:100BB0009E04B0919F041A968C911A9781601A96A0
:100BC0008C931A9719967C936E9318971796DC93CB
:100BD000CE9316971D968C911D97482F50E01E9628
:100BE0003C911E97FA01EE56FB4F832F8095908122
:100BF00089238083882309F451C01F962C91FE011C
:100C0000E40FF51F8681832B86838981822B89835C
:100C100078940E942B03F894A0919E04B0919F04B5
:100C20001A968C911A9780FF43C01D968C911D9740
:100C3000FE01E80FF11D1E968C911E9780959681FE
:100C400089238683882339F41F969C911F9790955A
:100C50008981892389831A961C921A9717961C9268
:100C60001E92169778948AE0F8018083DF91CF91E5
:100C70001F910F91089501979B838A837894FA01BD
:100C80001082DF91CF911F910F91089582E0FA01B8
:100C90008083DF91CF911F910F9108951F962C9122
:100CA000922F909580919104892380939104A7CFEE
:100CB00017961C921E9216977894F8011082DF9175
:100CC000CF911F910F91089580917F04813009F099
:100CD0000895F89480917E04882359F08150809380
:100CE0007E04882321F480919D04882321F0789448
:100CF00008957894089578940E942B0308950E9493
:100D0000840180917F04813009F00895A0918604C8
:100D1000B09187041B968C911B978F33B1F3209170
:100D2000910441E050E01AC01F968C911F97282B28
:100D30001D96EC911D97F0E0EE56FB4F80811E96BC
:100D40009C911E97892B808312960D90BC91A02DAB
:100D500078941B968C911B978F33C1F0F89418965A
:100D60008D919C911997009779F3019719969C930F
:100D70008E931897892B41F71A968C911A9783FFB7
:100D8000D3CF19965C934E931897DECF209391049E
:100D9000089580917F0481110895E0919104F0E01D
:100DA000E759FE4FA081EA2FF0E0EE56FB4FE081BD
:100DB000F0E0E759FE4FAA0FAA0FAA0F8081A80FF3
:100DC000A0938404A0938504B0E0AA0FBB1FA25790
:100DD000BA4F8D919C919093900480938F0490933F
:100DE0009F0480939E040E94C307089580917F040E
:100DF000813009F00895F89480919D04882339F09A
:100E0000815080939D04882311F0789408958091F7
:100E10007E048823D1F7E0919104F0E0E759FE4F7A
:100E2000808180939C04E82FF0E0EE56FB4FE08138
:100E3000F0E0E759FE4F982F990F990F990F808195
:100E4000980F90938404809185049817F1F2E92F0C
:100E5000F0E0EE0FFF1FE257FA4F808191819093EF
:100E6000900480938F048091880490918904A091CC
:100E70008A04B0918B040196A11DB11D8093880452
:100E800090938904A0938A04B0938B040E94540821
:100E9000BCCF0E94850110929D0410927E04109296
:100EA0008E0410927F04109288041092890410928C
:100EB0008A0410928B041092800410928104109284
:100EC00082041092830410929104E2E9F4E01192FA
:100ED00084E0EA39F807D9F7109285041092840467
:100EE0001092900410928F0410929F0410929E040E
:100EF0001092870410928604EEE8F5E011921192A8
:100F000086E0EE30F807D1F78BE595E090934D053C
:100F100080934C05419690935E0580935D054196C4
:100F200090936F0580936E051092800510927F0557
:100F3000C39790938D0480938C04109220058EE2C9
:100F400095E0909325058093240510922E050E962A
:100F500090933305809332054C9710923C05109284
:100F600041051092400590939B0480939A0483E17D
:100F700093E060E070E04FE155E02FE30E945305FD
:100F80000E94860108950E94820100917F040395CA
:100F900000937F04E0918F04F0919004C191CDBF44
:100FA000D191DEBF0F910FBFFF91EF91DF91CF91F4
:100FB000BF91AF919F918F917F916F915F914F9171
:100FC0003F912F911F910F91FF90EF90DF90CF9065
:100FD000BF90AF909F908F907F906F905F904F9059
:100FE0003F902F901F900F9008950F921F922F9275
:100FF0003F924F925F926F927F928F929F92AF92A9
:10100000BF92CF92DF92EF92FF920F931F932F9395
:101010003F934F935F936F937F938F939F93AF9380
:10102000BF93CF93DF93EF93FF930FB70F93E091AD
:101030009E04F0919F04CDB7C193DEB7D1930E9477
:1010400082010091840400938504E0918F04F09163
:101050009004E0939E04F0939F04C191CDBFD19181
:10106000DEBF0F910FBFFF91EF91DF91CF91BF9145
:10107000AF919F918F917F916F915F914F913F9130
:101080002F911F910F91FF90EF90DF90CF90BF9025
:10109000AF909F908F907F906F905F904F903F9018
:1010A0002F901F900F9008950E9482010091840458
:1010B00000938504E0918F04F0919004E0939E04E6
:1010C000F0939F04C191CDBFD191DEBF0F910FBFAF
:1010D000FF91EF91DF91CF91BF91AF919F918F9150
:1010E0007F916F915F914F913F912F911F910F9140
:1010F000FF90EF90DF90CF90BF90AF909F908F9038
:101100007F906F905F904F903F902F901F900F9027
:1011100008950F921F922F923F924F925F926F927B
:101120007F928F929F92AF92BF92CF92DF92EF9277
:10113000FF920F931F932F933F934F935F936F9360
:101140007F938F939F93AF93BF93CF93DF93EF934F
:10115000FF930FB700680F9300919D0403950093D0
:101160009D04013041F4CDB7DEB7E0919E04F091CB
:101170009F04C193D19300E002BF78940E947F0640
:1011800000000E94F6060F910FBFFF91EF91DF91D3
:10119000CF91BF91AF919F918F917F916F915F910F
:1011A0004F913F912F911F910F91FF90EF90DF9002
:1011B000CF90BF90AF909F908F907F906F905F90F7
:1011C0004F903F902F901F900F900895629FD001F5
:1011D000739FF001829FE00DF11D649FE00DF11DF2
:1011E000929FF00D839FF00D749FF00D659FF00DA1
:1011F0009927729FB00DE11DF91F639FB00DE11D8E
:10120000F91FBD01CF0111240895A1E21A2EAA1BD6
:10121000BB1BFD010DC0AA1FBB1FEE1FFF1FA217A6
:10122000B307E407F50720F0A21BB30BE40BF50BA3
:10123000661F771F881F991F1A9469F7609570952C
:10124000809590959B01AC01BD01CF010895AEE062
:10125000B0E0EDE2F9E00C94D60B0D891E8986E032
:101260008C831A8309838FEF9FE79E838D839E0172
:10127000275E3F4FCE0101966F89788DA9010E94AC
:101280004B092F813885020F131FF80110822E960B
:10129000E4E00C94F20BABE0B0E0E1E5F9E00C9493
:1012A000C80B3C012B015A01FC0117821682838175
:1012B00081FD03C06FEF7FEFC6C19AE0892E1E014A
:1012C0000894211C311CF3012381F20123FD859137
:1012D00023FF81912F01882309F4B2C1853239F4AB
:1012E00023FD859123FF81912F01853229F490E020
:1012F000B3010E943E0BE7CF982FFF24EE249924E0
:10130000FFE1FF15D0F09B3269F09C3228F4903257
:1013100059F0933291F40EC09D3249F0903369F444
:1013200041E024C052E0F52A84E0F82A28C098E081
:10133000F92A25C0E0E1FE2A22C0F7FC29C0892F46
:1013400080538A3070F4F6FE05C0989C902C1124CE
:10135000980E15C0E89CE02C1124E80EF0E2FF2A5C
:101360000EC09E3229F4F6FC6BC140E4F42A07C09B
:101370009C3619F450E8F52A02C0983649F4F20177
:1013800023FD959123FF91912F01992309F0B8CF67
:10139000892F8554833018F08052833038F444E02C
:1013A00050E0A40EB51E5FE359830FC0933631F0B1
:1013B000933779F0933509F056C020C0F50180814C
:1013C000898342E050E0A40EB51E610101E010E007
:1013D00012C0F501C080D180F6FC03C06FEF7FEF33
:1013E00002C0692D70E042E050E0A40EB51EC601B7
:1013F0000E94330B8C015FE7F52214C0F501C08019
:10140000D180F6FC03C06FEF7FEF02C0692D70E062
:1014100042E050E0A40EB51EC6010E94280B8C01CC
:1014200050E8F52AF3FE07C01AC080E290E0B3014D
:101430000E943E0BEA948E2D90E008171907A8F33E
:101440000EC0F601F7FC8591F7FE81916F0190E0E7
:10145000B3010E943E0BE110EA94015010400115C7
:10146000110579F7EAC0943611F0993669F5F7FE5F
:1014700008C0F501208131814281538184E090E0F0
:101480000AC0F501808191819C01442737FD409578
:10149000542F82E090E0A80EB91E9FE6F92257FF74
:1014A00009C050954095309521953F4F4F4F5F4F64
:1014B000E0E8FE2ACA01B901A1012AE030E00E9459
:1014C0006A0BD82ED21840C0953729F41F2D1F7EE5
:1014D0002AE030E01DC01F2D197F9F3661F0903744
:1014E00020F4983509F0ACC00FC0903739F0983728
:1014F00009F0A6C004C028E030E00AC0106114FD65
:10150000146020E130E004C014FD166020E132E0F8
:1015100017FF08C0F501608171818281938144E0E9
:1015200050E008C0F50180819181BC0180E090E02D
:1015300042E050E0A40EB51EA1010E946A0BD82E15
:10154000D2188FE7F82EF122F6FE0BC05EEFF522DF
:10155000D91438F4F4FE07C0F2FC05C08FEEF8226F
:1015600002C01D2D01C0192DF4FE0DC0FE01ED0DB0
:10157000F11D8081803319F499EEF92208C01F5FB4
:10158000F2FE05C003C08F2D867809F01F5F0F2D76
:10159000F3FC14C0F0FE0FC01E1510F09D2C0BC004
:1015A0009D2C9E0C911A1E2D06C080E290E0B30186
:1015B0000E943E0B1F5F1E15C0F304C01E1510F4E1
:1015C000E11A01C0EE2404FF0FC080E390E0B301F4
:1015D0000E943E0B02FF1DC001FD03C088E790E0A2
:1015E0000EC088E590E00BC0802F867891F001FF57
:1015F00002C08BE201C080E2F7FC8DE290E0B30113
:101600000E943E0B06C080E390E0B3010E943E0BB7
:101610009A94D914C0F3DA94F101ED0DF11D808193
:1016200090E0B3010E943E0BDD20A9F706C080E2E6
:1016300090E0B3010E943E0BEA94EE20C1F743CE46
:10164000F30166817781CB012B96E2E10C94E40BE8
:10165000FC010590615070400110D8F7809590957D
:101660008E0F9F1F0895FC01615070400190011082
:10167000D8F7809590958E0F9F1F08950F931F9315
:10168000CF93DF938C01EB018B8181FF1BC082FF25
:101690000DC02E813F818C819D812817390764F40C
:1016A000E881F9810193F983E88306C0E885F9852B
:1016B000802F0995892B31F48E819F8101969F831C
:1016C0008E8302C00FEF1FEFC801DF91CF911F91F2
:1016D0000F910895FA01AA27283051F1203181F1A4
:1016E000E8946F936E7F6E5F7F4F8F4F9F4FAF4F2A
:1016F000B1E03ED0B4E03CD0670F781F891F9A1F3D
:10170000A11D680F791F8A1F911DA11D6A0F711DF0
:10171000811D911DA11D20D009F468943F912AE0FC
:10172000269F11243019305D3193DEF6CF010895E4
:10173000462F4770405D4193B3E00FD0C9F7F6CF15
:10174000462F4F70405D4A3318F0495D31FD4052DD
:10175000419302D0A9F7EACFB4E0A6959795879573
:1017600077956795BA95C9F7009761057105089552
:101770009B01AC010A2E06945795479537952795FE
:10178000BA95C9F7620F731F841F951FA01D089596
:101790002F923F924F925F926F927F928F929F9281
:1017A000AF92BF92CF92DF92EF92FF920F931F936F
:1017B000CF93DF93CDB7DEB7CA1BDB0B0FB6F89420
:1017C000DEBF0FBECDBF09942A88398848885F8460
:1017D0006E847D848C849B84AA84B984C884DF80D1
:1017E000EE80FD800C811B81AA81B981CE0FD11DB5
:1017F0000FB6F894DEBF0FBECDBFED010895F8948B
:02180000FFCF18
:101802000A5461736B32206265666F72652073756C
:101812007370656E73696F6E000A5461736B322068
:10182200616674657220726573756D696E67000A10
:101832005461736B31206265666F726520737573D4
:1018420070656E64696E67000A5461736B31206162
:101852006674657220726573756D696E67002564C2
:101862000001020408102040800000010002000173
:101872000003000100020001000400010002000157
:101882000003000100020001000500010002000146
:101892000003000100020001000400010002000137
:1018A2000003000100020001000600010002000125
:1018B2000003000100020001000400010002000117
:1018C2000003000100020001000500010002000106
:1018D20000030001000200010004000100020001F7
:1018E20000030001000200010007000100020001E4
:1018F20000030001000200010004000100020001D7
:1019020000030001000200010005000100020001C5
:1019120000030001000200010004000100020001B6
:1019220000030001000200010006000100020001A4
:101932000003000100020001000400010002000196
:101942000003000100020001000500010002000185
:101952000003000100020001000400010002000176
:0A1962000003000100020001000074
:00000001FF
