:100000000C9446000C9463000C9463000C94630001
:100010000C9463000C9463000C9463000C946300D4
:100020000C9463000C9463000C9463000C946300C4
:100030000C9463000C9463000C9463000C946300B4
:100040000C94E6080C9463000C9463000C94630019
:100050000C9463000C9463000C9463000C94630094
:100060000C9463000C9463000C9463000C94630084
:100070000C9463000C9463000C9463000C94630074
:100080000C9463000C9463000C94630011241FBE55
:10009000CFEFD0E1DEBFCDBF12E0A0E0B1E0ECEBEE
:1000A000F8E102C005900D92A636B107D9F717E026
:1000B000A6E6B2E001C01D92AE31B107E1F70E94A1
:1000C0003D010C945C0C0C9400001092980087E6A3
:1000D00080939900EAE9F0E0808188618083089547
:1000E00080939C0080919B0085FFFCCF08958091B8
:1000F0009B0087FFFCCF80919C000895FC018081CC
:10010000882351F080939C0080919B0085FFFCCF59
:10011000319680818823B1F7089512BE87E083BFAE
:1001200081E087BF089580917B0590917C0560E018
:1001300070E04AE755E00E941D0680917A05882309
:1001400091F7E0E0F1E08AE080939C0080919B00D1
:1001500085FFFCCF319680818823B1F782E390E060
:100160000E94C90380917B0590917C050E94FE0549
:1001700080937A058823B9F6E7E0F1E08AE080937E
:100180009C0080919B0085FFFCCF31968081882365
:1001900051F2F5CF80917B0590917C0560E070E095
:1001A0004AE755E00E941D0680917A05882391F761
:1001B000EDE1F1E08AE080939C0080919B0085FF57
:1001C000FCCF319680818823B1F78CE390E00E94C8
:1001D000C90380917B0590917C050E94FE05809368
:1001E0007A058823B9F6E4E2F1E08AE080939C0086
:1001F00080919B0085FFFCCF31968081882351F24E
:10020000F5CF12BE87E083BF81E087BF80917B0579
:1002100090917C0560E070E04AE755E00E941D0681
:1002200080917A05882369F4EAE3F1E08AE080931B
:100230009C0080919B0085FFFCCF319680818823B4
:10024000B1F788E790E00E94C90380917B05909107
:100250007C050E94FE0580937A058823B9F6E1E4C7
:10026000F1E08AE080939C0080919B0085FFFCCFA9
:1002700031968081882351F2F5CF0E94A00781E05A
:1002800091E060E070E049E755E024E00E94AA05B3
:100290008AEC90E060E070E045E653E025E00E94E3
:1002A000AA0583E990E060E070E045E654E026E0CE
:1002B0000E94AA0583E090E00E94BB0290937C0517
:1002C00080937B051092980087E680939900809137
:1002D0009A00886180939A000E942007E7E5F1E088
:1002E0008AE080939C0080919B0085FFFCCF319633
:1002F00080818823B1F70895CF93DF9300D000D099
:1003000000D0EDB7FEB73196C6E6D4E0ADB7BEB7C4
:100310001296DC93CE9311972AE531E03383228342
:10032000958384830E948409809166042DB73EB72B
:100330002A5F3F4F0FB6F8943EBF0FBE2DBF8823F4
:1003400059F0FE0180939C0080919B0085FFFCCFBB
:10035000319680818823B1F7DF91CF910895FA011A
:10036000808392931292129212921292129212928D
:10037000129212921292129212921292129212925D
:10038000129212921292129212921292129212924D
:10039000129212926293729312921292129212928B
:1003A0001292129280E882933197CF0108950895B6
:1003B0000895089508950895089508950895089555
:1003C00080917E05813009F0089580919C058F3FD2
:1003D000D9F38F5F80939C05089580917E058130CD
:1003E00009F00895F89480917D058F3F19F08F5F93
:1003F00080937D05789408958CEF90E0089508959A
:100400001F93CF93DF93EC01142F3981E32FF0E09A
:10041000EB59FE4F2081622F70E0FB01E35AFE4F43
:100420004081DC01A60FB71F16969C911697E92F05
:10043000F0E0EB59FE4F8081E82FF0E0E35AFE4FE9
:100440005081220F220F220F280F852F809589239C
:1004500016968C93882321F4842F80953823398332
:10046000E22FF0E0EE0FFF1FE256F94F0190F0810E
:10047000E02D1186108617821682812F8095928535
:1004800089238287882359F480919005842B809357
:100490009005FB01EF56FA4F8081582B5083822F35
:1004A000DF91CF911F910895CF93DF93EC01A0913D
:1004B0009D05B0919E0517969C938E9316971D9659
:1004C0008C911D97482F50E01E963C911E97FA0183
:1004D000EF56FA4F832F809590818923808388235C
:1004E000A9F41F962C91922F9095809190058923C5
:1004F00080939005FE01E40FF51F8681832B868390
:100500008981822B8983DF91CF9108951F962C9149
:10051000F1CFCF93DF93EC01A0919D05B0919E05A3
:100520001D968C911D97FE01E80FF11D1E968C9172
:100530001E978095968189238683882339F41F9698
:100540009C911F9790958981892389831A961C9283
:100550001A9717961C921E921697DF91CF910895C5
:10056000FC0111821682178210861186128613866C
:10057000148615860895CF93DF939C0180919C0586
:100580008823E9F4F894C0919905D0919A052097B1
:1005900031F08C819D8190939A0580939905789490
:1005A000209749F083E088833B832A831D821C8245
:1005B000CE010E94B002CE01DF91CF910895C0E03C
:1005C000D0E0CE01DF91CF9108958F3F89F0F8946C
:1005D000E82FF0E0EE0FFF1FE256F94F0190F08197
:1005E000E02D309769F08EE3808B80E07894089559
:1005F000F894E0919D05F0919E0580897894089586
:100600008BE0789408951F93CF93DF93182FF8947D
:10061000C0918B05D0918C05209709F455C08A8133
:100620009B8190938C0580938B0578947983688364
:100630001B871A8619861886188AE12FE695E69593
:10064000E695ED87F0E0E35AFE4F80818F87E12F3A
:10065000E770EC87F0E0E35AFE4F80818E871F82BF
:100660001E82CE010E94DF01CE010E94D701F894C4
:10067000E12FF0E0EE0FFF1FE256F94FD183C08368
:10068000E0918505F0918605FB83EA831D821C823B
:10069000309711F0D583C483D0938605C093850528
:1006A000809190059F85892B80939005ED85F0E0E2
:1006B000EF56FA4F80819E85892B8083789480E065
:1006C000DF91CF911F910895789486E4DF91CF91C7
:1006D0001F910895F89480917F0590918005A091D5
:1006E0008105B09182050196A11DB11D80937F0502
:1006F00090938005A0938105B093820578940E9421
:10070000DE01E8CFF89480919C05882309F03FC072
:1007100080917D058823D9F5E0919005F0E0EB59B3
:10072000FE4F8081E82FF0E0EF56FA4FE081F0E0D5
:10073000EB59FE4F982F990F990F990F8081980FC1
:100740009093830580918405981709F1E92FF0E0D3
:10075000EE0FFF1FE256F94F8081918190938F0534
:1007600080938E058091870590918805A0918905D9
:10077000B0918A050196A11DB11D809387059093C4
:100780008805A0938905B0938A050E945208789441
:1007900008959C01009721F1F894A0919D05B091D6
:1007A0009E051D96EC911D97F0E0EF56FA4F1E96B0
:1007B0008C911E978095908189238083882349F4AA
:1007C0001F969C911F979095809190058923809307
:1007D000900519963C932E93189778940E94820363
:1007E00008958F929F92AF92BF92CF92DF92EF9235
:1007F000FF920F931F93CF93DF93882E162F942E83
:100800008823C9F01C3300F58BE3891590F093E041
:10081000283E3907D8F083E5DF91CF911F910F91E2
:10082000FF90EF90DF90CF90BF90AF909F908F9010
:10083000089582E5F1CF662329F7442329F721158E
:10084000310529F784E5E8CF81E5E6CFB90180E0FD
:1008500090E02DE330E040E050E00E944309685111
:100860007E4F8F4F9F4F28EE33E040E050E00E94D4
:10087000620959016A01612F70E080E090E02CE389
:1008800030E040E050E00E9443097B018C01E90C1C
:10089000F11C011D111D682D70E080E090E020E149
:1008A0003EE040E050E00E944309E60EF71E081FBC
:1008B000191FC801B7012DE330E040E050E00E946D
:1008C0004309A60EB71EC81ED91E760100271127A0
:1008D000E7018FEF9FEFA0E0B0E0A822B922CA2283
:1008E000DB22C5010E94C903EF2851F080E090E8A7
:1008F0000E94C90380E090E80E94C9032197B1F7E4
:1009000080E08ACFF8948F3FB9F1E0919D05F09196
:100910009E05E385E81771F1E82F20E0F0E0EE0F87
:10092000FF1FE256F94FA081B181109761F11D962A
:10093000EC911D97F0E0EF56FA4F1E968C911E97A2
:100940008095908189238083882349F41F969C9108
:100950001F979095809190058923809390051A9612
:100960008C911A9788601A968C937894213071F044
:1009700080E0089521E0D2CFE0919D05F0919E05A1
:10098000E38521E0CBCF78948AE508950E94820325
:1009900080E00895E82FF894F0E0EE0FFF1FE25694
:1009A000F94FA081B1811097B9F01A968C911A97DE
:1009B00083FD03C0789485E60895877F1A968C930B
:1009C0001A97882331F418968D919C911997892B49
:1009D00031F0789480E00895789484E608958091C9
:1009E00090051F969C911F97892B809390051D96CB
:1009F000EC911D97F0E0EF56FA4F80811E969C9186
:100A0000892B808378940E94820380E008950F935D
:100A10001F93CF93DF93E82F80919C05882309F0E3
:100A200068C0F894EF3F09F47FC00E2F10E0000F6C
:100A3000111FF801E256F94FC081D181209709F4C6
:100A400079C08D85482F50E02E852095FA01EF560C
:100A5000FA4F808182238083882309F454C0AE81B9
:100A6000BF81109749F0FD01E40FF51F86818223B5
:100A70008683882309F44FC0198618861A868091C8
:100A80007D058F3F19F08F5F80937D057894F894F2
:100A90008823A9F5CE010E94D80180918D0581504F
:100AA00080938D050256194FF80111821082AC8196
:100AB000BD81109709F445C08A819B8113969C9350
:100AC0008E931297EA81FB81B583A48380918B0575
:100AD00090918C059B838A83D0938C05C0938B0562
:100AE00078940E94820380E0DF91CF911F910F9153
:100AF00008958FE3DF91CF911F910F910895815059
:100B000080937D05C7CF9F8590958091900589231F
:100B100080939005A4CF9F85909511968C91119705
:100B2000892311968C93A8CFE0919D05F0919E05A5
:100B3000E3857BCF78948CE3DF91CF911F910F9168
:100B40000895EA81FB8115821482F0938605E09373
:100B50008505BCCFAF92BF92CF92DF92EF92FF920A
:100B60000F931F93CF93DF93FC01122FF894C22FA2
:100B7000D0E0CC0FDD1FC256D94F88819981892BD7
:100B800071F0789418E2812FDF91CF911F910F912E
:100B9000FF90EF90DF90CF90BF90AF90089581E0ED
:100BA00090E0998388837894CF0120E030E00E9420
:100BB000AF01BC01812F40E050E020E030E0EE24A6
:100BC000FF248701CC24DD24AA24BB240E94030334
:100BD000182F882371F4F89480918D058F5F80938E
:100BE0008D05789480917E05813069F60E9482039C
:100BF000CACFF894198218827894C5CFFC01F89472
:100C00008181882379F4828193812FEF8F3F92072E
:100C100031F0019693838283789480E008957894EC
:100C200082E30895CF0160E070E041E00E9400029D
:100C300078940E94820380E008950F931F93CF93CE
:100C4000DF93EC018A0180919C05882309F075C02F
:100C5000F8948A819B81009709F064C0A0919D055A
:100C6000B0919E051A968C911A9781601A968C9372
:100C70001A9719967C936E9318971796DC93CE93D8
:100C800016971D968C911D97482F50E01E963C910B
:100C90001E97FA01EF56FA4F832F80959081892392
:100CA0008083882309F451C01F962C91FE01E40F24
:100CB000F51F8681832B86838981822B8983789493
:100CC0000E948203F894A0919D05B0919E051A960A
:100CD0008C911A9780FF43C01D968C911D97FE0141
:100CE000E80FF11D1E968C911E97809596818923A1
:100CF0008683882339F41F969C911F97909589814C
:100D0000892389831A961C921A9717961C921E9211
:100D1000169778948AE0F8018083DF91CF911F9134
:100D20000F91089501979B838A837894FA0110822A
:100D3000DF91CF911F910F91089582E0FA01808396
:100D4000DF91CF911F910F9108951F962C91922FB3
:100D5000909580919005892380939005A7CF179651
:100D60001C921E9216977894F8011082DF91CF9111
:100D70001F910F91089580917E05813009F00895AB
:100D8000F89480917D05882359F0815080937D05EA
:100D9000882321F480919C05882321F0789408957C
:100DA0007894089578940E94820308950E94DB014C
:100DB00080917E05813009F00895A0918505B0915C
:100DC00086051B968C911B978F33B1F3209190056C
:100DD00041E050E01AC01F968C911F97282B1D965A
:100DE000EC911D97F0E0EF56FA4F80811E969C9192
:100DF0001E97892B808312960D90BC91A02D78941C
:100E00001B968C911B978F33C1F0F89418968D9197
:100E10009C911997009779F3019719969C938E935B
:100E20001897892B41F71A968C911A9783FFD3CF85
:100E300019965C934E931897DECF209390050895F2
:100E400080917E0581110895E0919005F0E0EB59C5
:100E5000FE4FA081EA2FF0E0EF56FA4FE081F0E07C
:100E6000EB59FE4FAA0FAA0FAA0F8081A80FA093DB
:100E70008305A0938405B0E0AA0FBB1FA256B94F0B
:100E80008D919C9190938F0580938E0590939E05F4
:100E900080939D050E942008089580917E058130F1
:100EA00009F00895F89480919C05882339F08150C9
:100EB00080939C05882311F07894089580917D0596
:100EC0008823D1F7E0919005F0E0EB59FE4F808147
:100ED00080939B05E82FF0E0EF56FA4FE081F0E0B9
:100EE000EB59FE4F982F990F990F990F8081980F0A
:100EF00090938305809184059817F1F2E92FF0E033
:100F0000EE0FFF1FE256F94F8081918190938F057C
:100F100080938E058091870590918805A091890521
:100F2000B0918A050196A11DB11D8093870590930C
:100F30008805A0938905B0938A050E94B108BCCFAB
:100F40000E94DC0110929C0510927D0510928D0587
:100F500010927E05109287051092880510928905DF
:100F600010928A0510927F051092800510928105DB
:100F70001092820510929005E1E9F5E0119285E06A
:100F8000E939F807D9F71092840510928305109279
:100F90008F0510928E0510929E0510929D0510925D
:100FA000860510928505EEE9F6E01192119287E030
:100FB000EE31F807D1F78AE596E090934C068093DE
:100FC0004B06419690935D0680935C064196909304
:100FD0006E0680936D06419690937F0680937E0601
:100FE0001092900610928F068454904090938C0536
:100FF00080938B0510921F068DE296E09093240655
:101000008093230610922D060E96909332068093BD
:1010100031064C9710923B061092400610923F0604
:1010200090939A05809399058AE693E060E070E0DA
:101030004EE156E02FE30E94AA050E94DD010895CB
:101040000E94D90100917E05039500937E05E091F1
:101050008E05F0918F05C191CDBFD191DEBF0F916B
:101060000FBFFF91EF91DF91CF91BF91AF919F9112
:101070008F917F916F915F914F913F912F911F9130
:101080000F91FF90EF90DF90CF90BF90AF909F9027
:101090008F907F906F905F904F903F902F901F9018
:1010A0000F9008950F921F922F923F924F925F924E
:1010B0006F927F928F929F92AF92BF92CF92DF9268
:1010C000EF92FF920F931F932F933F934F935F9352
:1010D0006F937F938F939F93AF93BF93CF93DF9340
:1010E000EF93FF930FB70F93E0919D05F0919E054D
:1010F000CDB7C193DEB7D1930E94D901009183058A
:1011000000938405E0918E05F0918F05E0939D0595
:10111000F0939E05C191CDBFD191DEBF0F910FBF5E
:10112000FF91EF91DF91CF91BF91AF919F918F91FF
:101130007F916F915F914F913F912F911F910F91EF
:10114000FF90EF90DF90CF90BF90AF909F908F90E7
:101150007F906F905F904F903F902F901F900F90D7
:1011600008950E94D9010091830500938405E091C0
:101170008E05F0918F05E0939D05F0939E05C1913A
:10118000CDBFD191DEBF0F910FBFFF91EF91DF91E6
:10119000CF91BF91AF919F918F917F916F915F910F
:1011A0004F913F912F911F910F91FF90EF90DF9002
:1011B000CF90BF90AF909F908F907F906F905F90F7
:1011C0004F903F902F901F900F9008950F921F9275
:1011D0002F923F924F925F926F927F928F929F9247
:1011E000AF92BF92CF92DF92EF92FF920F931F9335
:1011F0002F933F934F935F936F937F938F939F931F
:10120000AF93BF93CF93DF93EF93FF930FB7006834
:101210000F9300919C05039500939C05013041F4C8
:10122000CDB7DEB7E0919D05F0919E05C193D193B6
:1012300000E002BF78940E94D60600000E944D078D
:101240000F910FBFFF91EF91DF91CF91BF91AF91C0
:101250009F918F917F916F915F914F913F912F91CE
:101260001F910F91FF90EF90DF90CF90BF90AF90C4
:101270009F908F907F906F905F904F903F902F90B6
:101280001F900F900895629FD001739FF001829F7D
:10129000E00DF11D649FE00DF11D929FF00D839F05
:1012A000F00D749FF00D659FF00D9927729FB00DA2
:1012B000E11DF91F639FB00DE11DF91FBD01CF01B5
:1012C00011240895A1E21A2EAA1BBB1BFD010DC01B
:1012D000AA1FBB1FEE1FFF1FA217B307E407F507E6
:1012E00020F0A21BB30BE40BF50B661F771F881FC2
:1012F000991F1A9469F760957095809590959B0158
:10130000AC01BD01CF010895AEE0B0E0EAE8F9E03C
:101310000C94330C0D891E8986E08C831A83098313
:101320008FEF9FE79E838D839E01275E3F4FCE0107
:1013300001966F89788DA9010E94A8092F813885AF
:10134000020F131FF80110822E96E4E00C944F0C4C
:10135000ABE0B0E0EEEAF9E00C94250C3C012B0187
:101360005A01FC0117821682838181FD03C06FEF51
:101370007FEFC6C19AE0892E1E010894211C311C02
:10138000F3012381F20123FD859123FF81912F0138
:10139000882309F4B2C1853239F423FD859123FFF6
:1013A00081912F01853229F490E0B3010E949B0BBB
:1013B000E7CF982FFF24EE249924FFE1FF15D0F00A
:1013C0009B3269F09C3228F4903259F0933291F4B8
:1013D0000EC09D3249F0903369F441E024C052E0E0
:1013E000F52A84E0F82A28C098E0F92A25C0E0E12F
:1013F000FE2A22C0F7FC29C0892F80538A3070F45E
:10140000F6FE05C0989C902C1124980E15C0E89CFF
:10141000E02C1124E80EF0E2FF2A0EC09E3229F4DF
:10142000F6FC6BC140E4F42A07C09C3619F450E87E
:10143000F52A02C0983649F4F20123FD959123FF65
:1014400091912F01992309F0B8CF892F85548330CA
:1014500018F08052833038F444E050E0A40EB51EFA
:101460005FE359830FC0933631F0933779F09335AA
:1014700009F056C020C0F5018081898342E050E028
:10148000A40EB51E610101E010E012C0F501C0809C
:10149000D180F6FC03C06FEF7FEF02C0692D70E0D2
:1014A00042E050E0A40EB51EC6010E94900B8C01D4
:1014B0005FE7F52214C0F501C080D180F6FC03C0BF
:1014C0006FEF7FEF02C0692D70E042E050E0A40EA4
:1014D000B51EC6010E94850B8C0150E8F52AF3FE6B
:1014E00007C01AC080E290E0B3010E949B0BEA940F
:1014F0008E2D90E008171907A8F30EC0F601F7FC2F
:101500008591F7FE81916F0190E0B3010E949B0BE2
:10151000E110EA94015010400115110579F7EAC075
:10152000943611F0993669F5F7FE08C0F50120816F
:1015300031814281538184E090E00AC0F5018081CD
:1015400091819C01442737FD4095542F82E090E023
:10155000A80EB91E9FE6F92257FF09C05095409585
:10156000309521953F4F4F4F5F4FE0E8FE2ACA016B
:10157000B901A1012AE030E00E94C70BD82ED21891
:1015800040C0953729F41F2D1F7E2AE030E01DC092
:101590001F2D197F9F3661F0903720F4983509F0A0
:1015A000ACC00FC0903739F0983709F0A6C004C01E
:1015B00028E030E00AC0106114FD146020E130E042
:1015C00004C014FD166020E132E017FF08C0F501E9
:1015D000608171818281938144E050E008C0F5010F
:1015E00080819181BC0180E090E042E050E0A40E57
:1015F000B51EA1010E94C70BD82ED2188FE7F82E76
:10160000F122F6FE0BC05EEFF522D91438F4F4FE99
:1016100007C0F2FC05C08FEEF82202C01D2D01C0EC
:10162000192DF4FE0DC0FE01ED0DF11D80818033FA
:1016300019F499EEF92208C01F5FF2FE05C003C03D
:101640008F2D867809F01F5F0F2DF3FC14C0F0FE7C
:101650000FC01E1510F09D2C0BC09D2C9E0C911AD6
:101660001E2D06C080E290E0B3010E949B0B1F5F1D
:101670001E15C0F304C01E1510F4E11A01C0EE24BB
:1016800004FF0FC080E390E0B3010E949B0B02FFB8
:101690001DC001FD03C088E790E00EC088E590E022
:1016A0000BC0802F867891F001FF02C08BE201C051
:1016B00080E2F7FC8DE290E0B3010E949B0B06C034
:1016C00080E390E0B3010E949B0B9A94D914C0F37D
:1016D000DA94F101ED0DF11D808190E0B3010E94DB
:1016E0009B0BDD20A9F706C080E290E0B3010E94C9
:1016F0009B0BEA94EE20C1F743CEF301668177811C
:10170000CB012B96E2E10C94410CFC010590615059
:1017100070400110D8F7809590958E0F9F1F089507
:10172000FC016150704001900110D8F780959095B0
:101730008E0F9F1F08950F931F93CF93DF938C01FC
:10174000EB018B8181FF1BC082FF0DC02E813F8189
:101750008C819D812817390764F4E881F981019310
:10176000F983E88306C0E885F985802F0995892BE0
:1017700031F48E819F8101969F838E8302C00FEF8B
:101780001FEFC801DF91CF911F910F910895FA01CA
:10179000AA27283051F1203181F1E8946F936E7FB0
:1017A0006E5F7F4F8F4F9F4FAF4FB1E03ED0B4E0A1
:1017B0003CD0670F781F891F9A1FA11D680F791FE2
:1017C0008A1F911DA11D6A0F711D811D911DA11DF3
:1017D00020D009F468943F912AE0269F1124301903
:1017E000305D3193DEF6CF010895462F4770405D9E
:1017F0004193B3E00FD0C9F7F6CF462F4F70405D4D
:101800004A3318F0495D31FD4052419302D0A9F7A7
:10181000EACFB4E0A6959795879577956795BA95A1
:10182000C9F700976105710508959B01AC010A2E67
:1018300006945795479537952795BA95C9F7620F3E
:10184000731F841F951FA01D08952F923F924F92E2
:101850005F926F927F928F929F92AF92BF92CF9240
:10186000DF92EF92FF920F931F93CF93DF93CDB749
:10187000DEB7CA1BDB0B0FB6F894DEBF0FBECDBFC1
:1018800009942A88398848885F846E847D848C8492
:101890009B84AA84B984C884DF80EE80FD800C819B
:1018A0001B81AA81B981CE0FD11D0FB6F894DEBF7E
:0C18B0000FBECDBFED010895F894FFCFEE
:1018BC000A5461736B33000A53656D6170686F7203
:1018CC006520332072656C6561736564000A546130
:1018DC00736B32000A53656D6170686F72652032EC
:1018EC002072656C6561736564000A5461736B31B9
:1018FC00000A53656D6170686F72652031207265E6
:10190C006C6561736564000A2000256400010204A3
:10191C0008102040800000010002000100030001BB
:10192C00000200010004000100020001000300019C
:10193C00000200010005000100020001000300018B
:10194C00000200010004000100020001000300017C
:10195C00000200010006000100020001000300016A
:10196C00000200010004000100020001000300015C
:10197C00000200010005000100020001000300014B
:10198C00000200010004000100020001000300013C
:10199C000002000100070001000200010003000129
:1019AC00000200010004000100020001000300011C
:1019BC00000200010005000100020001000300010B
:1019CC0000020001000400010002000100030001FC
:1019DC0000020001000600010002000100030001EA
:1019EC0000020001000400010002000100030001DC
:1019FC0000020001000500010002000100030001CB
:101A0C0000020001000400010002000100030001BB
:061A1C00000200010000C1
:00000001FF
