:100000000C9446000C9463000C9463000C94630001
:100010000C9463000C9463000C9463000C946300D4
:100020000C9463000C9463000C9463000C946300C4
:100030000C9463000C9463000C9463000C946300B4
:100040000C9458080C9463000C9463000C946300A7
:100050000C9463000C9463000C9463000C94630094
:100060000C9463000C9463000C9463000C94630084
:100070000C9463000C9463000C9463000C94630074
:100080000C9463000C9463000C94630011241FBE55
:10009000CFEFD0E1DEBFCDBF12E0A0E0B1E0E0EAFB
:1000A000F7E102C005900D92AE3DB107D9F716E019
:1000B000AEEDB2E001C01D92A339B107E1F70E9495
:1000C000C0000C94CE0B0C9400001092980087E6B0
:1000D00080939900EAE9F0E0808188618083089547
:1000E00080939C0080919B0085FFFCCF08958091B8
:1000F0009B0087FFFCCF80919C000895FC018081CC
:10010000882351F080939C0080919B0085FFFCCF59
:10011000319680818823B1F7089512BE87E083BFAE
:1001200081E087BF089504C08FE090E00E943B0308
:10013000E0E0F1E080818823B9F380939C00809116
:100140009B0085FFFCCF3196F5CF12BE87E083BFC1
:1001500081E087BFE7E6F1E08081882349F485E00C
:1001600090E00E943B03E7E6F1E080818823B9F349
:1001700080939C0080919B0085FFFCCF3196ECCF53
:100180000E94120785EA90E060E070E041EF54E0E1
:1001900024E00E941C0583E990E060E070E04DEDF2
:1001A00053E025E00E941C051092980087E680939A
:1001B000990080919A00886180939A000E9492062B
:1001C000EFECF1E08AE080939C0080919B0085FF3A
:1001D000FCCF319680818823B1F70895CF93DF93C8
:1001E00000D000D000D0EDB7FEB73196CEEDD3E011
:1001F000ADB7BEB71296DC93CE93119722ED31E0E6
:1002000033832283958384830E94F6088091DE03E2
:100210002DB73EB72A5F3F4F0FB6F8943EBF0FBED3
:100220002DBF882359F0FE0180939C0080919B0094
:1002300085FFFCCF319680818823B1F7DF91CF9184
:100240000895FA018083929312921292129212925E
:10025000129212921292129212921292129212927E
:10026000129212921292129212921292129212926E
:1002700012921292129212926293729312921292AC
:10028000129212921292129280E882933197CF01C9
:100290000895089508950895089508950895089576
:1002A000089508958091F304813009F008958091B4
:1002B00011058F3FD9F38F5F8093110508958091C9
:1002C000F304813009F00895F8948091F2048F3F8F
:1002D00019F08F5F8093F204789408958CEF90E08A
:1002E000089508951F93CF93DF93EC01142F398164
:1002F000E32FF0E0E352FE4F2081622F70E0FB011C
:10030000EB52FE4F4081DC01A60FB71F16969C9161
:100310001697E92FF0E0E352FE4F8081E82FF0E0DE
:10032000EB52FE4F5081220F220F220F280F852FF4
:100330008095892316968C93882321F4842F8095A9
:1003400038233983E22FF0E0EE0FFF1FED5EF94F07
:100350000190F081E02D1186108617821682812F80
:100360008095928589238287882359F48091050599
:10037000842B80930505FB01EA5FFA4F8081582B9F
:100380005083822FDF91CF911F910895CF93DF93F8
:10039000EC01A0911205B091130517969C938E93D2
:1003A00016971D968C911D97482F50E01E963C91F4
:1003B0001E97FA01EA5FFA4F832F80959081892377
:1003C00080838823A9F41F962C91922F9095809179
:1003D0000505892380930505FE01E40FF51F86813D
:1003E000832B86838981822B8983DF91CF91089526
:1003F0001F962C91F1CFCF93DF93EC01A0911205C2
:10040000B09113051D968C911D97FE01E80FF11D0B
:100410001E968C911E9780959681892386838823CA
:1004200039F41F969C911F97909589818923898320
:100430001A961C921A9717961C921E921697DF9185
:10044000CF910895FC0111821682178210861186C1
:1004500012861386148615860895CF93DF939C0128
:10046000809111058823E9F4F894C0910E05D0918C
:100470000F05209731F08C819D8190930F0580931B
:100480000E057894209749F083E088833B832A8384
:100490001D821C82CE010E942202CE01DF91CF91EB
:1004A0000895C0E0D0E0CE01DF91CF9108958F3F55
:1004B00089F0F894E82FF0E0EE0FFF1FED5EF94FA2
:1004C0000190F081E02D309769F08EE3808B80E021
:1004D00078940895F894E0911205F09113058089BD
:1004E000789408958BE0789408951F93CF93DF93C9
:1004F000182FF894C0910005D0910105209709F4B8
:1005000055C08A819B819093010580930005789462
:10051000798368831B871A8619861886188AE12FC3
:10052000E695E695E695ED87F0E0EB52FE4F80818B
:100530008F87E12FE770EC87F0E0EB52FE4F808170
:100540008E871F821E82CE010E945101CE010E9421
:100550004901F894E12FF0E0EE0FFF1FED5EF94F37
:10056000D183C083E091FA04F091FB04FB83EA831A
:100570001D821C82309711F0D583C483D093FB0475
:10058000C093FA04809105059F85892B809305050A
:10059000ED85F0E0EA5FFA4F80819E85892B8083AC
:1005A000789480E0DF91CF911F910895789486E44C
:1005B000DF91CF911F910895F8948091F404909168
:1005C000F504A091F604B091F7040196A11DB11DA8
:1005D0008093F4049093F504A093F604B093F70489
:1005E00078940E945001E8CFF894809111058823F7
:1005F00009F03FC08091F2048823D9F5E091050508
:10060000F0E0E352FE4F8081E82FF0E0EA5FFA4F1E
:10061000E081F0E0E352FE4F982F990F990F990F68
:100620008081980F9093F8048091F904981709F14C
:10063000E92FF0E0EE0FFF1FED5EF94F8081918111
:1006400090930405809303058091FC049091FD0430
:10065000A091FE04B091FF040196A11DB11D8093ED
:10066000FC049093FD04A093FE04B093FF040E9449
:10067000C407789408959C01009721F1F894A09103
:100680001205B09113051D96EC911D97F0E0EA5FFD
:10069000FA4F1E968C911E978095908189238083B6
:1006A000882349F41F969C911F979095809105058A
:1006B00089238093050519963C932E931897789477
:1006C0000E94F40208958F929F92AF92BF92CF92B0
:1006D000DF92EF92FF920F931F93CF93DF93882EB9
:1006E000162F942E8823C9F01C3300F58BE389154F
:1006F00090F093E0283E3907D8F083E5DF91CF9161
:100700001F910F91FF90EF90DF90CF90BF90AF902F
:100710009F908F90089582E5F1CF662329F74423B7
:1007200029F72115310529F784E5E8CF81E5E6CFE2
:10073000B90180E090E02DE330E040E050E00E941D
:10074000B50868517E4F8F4F9F4F28EE33E040E051
:1007500050E00E94D40859016A01612F70E080E0E6
:1007600090E02CE330E040E050E00E94B5087B01CF
:100770008C01E90CF11C011D111D682D70E080E059
:1007800090E020E13EE040E050E00E94B508E60E37
:10079000F71E081F191FC801B7012DE330E040E024
:1007A00050E00E94B508A60EB71EC81ED91E7601DD
:1007B00000271127E7018FEF9FEFA0E0B0E0A8220C
:1007C000B922CA22DB22C5010E943B03EF2851F067
:1007D00080E090E80E943B0380E090E80E943B03A9
:1007E0002197B1F780E08ACFF8948F3FB9F1E0917B
:1007F0001205F0911305E385E81771F1E82F20E069
:10080000F0E0EE0FFF1FED5EF94FA081B181109770
:1008100061F11D96EC911D97F0E0EA5FFA4F1E968C
:100820008C911E978095908189238083882349F439
:100830001F969C911F979095809105058923809321
:1008400005051A968C911A9788601A968C9378945D
:10085000213071F080E0089521E0D2CFE0911205BF
:10086000F0911305E38521E0CBCF78948AE50895D4
:100870000E94F40280E00895E82FF894F0E0EE0F73
:10088000FF1FED5EF94FA081B1811097B9F01A9664
:100890008C911A9783FD03C0789485E60895877F2D
:1008A0001A968C931A97882331F418968D919C91FF
:1008B0001997892B31F0789480E00895789484E634
:1008C0000895809105051F969C911F97892B809311
:1008D00005051D96EC911D97F0E0EA5FFA4F8081C7
:1008E0001E969C91892B808378940E94F40280E06C
:1008F00008950F931F93CF93DF93E82F80911105F5
:10090000882309F068C0F894EF3F09F47FC00E2FE8
:1009100010E0000F111FF801ED5EF94FC081D18189
:10092000209709F479C08D85482F50E02E852095B9
:10093000FA01EA5FFA4F808182238083882309F4D9
:1009400054C0AE81BF81109749F0FD01E40FF51F3F
:10095000868182238683882309F44FC019861886EE
:100960001A868091F2048F3F19F08F5F8093F20412
:100970007894F8948823A9F5CE010E944A018091C9
:1009800002058150809302050D5E194FF801118216
:100990001082AC81BD81109709F445C08A819B818A
:1009A00013969C938E931297EA81FB81B583A4835F
:1009B00080910005909101059B838A83D093010566
:1009C000C093000578940E94F40280E0DF91CF91FB
:1009D0001F910F9108958FE3DF91CF911F910F9198
:1009E000089581508093F204C7CF9F8590958091A0
:1009F0000505892380930505A4CF9F8590951196C1
:100A00008C911197892311968C93A8CFE0911205B0
:100A1000F0911305E3857BCF78948CE3DF91CF9140
:100A20001F910F910895EA81FB8115821482F09342
:100A3000FB04E093FA04BCCFAF92BF92CF92DF9257
:100A4000EF92FF920F931F93CF93DF93FC01122F2E
:100A5000F894C22FD0E0CC0FDD1FCD5ED94F888136
:100A60009981892B71F0789418E2812FDF91CF91D1
:100A70001F910F91FF90EF90DF90CF90BF90AF90BC
:100A8000089581E090E0998388837894CF0120E0F5
:100A900030E00E942101BC01812F40E050E020E0C5
:100AA00030E0EE24FF248701CC24DD24AA24BB24DB
:100AB0000E947502182F882371F4F8948091020522
:100AC0008F5F8093020578948091F304813069F6FA
:100AD0000E94F402CACFF894198218827894C5CF84
:100AE000FC01F8948181882379F4828193812FEF2E
:100AF0008F3F920731F0019693838283789480E050
:100B00000895789482E30895CF0160E070E041E0B9
:100B10000E94720178940E94F40280E008950F937D
:100B20001F93CF93DF93EC018A01809111058823F5
:100B300009F075C0F8948A819B81009709F064C020
:100B4000A0911205B09113051A968C911A978160A5
:100B50001A968C931A9719967C936E9318971796FA
:100B6000DC93CE9316971D968C911D97482F50E0DD
:100B70001E963C911E97FA01EA5FFA4F832F8095EB
:100B8000908189238083882309F451C01F962C917A
:100B9000FE01E40FF51F8681832B86838981822BDA
:100BA000898378940E94F402F894A0911205B09180
:100BB00013051A968C911A9780FF43C01D968C914D
:100BC0001D97FE01E80FF11D1E968C911E978095D2
:100BD000968189238683882339F41F969C911F97D9
:100BE00090958981892389831A961C921A97179662
:100BF0001C921E92169778948AE0F8018083DF9108
:100C0000CF911F910F91089501979B838A837894C8
:100C1000FA011082DF91CF911F910F91089582E028
:100C2000FA018083DF91CF911F910F9108951F9654
:100C30002C91922F9095809105058923809305052D
:100C4000A7CF17961C921E9216977894F8011082DF
:100C5000DF91CF911F910F9108958091F30481301E
:100C600009F00895F8948091F204882359F0815096
:100C70008093F204882321F480911105882321F0C8
:100C8000789408957894089578940E94F4020895D1
:100C90000E944D018091F304813009F00895A091E4
:100CA000FA04B091FB041B968C911B978F33B1F320
:100CB0002091050541E050E01AC01F968C911F97C6
:100CC000282B1D96EC911D97F0E0EA5FFA4F80818A
:100CD0001E969C911E97892B808312960D90BC9135
:100CE000A02D78941B968C911B978F33C1F0F894AC
:100CF00018968D919C911997009779F30197199601
:100D00009C938E931897892B41F71A968C911A977A
:100D100083FFD3CF19965C934E931897DECF209321
:100D2000050508958091F30481110895E09105056A
:100D3000F0E0E352FE4FA081EA2FF0E0EA5FFA4FC5
:100D4000E081F0E0E352FE4FAA0FAA0FAA0F8081C4
:100D5000A80FA093F804A093F904B0E0AA0FBB1F5A
:100D6000AD5EB94F8D919C919093040580930305DE
:100D700090931305809312050E9492070895809125
:100D8000F304813009F00895F894809111058823C7
:100D900039F0815080931105882311F078940895DB
:100DA0008091F2048823D1F7E0910505F0E0E35249
:100DB000FE4F808180931005E82FF0E0EA5FFA4F44
:100DC000E081F0E0E352FE4F982F990F990F990FB1
:100DD0008081980F9093F8048091F9049817F1F2AC
:100DE000E92FF0E0EE0FFF1FED5EF94F808191815A
:100DF00090930405809303058091FC049091FD0479
:100E0000A091FE04B091FF040196A11DB11D809335
:100E1000FC049093FD04A093FE04B093FF040E9491
:100E20002308BCCF0E944E01109211051092F204CB
:100E3000109202051092F3041092FC041092FD042B
:100E40001092FE041092FF041092F4041092F50424
:100E50001092F6041092F70410920505E6E0F5E012
:100E6000119285E0EE30F807D9F71092F90410924C
:100E7000F8041092040510920305109213051092C5
:100E800012051092FB041092FA04E3E1F6E01192CD
:100E9000119286E0E339F807D1F78FEC95E0909353
:100EA000C1058093C00541969093D2058093D105EA
:100EB00041969093E3058093E20541969093F40563
:100EC0008093F30510920506109204068454904016
:100ED00090930105809300051092940582EA95E0B5
:100EE00090939905809398051092A2050E96909381
:100EF000A7058093A6054C971092B0051092B505F2
:100F00001092B40590930F0580930E058CED92E03E
:100F100060E070E043E955E02FE30E941C050E9469
:100F20004F0108950E944B010091F3040395009333
:100F3000F304E0910305F0910405C191CDBFD19177
:100F4000DEBF0F910FBFFF91EF91DF91CF91BF9166
:100F5000AF919F918F917F916F915F914F913F9151
:100F60002F911F910F91FF90EF90DF90CF90BF9046
:100F7000AF909F908F907F906F905F904F903F9039
:100F80002F901F900F9008950F921F922F923F92D3
:100F90004F925F926F927F928F929F92AF92BF9289
:100FA000CF92DF92EF92FF920F931F932F933F9375
:100FB0004F935F936F937F938F939F93AF93BF9361
:100FC000CF93DF93EF93FF930FB70F93E091120549
:100FD000F0911305CDB7C193DEB7D1930E944B01B9
:100FE0000091F8040093F904E0910305F0910405E1
:100FF000E0931205F0931305C191CDBFD191DEBFEF
:101000000F910FBFFF91EF91DF91CF91BF91AF9102
:101010009F918F917F916F915F914F913F912F9110
:101020001F910F91FF90EF90DF90CF90BF90AF9006
:101030009F908F907F906F905F904F903F902F90F8
:101040001F900F9008950E944B010091F8040093A7
:10105000F904E0910305F0910405E0931205F09383
:101060001305C191CDBFD191DEBF0F910FBFFF918D
:10107000EF91DF91CF91BF91AF919F918F917F9130
:101080006F915F914F913F912F911F910F91FF9021
:10109000EF90DF90CF90BF90AF909F908F907F9018
:1010A0006F905F904F903F902F901F900F900895FA
:1010B0000F921F922F923F924F925F926F927F9268
:1010C0008F929F92AF92BF92CF92DF92EF92FF9258
:1010D0000F931F932F933F934F935F936F937F9340
:1010E0008F939F93AF93BF93CF93DF93EF93FF9330
:1010F0000FB700680F930091110503950093110538
:10110000013041F4CDB7DEB7E0911205F09113053F
:10111000C193D19300E002BF78940E94480600007A
:101120000E94BF060F910FBFFF91EF91DF91CF910A
:10113000BF91AF919F918F917F916F915F914F91EF
:101140003F912F911F910F91FF90EF90DF90CF90E3
:10115000BF90AF909F908F907F906F905F904F90D7
:101160003F902F901F900F900895629FD001739F22
:10117000F001829FE00DF11D649FE00DF11D929F33
:10118000F00D839FF00D749FF00D659FF00D992772
:10119000729FB00DE11DF91F639FB00DE11DF91F96
:1011A000BD01CF0111240895A1E21A2EAA1BBB1B79
:1011B000FD010DC0AA1FBB1FEE1FFF1FA217B30723
:1011C000E407F50720F0A21BB30BE40BF50B661F39
:1011D000771F881F991F1A9469F7609570958095FD
:1011E00090959B01AC01BD01CF010895AEE0B0E048
:1011F000ECEFF8E00C94A50B0D891E8986E08C833A
:101200001A8309838FEF9FE79E838D839E01275E5C
:101210003F4FCE0101966F89788DA9010E941A096E
:101220002F813885020F131FF80110822E96E4E0FB
:101230000C94C10BABE0B0E0E0E2F9E00C94970B4A
:101240003C012B015A01FC0117821682838181FD2A
:1012500003C06FEF7FEFC6C19AE0892E1E0108948C
:10126000211C311CF3012381F20123FD859123FF11
:1012700081912F01882309F4B2C1853239F423FD0D
:10128000859123FF81912F01853229F490E0B301EC
:101290000E940D0BE7CF982FFF24EE249924FFE145
:1012A000FF15D0F09B3269F09C3228F4903259F04F
:1012B000933291F40EC09D3249F0903369F441E0CD
:1012C00024C052E0F52A84E0F82A28C098E0F92AE0
:1012D00025C0E0E1FE2A22C0F7FC29C0892F8053F7
:1012E0008A3070F4F6FE05C0989C902C1124980E5C
:1012F00015C0E89CE02C1124E80EF0E2FF2A0EC095
:101300009E3229F4F6FC6BC140E4F42A07C09C36F7
:1013100019F450E8F52A02C0983649F4F20123FD89
:10132000959123FF91912F01992309F0B8CF892F2F
:101330008554833018F08052833038F444E050E014
:10134000A40EB51E5FE359830FC0933631F0933777
:1013500079F0933509F056C020C0F501808189836A
:1013600042E050E0A40EB51E610101E010E012C0A1
:10137000F501C080D180F6FC03C06FEF7FEF02C0A3
:10138000692D70E042E050E0A40EB51EC6010E9437
:10139000020B8C015FE7F52214C0F501C080D180FB
:1013A000F6FC03C06FEF7FEF02C0692D70E042E0F2
:1013B00050E0A40EB51EC6010E94F70A8C0150E849
:1013C000F52AF3FE07C01AC080E290E0B3010E9444
:1013D0000D0BEA948E2D90E008171907A8F30EC0A4
:1013E000F601F7FC8591F7FE81916F0190E0B30162
:1013F0000E940D0BE110EA940150104001151105F7
:1014000079F7EAC0943611F0993669F5F7FE08C00D
:10141000F501208131814281538184E090E00AC04E
:10142000F501808191819C01442737FD4095542F1F
:1014300082E090E0A80EB91E9FE6F92257FF09C08E
:1014400050954095309521953F4F4F4F5F4FE0E8C5
:10145000FE2ACA01B901A1012AE030E00E94390B3D
:10146000D82ED21840C0953729F41F2D1F7E2AE0B0
:1014700030E01DC01F2D197F9F3661F0903720F49A
:10148000983509F0ACC00FC0903739F0983709F0A3
:10149000A6C004C028E030E00AC0106114FD14604A
:1014A00020E130E004C014FD166020E132E017FFB7
:1014B00008C0F501608171818281938144E050E030
:1014C00008C0F50180819181BC0180E090E042E09C
:1014D00050E0A40EB51EA1010E94390BD82ED218DF
:1014E0008FE7F82EF122F6FE0BC05EEFF522D9143D
:1014F00038F4F4FE07C0F2FC05C08FEEF82202C0FB
:101500001D2D01C0192DF4FE0DC0FE01ED0DF11DC4
:101510008081803319F499EEF92208C01F5FF2FE32
:1015200005C003C08F2D867809F01F5F0F2DF3FCD7
:1015300014C0F0FE0FC01E1510F09D2C0BC09D2C8A
:101540009E0C911A1E2D06C080E290E0B3010E940D
:101550000D0B1F5F1E15C0F304C01E1510F4E11A19
:1015600001C0EE2404FF0FC080E390E0B3010E94AD
:101570000D0B02FF1DC001FD03C088E790E00EC007
:1015800088E590E00BC0802F867891F001FF02C0C3
:101590008BE201C080E2F7FC8DE290E0B3010E9493
:1015A0000D0B06C080E390E0B3010E940D0B9A94EE
:1015B000D914C0F3DA94F101ED0DF11D808190E0B2
:1015C000B3010E940D0BDD20A9F706C080E290E078
:1015D000B3010E940D0BEA94EE20C1F743CEF30154
:1015E00066817781CB012B96E2E10C94B30BFC0171
:1015F0000590615070400110D8F7809590958E0F3E
:101600009F1F0895FC016150704001900110D8F7B0
:10161000809590958E0F9F1F08950F931F93CF93E2
:10162000DF938C01EB018B8181FF1BC082FF0DC01A
:101630002E813F818C819D812817390764F4E881D0
:10164000F9810193F983E88306C0E885F985802F45
:101650000995892B31F48E819F8101969F838E831A
:1016600002C00FEF1FEFC801DF91CF911F910F91C3
:101670000895FA01AA27283051F1203181F1E89428
:101680006F936E7F6E5F7F4F8F4F9F4FAF4FB1E075
:101690003ED0B4E03CD0670F781F891F9A1FA11D70
:1016A000680F791F8A1F911DA11D6A0F711D811D71
:1016B000911DA11D20D009F468943F912AE0269F36
:1016C00011243019305D3193DEF6CF010895462F95
:1016D0004770405D4193B3E00FD0C9F7F6CF462F76
:1016E0004F70405D4A3318F0495D31FD40524193DF
:1016F00002D0A9F7EACFB4E0A6959795879577959C
:101700006795BA95C9F700976105710508959B0122
:10171000AC010A2E06945795479537952795BA95AB
:10172000C9F7620F731F841F951FA01D08952F9284
:101730003F924F925F926F927F928F929F92AF9261
:10174000BF92CF92DF92EF92FF920F931F93CF93AE
:10175000DF93CDB7DEB7CA1BDB0B0FB6F894DEBF45
:101760000FBECDBF09942A88398848885F846E846B
:101770007D848C849B84AA84B984C884DF80EE80B5
:10178000FD800C811B81AA81B981CE0FD11D0FB6BE
:10179000F894DEBF0FBECDBFED010895F894FFCFE2
:1017A0000A62626262626262626262626262626271
:1017B0006262626262626262626262626262626209
:1017C00062626262626262626262626262626262F9
:1017D00062626262626262626262626262626262E9
:1017E00062626262626262626262626262626262D9
:1017F00062626262626262626262626262626262C9
:10180000626262626262000A61616161616161617A
:1018100061616161616161616161616161616161B8
:1018200061616161616161616161616161616161A8
:101830006161616161616161616161616161616198
:101840006161616161616161616161616161616188
:101850006161616161616161616161616161616178
:101860006161616161616161616161616161000A20
:1018700020002564000102040810204080000001BF
:101880000002000100030001000200010004000149
:101890000002000100030001000200010005000138
:1018A0000002000100030001000200010004000129
:1018B0000002000100030001000200010006000117
:1018C0000002000100030001000200010004000109
:1018D00000020001000300010002000100050001F8
:1018E00000020001000300010002000100040001E9
:1018F00000020001000300010002000100070001D6
:1019000000020001000300010002000100040001C8
:1019100000020001000300010002000100050001B7
:1019200000020001000300010002000100040001A8
:101930000002000100030001000200010006000196
:101940000002000100030001000200010004000188
:101950000002000100030001000200010005000177
:101960000002000100030001000200010004000168
:0E19700000020001000300010002000100005F
:00000001FF
