:100000000C9446000C9463000C9463000C94630001
:100010000C9463000C9463000C9463000C946300D4
:100020000C9463000C9463000C9463000C946300C4
:100030000C9463000C9463000C9463000C946300B4
:100040000C9426080C9463000C9463000C946300D9
:100050000C9463000C9463000C9463000C94630094
:100060000C9463000C9463000C9463000C94630084
:100070000C9463000C9463000C9463000C94630074
:100080000C9463000C9463000C94630011241FBE55
:10009000CFEFD0E1DEBFCDBF12E0A0E0B1E0ECE3F6
:1000A000F7E102C005900D92AC30B107D9F714E02A
:1000B000ACE0B2E001C01D92A03BB107E1F70E94A5
:1000C000A2000C949C0B0C9400001092980087E600
:1000D00080939900EAE9F0E0808188618083089547
:1000E00080939C0080919B0085FFFCCF08958091B8
:1000F0009B0087FFFCCF80919C000895FC018081CC
:10010000882351F080939C0080919B0085FFFCCF59
:10011000319680818823B1F7089512BE87E083BFAE
:1001200081E087BF089512BE87E083BF81E087BF6B
:100130008FEF869903C015BA869BFDCF8799F9CFBB
:1001400085BBF7CF0E94E60683E990E060E070E0AF
:100150004FE153E024E00E94F0041092980087E6FB
:1001600080939900EAE9F0E08081886180838FEFD5
:1001700084BB81B38F7381BB82B3806C82BB0E94CE
:1001800066060895CF93DF9300D000D000D0EDB77E
:10019000FEB73196CCE0D2E0ADB7BEB71296DC9395
:1001A000CE93119720E031E03383228395838483BB
:1001B0000E94C40880910C022DB73EB72A5F3F4FC2
:1001C0000FB6F8943EBF0FBE2DBF882359F0FE0135
:1001D00080939C0080919B0085FFFCCF31968081AD
:1001E0008823B1F7DF91CF910895FA01808392932C
:1001F00012921292129212921292129212921292DF
:1002000012921292129212921292129212921292CE
:1002100012921292129212921292129212921292BE
:1002200062937293129212921292129212921292FC
:1002300080E882933197CF01089508950895089535
:1002400008950895089508950895089580912103CB
:10025000813009F0089580913F038F3FD9F38F5F7C
:1002600080933F03089580912103813009F0089520
:10027000F894809120038F3F19F08F5F80932003C3
:10028000789408958CEF90E0089508951F93CF938C
:10029000DF93EC01142F3981E32FF0E0E55FFE4F8F
:1002A0002081622F70E0FB01ED5FFE4F4081DC0199
:1002B000A60FB71F16969C911697E92FF0E0E55F01
:1002C000FE4F8081E82FF0E0ED5FFE4F5081220F5E
:1002D000220F220F280F852F8095892316968C9345
:1002E000882321F4842F809538233983E22FF0E08E
:1002F000EE0FFF1FE05DFB4F0190F081E02D1186B6
:10030000108617821682812F809592858923828795
:10031000882359F480913303842B80933303FB01AA
:10032000EC5CFC4F8081582B5083822FDF91CF9162
:100330001F910895CF93DF93EC01A0914003B091FA
:10034000410317969C938E9316971D968C911D973B
:10035000482F50E01E963C911E97FA01EC5CFC4F32
:10036000832F80959081892380838823A9F41F9609
:100370002C91922F9095809133038923809333039E
:10038000FE01E40FF51F8681832B86838981822BF2
:100390008983DF91CF9108951F962C91F1CFCF9350
:1003A000DF93EC01A0914003B09141031D968C9125
:1003B0001D97FE01E80FF11D1E968C911E978095EA
:1003C000968189238683882339F41F969C911F97F1
:1003D00090958981892389831A961C921A9717967A
:1003E0001C921E921697DF91CF910895FC01118205
:1003F0001682178210861186128613861486158639
:100400000895CF93DF939C0180913F038823E9F403
:10041000F894C0913C03D0913D03209731F08C813A
:100420009D8190933D0380933C037894209749F0FD
:1004300083E088833B832A831D821C82CE010E9435
:10044000F601CE01DF91CF910895C0E0D0E0CE015A
:10045000DF91CF9108958F3F89F0F894E82FF0E075
:10046000EE0FFF1FE05DFB4F0190F081E02D309714
:1004700069F08EE3808B80E078940895F894E091A1
:100480004003F09141038089789408958BE078943B
:1004900008951F93CF93DF93182FF894C0912E03E4
:1004A000D0912F03209709F455C08A819B819093A6
:1004B0002F0380932E037894798368831B871A8691
:1004C00019861886188AE12FE695E695E695ED8758
:1004D000F0E0ED5FFE4F80818F87E12FE770EC87C2
:1004E000F0E0ED5FFE4F80818E871F821E82CE017D
:1004F0000E942501CE010E941D01F894E12FF0E039
:10050000EE0FFF1FE05DFB4FD183C083E091280316
:10051000F0912903FB83EA831D821C82309711F03E
:10052000D583C483D0932903C093280380913303D8
:100530009F85892B80933303ED85F0E0EC5CFC4FC5
:1005400080819E85892B8083789480E0DF91CF9194
:100550001F910895789486E4DF91CF911F910895BB
:10056000F8948091220390912303A0912403B091E9
:1005700025030196A11DB11D8093220390932303AF
:10058000A0932403B093250378940E942401E8CF1C
:10059000F89480913F03882309F03FC080912003A5
:1005A0008823D9F5E0913303F0E0E55FFE4F8081C9
:1005B000E82FF0E0EC5CFC4FE081F0E0E55FFE4FFF
:1005C000982F990F990F990F8081980F9093260378
:1005D00080912703981709F1E92FF0E0EE0FFF1F34
:1005E000E05DFB4F808191819093320380933103D2
:1005F00080912A0390912B03A0912C03B0912D039D
:100600000196A11DB11D80932A0390932B03A09303
:100610002C03B0932D030E949207789408959C01B7
:10062000009721F1F894A0914003B09141031D96E9
:10063000EC911D97F0E0EC5CFC4F1E968C911E97A0
:100640008095908189238083882349F41F969C910B
:100650001F979095809133038923809333031996D4
:100660003C932E93189778940E94C80208958F9215
:100670009F92AF92BF92CF92DF92EF92FF920F9331
:100680001F93CF93DF93882E162F942E8823C9F0C3
:100690001C3300F58BE3891590F093E0283E390771
:1006A000D8F083E5DF91CF911F910F91FF90EF90EC
:1006B000DF90CF90BF90AF909F908F90089582E58C
:1006C000F1CF662329F7442329F72115310529F7AE
:1006D00084E5E8CF81E5E6CFB90180E090E02DE345
:1006E00030E040E050E00E94830868517E4F8F4F19
:1006F0009F4F28EE33E040E050E00E94A2085901ED
:100700006A01612F70E080E090E02CE330E040E08F
:1007100050E00E9483087B018C01E90CF11C011D53
:10072000111D682D70E080E090E020E13EE040E0A7
:1007300050E00E948308E60EF71E081F191FC8012B
:10074000B7012DE330E040E050E00E948308A60EA0
:10075000B71EC81ED91E760100271127E7018FEFAB
:100760009FEFA0E0B0E0A822B922CA22DB22C50197
:100770000E940F03EF2851F080E090E80E940F03E1
:1007800080E090E80E940F032197B1F780E08ACFC4
:10079000F8948F3FB9F1E0914003F0914103E38574
:1007A000E81771F1E82F20E0F0E0EE0FFF1FE05DA9
:1007B000FB4FA081B181109761F11D96EC911D97BF
:1007C000F0E0EC5CFC4F1E968C911E97809590811A
:1007D00089238083882349F41F969C911F979095C5
:1007E000809133038923809333031A968C911A974F
:1007F00088601A968C937894213071F080E0089587
:1008000021E0D2CFE0914003F0914103E38521E064
:10081000CBCF78948AE508950E94C80280E00895BD
:10082000E82FF894F0E0EE0FFF1FE05DFB4FA08192
:10083000B1811097B9F01A968C911A9783FD03C075
:10084000789485E60895877F1A968C931A97882363
:1008500031F418968D919C911997892B31F07894E9
:1008600080E00895789484E60895809133031F967C
:100870009C911F97892B809333031D96EC911D97B4
:10088000F0E0EC5CFC4F80811E969C91892B80836C
:1008900078940E94C80280E008950F931F93CF932D
:1008A000DF93E82F80913F03882309F068C0F89414
:1008B000EF3F09F47FC00E2F10E0000F111FF80169
:1008C000E05DFB4FC081D181209709F479C08D850F
:1008D000482F50E02E852095FA01EC5CFC4F80817A
:1008E00082238083882309F454C0AE81BF8110978E
:1008F00049F0FD01E40FF51F86818223868388235A
:1009000009F44FC0198618861A86809120038F3FFC
:1009100019F08F5F809320037894F8948823A9F5C9
:10092000CE010E941E0180913003815080933003DC
:10093000005D1B4FF80111821082AC81BD811097C0
:1009400009F445C08A819B8113969C938E931297DC
:10095000EA81FB81B583A48380912E0390912F03BC
:100960009B838A83D0932F03C0932E0378940E9495
:10097000C80280E0DF91CF911F910F9108958FE31E
:10098000DF91CF911F910F910895815080932003A3
:10099000C7CF9F859095809133038923809333033C
:1009A000A4CF9F85909511968C91119789231196CC
:1009B0008C93A8CFE0914003F0914103E3857BCF76
:1009C00078948CE3DF91CF911F910F910895EA8184
:1009D000FB8115821482F0932903E0932803BCCF96
:1009E000AF92BF92CF92DF92EF92FF920F931F933D
:1009F000CF93DF93FC01122FF894C22FD0E0CC0FDD
:100A0000DD1FC05DDB4F88819981892B71F078945F
:100A100018E2812FDF91CF911F910F91FF90EF90FE
:100A2000DF90CF90BF90AF90089581E090E09983E0
:100A300088837894CF0120E030E00E94F500BC016B
:100A4000812F40E050E020E030E0EE24FF248701D9
:100A5000CC24DD24AA24BB240E944902182F882319
:100A600071F4F894809130038F5F80933003789411
:100A700080912103813069F60E94C802CACFF894A0
:100A8000198218827894C5CFFC01F894818188235B
:100A900079F4828193812FEF8F3F920731F0019695
:100AA00093838283789480E00895789482E3089514
:100AB000CF0160E070E041E00E94460178940E941E
:100AC000C80280E008950F931F93CF93DF93EC014A
:100AD0008A0180913F03882309F075C0F8948A81C8
:100AE0009B81009709F064C0A0914003B09141033D
:100AF0001A968C911A9781601A968C931A97199668
:100B00007C936E9318971796DC93CE9316971D9649
:100B10008C911D97482F50E01E963C911E97FA012C
:100B2000EC5CFC4F832F8095908189238083882300
:100B300009F451C01F962C91FE01E40FF51F868128
:100B4000832B86838981822B898378940E94C802B3
:100B5000F894A0914003B09141031A968C911A9792
:100B600080FF43C01D968C911D97FE01E80FF11D7B
:100B70001E968C911E978095968189238683882363
:100B800039F41F969C911F979095898189238983B9
:100B90001A961C921A9717961C921E921697789482
:100BA0008AE0F8018083DF91CF911F910F91089522
:100BB00001979B838A837894FA011082DF91CF9109
:100BC0001F910F91089582E0FA018083DF91CF9108
:100BD0001F910F9108951F962C91922F90958091BF
:100BE0003303892380933303A7CF17961C921E9259
:100BF00016977894F8011082DF91CF911F910F9191
:100C0000089580912103813009F00895F89480912E
:100C10002003882359F0815080932003882321F4F6
:100C200080913F03882321F0789408957894089563
:100C300078940E94C80208950E94210180912103A6
:100C4000813009F00895A0912803B09129031B96E3
:100C50008C911B978F33B1F32091330341E050E027
:100C60001AC01F968C911F97282B1D96EC911D97EB
:100C7000F0E0EC5CFC4F80811E969C911E97892BC6
:100C8000808312960D90BC91A02D78941B968C9128
:100C90001B978F33C1F0F89418968D919C911997FA
:100CA000009779F3019719969C938E931897892B47
:100CB00041F71A968C911A9783FFD3CF19965C93BC
:100CC0004E931897DECF209333030895809121032C
:100CD00081110895E0913303F0E0E55FFE4FA081BC
:100CE000EA2FF0E0EC5CFC4FE081F0E0E55FFE4FC6
:100CF000AA0FAA0FAA0F8081A80FA0932603A09382
:100D00002703B0E0AA0FBB1FA05DBB4F8D919C9144
:100D10009093320380933103909341038093400377
:100D20000E946007089580912103813009F00895A1
:100D3000F89480913F03882339F0815080933F03DA
:100D4000882311F078940895809120038823D1F7A7
:100D5000E0913303F0E0E55FFE4F808180933E0336
:100D6000E82FF0E0EC5CFC4FE081F0E0E55FFE4F47
:100D7000982F990F990F990F8081980F90932603C0
:100D8000809127039817F1F2E92FF0E0EE0FFF1F93
:100D9000E05DFB4F8081918190933203809331031A
:100DA00080912A0390912B03A0912C03B0912D03E5
:100DB0000196A11DB11D80932A0390932B03A0934C
:100DC0002C03B0932D030E94F107BCCF0E94220197
:100DD00010923F03109220031092300310922103CF
:100DE00010922A0310922B0310922C0310922D03C1
:100DF00010922203109223031092240310922503D1
:100E000010923303E4E3F3E0119283E0EC33F8074C
:100E1000D9F71092270310922603109232031092F2
:100E20003103109241031092400310922903109253
:100E30002803E0E3F4E01192119284E0E03BF8072C
:100E4000D1F78DEF93E09093EF038093EE034196FB
:100E5000909300048093FF03419690931104809334
:100E600010041092220410922104C39790932F0330
:100E700080932E031092C20380ED93E09093C703FA
:100E80008093C6031092D0030E969093D50380935F
:100E9000D4034C971092DE031092E3031092E20306
:100EA00090933D0380933C0380EB92E060E070E020
:100EB00041EC53E02FE30E94F0040E9423010895C7
:100EC0000E941F0100912103039500932103E091EB
:100ED0003103F0913203C191CDBFD191DEBF0F91AB
:100EE0000FBFFF91EF91DF91CF91BF91AF919F9194
:100EF0008F917F916F915F914F913F912F911F91B2
:100F00000F91FF90EF90DF90CF90BF90AF909F90A8
:100F10008F907F906F905F904F903F902F901F9099
:100F20000F9008950F921F922F923F924F925F92CF
:100F30006F927F928F929F92AF92BF92CF92DF92E9
:100F4000EF92FF920F931F932F933F934F935F93D3
:100F50006F937F938F939F93AF93BF93CF93DF93C1
:100F6000EF93FF930FB70F93E0914003F09141038C
:100F7000CDB7C193DEB7D1930E941F010091260324
:100F800000932703E0913103F0913203E093400393
:100F9000F0934103C191CDBFD191DEBF0F910FBF3F
:100FA000FF91EF91DF91CF91BF91AF919F918F9181
:100FB0007F916F915F914F913F912F911F910F9171
:100FC000FF90EF90DF90CF90BF90AF909F908F9069
:100FD0007F906F905F904F903F902F901F900F9059
:100FE00008950E941F010091260300932703E091BA
:100FF0003103F0913203E0934003F0934103C19138
:10100000CDBFD191DEBF0F910FBFFF91EF91DF9167
:10101000CF91BF91AF919F918F917F916F915F9190
:101020004F913F912F911F910F91FF90EF90DF9083
:10103000CF90BF90AF909F908F907F906F905F9078
:101040004F903F902F901F900F9008950F921F92F6
:101050002F923F924F925F926F927F928F929F92C8
:10106000AF92BF92CF92DF92EF92FF920F931F93B6
:101070002F933F934F935F936F937F938F939F93A0
:10108000AF93BF93CF93DF93EF93FF930FB70068B6
:101090000F9300913F03039500933F03013041F408
:1010A000CDB7DEB7E0914003F0914103C193D193F6
:1010B00000E002BF78940E941C0600000E94930684
:1010C0000F910FBFFF91EF91DF91CF91BF91AF9142
:1010D0009F918F917F916F915F914F913F912F9150
:1010E0001F910F91FF90EF90DF90CF90BF90AF9046
:1010F0009F908F907F906F905F904F903F902F9038
:101100001F900F900895629FD001739FF001829FFE
:10111000E00DF11D649FE00DF11D929FF00D839F86
:10112000F00D749FF00D659FF00D9927729FB00D23
:10113000E11DF91F639FB00DE11DF91FBD01CF0136
:1011400011240895A1E21A2EAA1BBB1BFD010DC09C
:10115000AA1FBB1FEE1FFF1FA217B307E407F50767
:1011600020F0A21BB30BE40BF50B661F771F881F43
:10117000991F1A9469F760957095809590959B01D9
:10118000AC01BD01CF010895AEE0B0E0EAECF8E0BB
:101190000C94730B0D891E8986E08C831A83098356
:1011A0008FEF9FE79E838D839E01275E3F4FCE0189
:1011B00001966F89788DA9010E94E8082F813885F2
:1011C000020F131FF80110822E96E4E00C948F0B8F
:1011D000ABE0B0E0EEEEF8E00C94650B3C012B01C7
:1011E0005A01FC0117821682838181FD03C06FEFD3
:1011F0007FEFC6C19AE0892E1E010894211C311C84
:10120000F3012381F20123FD859123FF81912F01B9
:10121000882309F4B2C1853239F423FD859123FF77
:1012200081912F01853229F490E0B3010E94DB0AFD
:10123000E7CF982FFF24EE249924FFE1FF15D0F08B
:101240009B3269F09C3228F4903259F0933291F439
:101250000EC09D3249F0903369F441E024C052E061
:10126000F52A84E0F82A28C098E0F92A25C0E0E1B0
:10127000FE2A22C0F7FC29C0892F80538A3070F4DF
:10128000F6FE05C0989C902C1124980E15C0E89C81
:10129000E02C1124E80EF0E2FF2A0EC09E3229F461
:1012A000F6FC6BC140E4F42A07C09C3619F450E800
:1012B000F52A02C0983649F4F20123FD959123FFE7
:1012C00091912F01992309F0B8CF892F855483304C
:1012D00018F08052833038F444E050E0A40EB51E7C
:1012E0005FE359830FC0933631F0933779F093352C
:1012F00009F056C020C0F5018081898342E050E0AA
:10130000A40EB51E610101E010E012C0F501C0801D
:10131000D180F6FC03C06FEF7FEF02C0692D70E053
:1013200042E050E0A40EB51EC6010E94D00A8C0116
:101330005FE7F52214C0F501C080D180F6FC03C040
:101340006FEF7FEF02C0692D70E042E050E0A40E25
:10135000B51EC6010E94C50A8C0150E8F52AF3FEAD
:1013600007C01AC080E290E0B3010E94DB0AEA9451
:101370008E2D90E008171907A8F30EC0F601F7FCB0
:101380008591F7FE81916F0190E0B3010E94DB0A25
:10139000E110EA94015010400115110579F7EAC0F7
:1013A000943611F0993669F5F7FE08C0F5012081F1
:1013B00031814281538184E090E00AC0F50180814F
:1013C00091819C01442737FD4095542F82E090E0A5
:1013D000A80EB91E9FE6F92257FF09C05095409507
:1013E000309521953F4F4F4F5F4FE0E8FE2ACA01ED
:1013F000B901A1012AE030E00E94070BD82ED218D3
:1014000040C0953729F41F2D1F7E2AE030E01DC013
:101410001F2D197F9F3661F0903720F4983509F021
:10142000ACC00FC0903739F0983709F0A6C004C09F
:1014300028E030E00AC0106114FD146020E130E0C3
:1014400004C014FD166020E132E017FF08C0F5016A
:10145000608171818281938144E050E008C0F50190
:1014600080819181BC0180E090E042E050E0A40ED8
:10147000B51EA1010E94070BD82ED2188FE7F82EB7
:10148000F122F6FE0BC05EEFF522D91438F4F4FE1B
:1014900007C0F2FC05C08FEEF82202C01D2D01C06E
:1014A000192DF4FE0DC0FE01ED0DF11D808180337C
:1014B00019F499EEF92208C01F5FF2FE05C003C0BF
:1014C0008F2D867809F01F5F0F2DF3FC14C0F0FEFE
:1014D0000FC01E1510F09D2C0BC09D2C9E0C911A58
:1014E0001E2D06C080E290E0B3010E94DB0A1F5F60
:1014F0001E15C0F304C01E1510F4E11A01C0EE243D
:1015000004FF0FC080E390E0B3010E94DB0A02FFFA
:101510001DC001FD03C088E790E00EC088E590E0A3
:101520000BC0802F867891F001FF02C08BE201C0D2
:1015300080E2F7FC8DE290E0B3010E94DB0A06C076
:1015400080E390E0B3010E94DB0A9A94D914C0F3BF
:10155000DA94F101ED0DF11D808190E0B3010E945C
:10156000DB0ADD20A9F706C080E290E0B3010E940B
:10157000DB0AEA94EE20C1F743CEF301668177815E
:10158000CB012B96E2E10C94810BFC01059061509C
:1015900070400110D8F7809590958E0F9F1F089589
:1015A000FC016150704001900110D8F78095909532
:1015B0008E0F9F1F08950F931F93CF93DF938C017E
:1015C000EB018B8181FF1BC082FF0DC02E813F810B
:1015D0008C819D812817390764F4E881F981019392
:1015E000F983E88306C0E885F985802F0995892B62
:1015F00031F48E819F8101969F838E8302C00FEF0D
:101600001FEFC801DF91CF911F910F910895FA014B
:10161000AA27283051F1203181F1E8946F936E7F31
:101620006E5F7F4F8F4F9F4FAF4FB1E03ED0B4E022
:101630003CD0670F781F891F9A1FA11D680F791F63
:101640008A1F911DA11D6A0F711D811D911DA11D74
:1016500020D009F468943F912AE0269F1124301984
:10166000305D3193DEF6CF010895462F4770405D1F
:101670004193B3E00FD0C9F7F6CF462F4F70405DCE
:101680004A3318F0495D31FD4052419302D0A9F729
:10169000EACFB4E0A6959795879577956795BA9523
:1016A000C9F700976105710508959B01AC010A2EE9
:1016B00006945795479537952795BA95C9F7620FC0
:1016C000731F841F951FA01D08952F923F924F9264
:1016D0005F926F927F928F929F92AF92BF92CF92C2
:1016E000DF92EF92FF920F931F93CF93DF93CDB7CB
:1016F000DEB7CA1BDB0B0FB6F894DEBF0FBECDBF43
:1017000009942A88398848885F846E847D848C8413
:101710009B84AA84B984C884DF80EE80FD800C811C
:101720001B81AA81B981CE0FD11D0FB6F894DEBFFF
:0C1730000FBECDBFED010895F894FFCF6F
:10173C002564000102040810204080000001000212
:10174C00000100030001000200010004000100027E
:10175C00000100030001000200010005000100026D
:10176C00000100030001000200010004000100025E
:10177C00000100030001000200010006000100024C
:10178C00000100030001000200010004000100023E
:10179C00000100030001000200010005000100022D
:1017AC00000100030001000200010004000100021E
:1017BC00000100030001000200010007000100020B
:1017CC0000010003000100020001000400010002FE
:1017DC0000010003000100020001000500010002ED
:1017EC0000010003000100020001000400010002DE
:1017FC0000010003000100020001000600010002CC
:10180C0000010003000100020001000400010002BD
:10181C0000010003000100020001000500010002AC
:10182C00000100030001000200010004000100029D
:0C183C0000010003000100020001000098
:00000001FF
