:100000000C9446000C9463000C9463000C94630001
:100010000C9463000C9463000C9463000C946300D4
:100020000C9463000C9463000C9463000C946300C4
:100030000C9463000C9463000C9463000C946300B4
:100040000C943C090C9463000C9463000C946300C2
:100050000C9463000C9463000C9463000C94630094
:100060000C9463000C9463000C9463000C94630084
:100070000C9463000C9463000C9463000C94630074
:100080000C9463000C9463000C94630011241FBE55
:10009000CFEFD0E1DEBFCDBF12E0A0E0B1E0E8E6F7
:1000A000F9E102C005900D92AA36B107D9F718E020
:1000B000AAE6B2E001C01D92AF31B107E1F70E949C
:1000C0009F010C94B20C0C9400001092980087E6EB
:1000D00080939900EAE9F0E0808188618083089547
:1000E00080939C0080919B0085FFFCCF08958091B8
:1000F0009B0087FFFCCF80919C000895FC018081CC
:10010000882351F080939C0080919B0085FFFCCF59
:10011000319680818823B1F7089512BE87E083BFAE
:1001200081E087BF0895CF93DF93E0E0F1E0C9E17C
:10013000D0E08081882309F053C020E23EE4CE0164
:100140000197F1F721503040D1F7E9E0F1E08AE082
:1001500080939C0080919B0085FFFCCF319680812D
:100160008823B1F784E00E942005E2E1F1E08AE013
:1001700080939C0080919B0085FFFCCF319680810D
:100180008823B1F785E00E942005EBE1F1E08AE0E9
:1001900080939C0080919B0085FFFCCF31968081ED
:1001A0008823B1F786E00E942005E4E2F1E08AE0CE
:1001B00080939C0080919B0085FFFCCF31968081CD
:1001C0008823B1F720E23EE4CE010197F1F72150F8
:1001D0003040D1F7E0E0F1E08081882309F4ADCF31
:1001E00080939C0080919B0085FFFCCF3196A1CF2E
:1001F000CF93DF93ECE2F1E0C9E1D0E08081882386
:1002000029F520E23EE4CE010197F1F7215030407C
:10021000D1F786E00E94D804E5E3F1E08AE080931C
:100220009C0080919B0085FFFCCF319680818823C4
:10023000B1F720E23EE4CE010197F1F721503040C2
:10024000D1F7ECE2F1E080818823D9F280939C0021
:1002500080919B0085FFFCCF3196D0CFCF93DF9369
:10026000EDE3F1E0C9E1D0E08081882329F520E2C7
:100270003EE4CE010197F1F721503040D1F785E0FF
:100280000E94D804E6E4F1E08AE080939C0080912B
:100290009B0085FFFCCF319680818823B1F720E257
:1002A0003EE4CE010197F1F721503040D1F7EDE364
:1002B000F1E080818823D9F280939C0080919B009B
:1002C00085FFFCCF3196D0CFCF93DF9312BE87E06E
:1002D00083BF81E087BFEEE4F1E0C9E1D0E0808137
:1002E000882329F520E23EE4CE010197F1F7215061
:1002F0003040D1F784E00E94D804E7E5F1E08AE0DD
:1003000080939C0080919B0085FFFCCF319680817B
:100310008823B1F720E23EE4CE010197F1F72150A6
:100320003040D1F7EEE4F1E080818823D9F2809368
:100330009C0080919B0085FFFCCF3196D0CF0E941E
:10034000F60784E691E060E070E04DE756E024E0D7
:100350000E9400068EE291E060E070E049E653E022
:1003600025E00E94000688EF90E060E070E049E63A
:1003700054E026E00E94000683E990E060E070E02F
:1003800049E655E027E00E9400061092980087E6B3
:1003900080939900EAE9F0E08081886180830E947F
:1003A00076070895CF93DF9300D000D000D0EDB74B
:1003B000FEB73196CAE6D5E0ADB7BEB71296DC936C
:1003C000CE9311972FE531E0338322839583848385
:1003D0000E94DA0980916A052DB73EB72A5F3F4F28
:1003E0000FB6F8943EBF0FBE2DBF882359F0FE0113
:1003F00080939C0080919B0085FFFCCF319680818B
:100400008823B1F7DF91CF910895FA018083929309
:1004100012921292129212921292129212921292BC
:1004200012921292129212921292129212921292AC
:10043000129212921292129212921292129212929C
:1004400062937293129212921292129212921292DA
:1004500080E882933197CF01089508950895089513
:1004600008950895089508950895089580917F0648
:10047000813009F0089580919D068F3FD9F38F5FF9
:1004800080939D06089580917F06813009F008953C
:10049000F89480917E068F3F19F08F5F80937E06DF
:1004A000789408958CEF90E0089508951F93CF936A
:1004B000DF93EC01142F3981E32FF0E0E659FE4F72
:1004C0002081622F70E0FB01EE59FE4F4081DC017C
:1004D000A60FB71F16969C911697E92FF0E0E659E4
:1004E000FE4F8081E82FF0E0EE59FE4F5081220F41
:1004F000220F220F280F852F8095892316968C9323
:10050000882321F4842F809538233983E22FF0E06B
:10051000EE0FFF1FE156F84F0190F081E02D11869C
:10052000108617821682812F809592858923828773
:10053000882359F480919106842B80939106FB01C6
:10054000EE56F94F8081582B5083822FDF91CF9147
:100550001F910895CF93DF93EC01A0919E06B09177
:100560009F0617969C938E9316971D968C911D97B8
:10057000482F50E01E963C911E97FA01EE56F94F17
:10058000832F80959081892380838823A9F41F96E7
:100590002C91922F909580919106892380939106BA
:1005A000FE01E40FF51F8681832B86838981822BD0
:1005B0008983DF91CF9108951F962C91F1CFCF932E
:1005C000DF93EC01A0919E06B0919F061D968C9141
:1005D0001D97FE01E80FF11D1E968C911E978095C8
:1005E000968189238683882339F41F969C911F97CF
:1005F00090958981892389831A961C921A97179658
:100600001C921E921697DF91CF910895FC011182E2
:100610001682178210861186128613861486158616
:100620000895CF93DF939C0180919D068823E9F480
:10063000F894C0919A06D0919B06209731F08C8156
:100640009D8190939B0680939A067894209749F019
:1006500083E088833B832A831D821C82CE010E9413
:100660000603CE01DF91CF910895C0E0D0E0CE0126
:10067000DF91CF9108958F3F89F0F894E82FF0E053
:10068000EE0FFF1FE156F84F0190F081E02D3097FB
:1006900069F08EE3808B80E078940895F894E0917F
:1006A0009E06F0919F068089789408958BE0789457
:1006B00008951F93CF93DF93182FF894C0918C0661
:1006C000D0918D06209709F455C08A819B81909323
:1006D0008D0680938C067894798368831B871A86AD
:1006E00019861886188AE12FE695E695E695ED8736
:1006F000F0E0EE59FE4F80818F87E12FE770EC87A5
:10070000F0E0EE59FE4F80818E871F821E82CE015F
:100710000E943502CE010E942D02F894E12FF0E0F4
:10072000EE0FFF1FE156F84FD183C083E09186069C
:10073000F0918706FB83EA831D821C82309711F0BB
:10074000D583C483D0938706C09386068091910693
:100750009F85892B80939106ED85F0E0EE56F94F49
:1007600080819E85892B8083789480E0DF91CF9172
:100770001F910895789486E4DF91CF911F91089599
:10078000F8948091800690918106A0918206B091A4
:1007900083060196A11DB11D80938006909381066A
:1007A000A0938206B093830678940E943402E8CF27
:1007B000F89480919D06882309F03FC080917E06C1
:1007C0008823D9F5E0919106F0E0E659FE4F80814B
:1007D000E82FF0E0EE56F94FE081F0E0E659FE4FE9
:1007E000982F990F990F990F8081980F90938406F5
:1007F00080918506981709F1E92FF0E0EE0FFF1FB1
:10080000E156F84F808191819093900680938F06F6
:100810008091880690918906A0918A06B0918B06F6
:100820000196A11DB11D8093880690938906A0931F
:100830008A06B0938B060E94A808789408959C01BC
:10084000009721F1F894A0919E06B0919F061D9605
:10085000EC911D97F0E0EE56F94F1E968C911E9785
:100860008095908189238083882349F41F969C91E9
:100870001F979095809191068923809391061996F0
:100880003C932E93189778940E94D80308958F92E2
:100890009F92AF92BF92CF92DF92EF92FF920F930F
:1008A0001F93CF93DF93882E162F942E8823C9F0A1
:1008B0001C3300F58BE3891590F093E0283E39074F
:1008C000D8F083E5DF91CF911F910F91FF90EF90CA
:1008D000DF90CF90BF90AF909F908F90089582E56A
:1008E000F1CF662329F7442329F72115310529F78C
:1008F00084E5E8CF81E5E6CFB90180E090E02DE323
:1009000030E040E050E00E94990968517E4F8F4FDF
:100910009F4F28EE33E040E050E00E94B8095901B3
:100920006A01612F70E080E090E02CE330E040E06D
:1009300050E00E9499097B018C01E90CF11C011D1A
:10094000111D682D70E080E090E020E13EE040E085
:1009500050E00E949909E60EF71E081F191FC801F2
:10096000B7012DE330E040E050E00E949909A60E67
:10097000B71EC81ED91E760100271127E7018FEF89
:100980009FEFA0E0B0E0A822B922CA22DB22C50175
:100990000E941F04EF2851F080E090E80E941F049D
:1009A00080E090E80E941F042197B1F780E08ACF91
:1009B000F8948F3FB9F1E0919E06F0919F06E38590
:1009C000E81771F1E82F20E0F0E0EE0FFF1FE1568D
:1009D000F84FA081B181109761F11D96EC911D97A0
:1009E000F0E0EE56F94F1E968C911E9780959081FF
:1009F00089238083882349F41F969C911F979095A3
:100A0000809191068923809391061A968C911A976A
:100A100088601A968C937894213071F080E0089564
:100A200021E0D2CFE0919E06F0919F06E38521E080
:100A3000CBCF78948AE508950E94D80380E008958A
:100A4000E82FF894F0E0EE0FFF1FE156F84FA08179
:100A5000B1811097B9F01A968C911A9783FD03C053
:100A6000789485E60895877F1A968C931A97882341
:100A700031F418968D919C911997892B31F07894C7
:100A800080E00895789484E60895809191061F96F9
:100A90009C911F97892B809391061D96EC911D9731
:100AA000F0E0EE56F94F80811E969C91892B808351
:100AB00078940E94D80380E008950F931F93CF93FA
:100AC000DF93E82F80919D06882309F068C0F89491
:100AD000EF3F09F47FC00E2F10E0000F111FF80147
:100AE000E156F84FC081D181209709F479C08D85F6
:100AF000482F50E02E852095FA01EE56F94F80815F
:100B000082238083882309F454C0AE81BF8110976B
:100B100049F0FD01E40FF51F868182238683882337
:100B200009F44FC0198618861A8680917E068F3F79
:100B300019F08F5F80937E067894F8948823A9F546
:100B4000CE010E942E0280918E06815080938E06E7
:100B50000156184FF80111821082AC81BD811097A7
:100B600009F445C08A819B8113969C938E931297BA
:100B7000EA81FB81B583A48380918C0690918D06D8
:100B80009B838A83D0938D06C0938C0678940E94B1
:100B9000D80380E0DF91CF911F910F9108958FE3EB
:100BA000DF91CF911F910F910895815080937E0620
:100BB000C7CF9F8590958091910689238093910658
:100BC000A4CF9F85909511968C91119789231196AA
:100BD0008C93A8CFE0919E06F0919F06E3857BCF92
:100BE00078948CE3DF91CF911F910F910895EA8162
:100BF000FB8115821482F0938706E0938606BCCFB2
:100C0000AF92BF92CF92DF92EF92FF920F931F931A
:100C1000CF93DF93FC01122FF894C22FD0E0CC0FBA
:100C2000DD1FC156D84F88819981892B71F0789446
:100C300018E2812FDF91CF911F910F91FF90EF90DC
:100C4000DF90CF90BF90AF90089581E090E09983BE
:100C500088837894CF0120E030E00E940502BC0137
:100C6000812F40E050E020E030E0EE24FF248701B7
:100C7000CC24DD24AA24BB240E945903182F8823E6
:100C800071F4F89480918E068F5F80938E0678942D
:100C900080917F06813069F60E94D803CACFF8940C
:100CA000198218827894C5CFFC01F8948181882339
:100CB00079F4828193812FEF8F3F920731F0019673
:100CC00093838283789480E00895789482E30895F2
:100CD000CF0160E070E041E00E94560278940E94EB
:100CE000D80380E008950F931F93CF93DF93EC0117
:100CF0008A0180919D06882309F075C0F8948A8145
:100D00009B81009709F064C0A0919E06B0919F0658
:100D10001A968C911A9781601A968C931A97199645
:100D20007C936E9318971796DC93CE9316971D9627
:100D30008C911D97482F50E01E963C911E97FA010A
:100D4000EE56F94F832F80959081892380838823E5
:100D500009F451C01F962C91FE01E40FF51F868106
:100D6000832B86838981822B898378940E94D80380
:100D7000F894A0919E06B0919F061A968C911A97AE
:100D800080FF43C01D968C911D97FE01E80FF11D59
:100D90001E968C911E978095968189238683882341
:100DA00039F41F969C911F97909589818923898397
:100DB0001A961C921A9717961C921E921697789460
:100DC0008AE0F8018083DF91CF911F910F91089500
:100DD00001979B838A837894FA011082DF91CF91E7
:100DE0001F910F91089582E0FA018083DF91CF91E6
:100DF0001F910F9108951F962C91922F909580919D
:100E00009106892380939106A7CF17961C921E9274
:100E100016977894F8011082DF91CF911F910F916E
:100E2000089580917F06813009F00895F8948091AB
:100E30007E06882359F0815080937E06882321F412
:100E400080919D06882321F07894089578940895E0
:100E500078940E94D80308950E94310280917F0601
:100E6000813009F00895A0918606B09187061B96FF
:100E70008C911B978F33B1F32091910641E050E0A4
:100E80001AC01F968C911F97282B1D96EC911D97C9
:100E9000F0E0EE56F94F80811E969C911E97892BAB
:100EA000808312960D90BC91A02D78941B968C9106
:100EB0001B978F33C1F0F89418968D919C911997D8
:100EC000009779F3019719969C938E931897892B25
:100ED00041F71A968C911A9783FFD3CF19965C939A
:100EE0004E931897DECF20939106089580917F0648
:100EF00081110895E0919106F0E0E659FE4FA0813E
:100F0000EA2FF0E0EE56F94FE081F0E0E659FE4FAF
:100F1000AA0FAA0FAA0F8081A80FA0938406A093FE
:100F20008506B0E0AA0FBB1FA156B84F8D919C91CA
:100F30009093900680938F0690939F0680939E06D1
:100F40000E947608089580917F06813009F0089507
:100F5000F89480919D06882339F0815080939D06F6
:100F6000882311F07894089580917E068823D1F724
:100F7000E0919106F0E0E659FE4F808180939C0657
:100F8000E82FF0E0EE56F94FE081F0E0E659FE4F31
:100F9000982F990F990F990F8081980F909384063D
:100FA000809185069817F1F2E92FF0E0EE0FFF1F10
:100FB000E156F84F808191819093900680938F063F
:100FC0008091880690918906A0918A06B0918B063F
:100FD0000196A11DB11D8093880690938906A09368
:100FE0008A06B0938B060E940709BCCF0E9432028A
:100FF00010929D0610927E0610928E0610927F0629
:10100000109288061092890610928A0610928B061A
:10101000109280061092810610928206109283062A
:1010200010929106E2E9F6E0119286E0EA39F807BB
:10103000D9F71092850610928406109290061092AD
:101040008F0610929F0610929E06109287061092AD
:101050008606EFE9F7E01192119288E0EF31F80788
:10106000D1F78BE597E090934D0780934C0741961D
:1010700090935E0780935D07419690936F078093EE
:101080006E0741969093800780937F071092910797
:10109000109290078454904090938D0680938C0614
:1010A000109220078EE297E0909325078093240703
:1010B00010922E070E9690933307809332074C9729
:1010C00010923C07109241071092400790939B06A4
:1010D00080939A0680EC93E060E070E04FE157E087
:1010E0002FE30E9400060E94330208950E942F02FF
:1010F00000917F06039500937F06E0918F06F091A3
:101100009006C191CDBFD191DEBF0F910FBFFF916E
:10111000EF91DF91CF91BF91AF919F918F917F918F
:101120006F915F914F913F912F911F910F91FF9080
:10113000EF90DF90CF90BF90AF909F908F907F9077
:101140006F905F904F903F902F901F900F90089559
:101150000F921F922F923F924F925F926F927F92C7
:101160008F929F92AF92BF92CF92DF92EF92FF92B7
:101170000F931F932F933F934F935F936F937F939F
:101180008F939F93AF93BF93CF93DF93EF93FF938F
:101190000FB70F93E0919E06F0919F06CDB7C193D4
:1011A000DEB7D1930E942F0200918406009385063A
:1011B000E0918F06F0919006E0939E06F0939F06D3
:1011C000C191CDBFD191DEBF0F910FBFFF91EF91C4
:1011D000DF91CF91BF91AF919F918F917F916F914F
:1011E0005F914F913F912F911F910F91FF90EF9041
:1011F000DF90CF90BF90AF909F908F907F906F9037
:101200005F904F903F902F901F900F9008950E94F5
:101210002F020091840600938506E0918F06F091DD
:101220009006E0939E06F0939F06C191CDBFD191A9
:10123000DEBF0F910FBFFF91EF91DF91CF91BF9173
:10124000AF919F918F917F916F915F914F913F915E
:101250002F911F910F91FF90EF90DF90CF90BF9053
:10126000AF909F908F907F906F905F904F903F9046
:101270002F901F900F9008950F921F922F923F92E0
:101280004F925F926F927F928F929F92AF92BF9296
:10129000CF92DF92EF92FF920F931F932F933F9382
:1012A0004F935F936F937F938F939F93AF93BF936E
:1012B000CF93DF93EF93FF930FB700680F930091E5
:1012C0009D06039500939D06013041F4CDB7DEB72E
:1012D000E0919E06F0919F06C193D19300E002BF7A
:1012E00078940E942C0700000E94A3070F910FBF63
:1012F000FF91EF91DF91CF91BF91AF919F918F912E
:101300007F916F915F914F913F912F911F910F911D
:10131000FF90EF90DF90CF90BF90AF909F908F9015
:101320007F906F905F904F903F902F901F900F9005
:101330000895629FD001739FF001829FE00DF11D1F
:10134000649FE00DF11D929FF00D839FF00D749F3F
:10135000F00D659FF00D9927729FB00DE11DF91FEB
:10136000639FB00DE11DF91FBD01CF011124089548
:10137000A1E21A2EAA1BBB1BFD010DC0AA1FBB1F99
:10138000EE1FFF1FA217B307E407F50720F0A21B0B
:10139000B30BE40BF50B661F771F881F991F1A9478
:1013A00069F760957095809590959B01AC01BD01A2
:1013B000CF010895AEE0B0E0E0EEF9E00C94890CC6
:1013C0000D891E8986E08C831A8309838FEF9FE73E
:1013D0009E838D839E01275E3F4FCE0101966F89CC
:1013E000788DA9010E94FE092F813885020F131FF5
:1013F000F80110822E96E4E00C94A50CABE0B0E06E
:10140000E4E0FAE00C947B0C3C012B015A01FC0156
:1014100017821682838181FD03C06FEF7FEFC6C103
:101420009AE0892E1E010894211C311CF3012381AE
:10143000F20123FD859123FF81912F01882309F477
:10144000B2C1853239F423FD859123FF81912F01AB
:10145000853229F490E0B3010E94F10BE7CF982F79
:10146000FF24EE249924FFE1FF15D0F09B3269F0B0
:101470009C3228F4903259F0933291F40EC09D3290
:1014800049F0903369F441E024C052E0F52A84E049
:10149000F82A28C098E0F92A25C0E0E1FE2A22C0F7
:1014A000F7FC29C0892F80538A3070F4F6FE05C0FE
:1014B000989C902C1124980E15C0E89CE02C1124C7
:1014C000E80EF0E2FF2A0EC09E3229F4F6FC6BC152
:1014D00040E4F42A07C09C3619F450E8F52A02C00B
:1014E000983649F4F20123FD959123FF91912F0144
:1014F000992309F0B8CF892F8554833018F0805292
:10150000833038F444E050E0A40EB51E5FE3598305
:101510000FC0933631F0933779F0933509F056C008
:1015200020C0F5018081898342E050E0A40EB51E01
:10153000610101E010E012C0F501C080D180F6FC2D
:1015400003C06FEF7FEF02C0692D70E042E050E012
:10155000A40EB51EC6010E94E60B8C015FE7F522C2
:1015600014C0F501C080D180F6FC03C06FEF7FEF9F
:1015700002C0692D70E042E050E0A40EB51EC60125
:101580000E94DB0B8C0150E8F52AF3FE07C01AC05D
:1015900080E290E0B3010E94F10BEA948E2D90E07E
:1015A00008171907A8F30EC0F601F7FC8591F7FE9E
:1015B00081916F0190E0B3010E94F10BE110EA9478
:1015C000015010400115110579F7EAC0943611F069
:1015D000993669F5F7FE08C0F50120813181428115
:1015E000538184E090E00AC0F501808191819C01E3
:1015F000442737FD4095542F82E090E0A80EB91E95
:101600009FE6F92257FF09C05095409530952195E6
:101610003F4F4F4F5F4FE0E8FE2ACA01B901A101D9
:101620002AE030E00E941D0CD82ED21840C0953719
:1016300029F41F2D1F7E2AE030E01DC01F2D197FC9
:101640009F3661F0903720F4983509F0ACC00FC098
:10165000903739F0983709F0A6C004C028E030E090
:101660000AC0106114FD146020E130E004C014FDD4
:10167000166020E132E017FF08C0F501608171813A
:101680008281938144E050E008C0F501808191811E
:10169000BC0180E090E042E050E0A40EB51EA10144
:1016A0000E941D0CD82ED2188FE7F82EF122F6FEDC
:1016B0000BC05EEFF522D91438F4F4FE07C0F2FC3B
:1016C00005C08FEEF82202C01D2D01C0192DF4FEB9
:1016D0000DC0FE01ED0DF11D8081803319F499EEEE
:1016E000F92208C01F5FF2FE05C003C08F2D867867
:1016F00009F01F5F0F2DF3FC14C0F0FE0FC01E1584
:1017000010F09D2C0BC09D2C9E0C911A1E2D06C016
:1017100080E290E0B3010E94F10B1F5F1E15C0F341
:1017200004C01E1510F4E11A01C0EE2404FF0FC01E
:1017300080E390E0B3010E94F10B02FF1DC001FDA8
:1017400003C088E790E00EC088E590E00BC0802FD2
:10175000867891F001FF02C08BE201C080E2F7FCC5
:101760008DE290E0B3010E94F10B06C080E390E0AF
:10177000B3010E94F10B9A94D914C0F3DA94F101E9
:10178000ED0DF11D808190E0B3010E94F10BDD2091
:10179000A9F706C080E290E0B3010E94F10BEA9441
:1017A000EE20C1F743CEF30166817781CB012B9602
:1017B000E2E10C94970CFC0105906150704001101F
:1017C000D8F7809590958E0F9F1F0895FC0161506A
:1017D000704001900110D8F7809590958E0F9F1F53
:1017E00008950F931F93CF93DF938C01EB018B81AF
:1017F00081FF1BC082FF0DC02E813F818C819D81A6
:101800002817390764F4E881F9810193F983E883A3
:1018100006C0E885F985802F0995892B31F48E81E2
:101820009F8101969F838E8302C00FEF1FEFC80137
:10183000DF91CF911F910F910895FA01AA272830C7
:1018400051F1203181F1E8946F936E7F6E5F7F4F8D
:101850008F4F9F4FAF4FB1E03ED0B4E03CD0670F09
:10186000781F891F9A1FA11D680F791F8A1F911D5C
:10187000A11D6A0F711D811D911DA11D20D009F4AC
:1018800068943F912AE0269F11243019305D3193EE
:10189000DEF6CF010895462F4770405D4193B3E0D7
:1018A0000FD0C9F7F6CF462F4F70405D4A3318F07E
:1018B000495D31FD4052419302D0A9F7EACFB4E02F
:1018C000A6959795879577956795BA95C9F70097E7
:1018D0006105710508959B01AC010A2E0694579588
:1018E000479537952795BA95C9F7620F731F841FDF
:1018F000951FA01D08952F923F924F925F926F9275
:101900007F928F929F92AF92BF92CF92DF92EF928F
:10191000FF920F931F93CF93DF93CDB7DEB7CA1B10
:10192000DB0B0FB6F894DEBF0FBECDBF09942A883B
:10193000398848885F846E847D848C849B84AA84E3
:10194000B984C884DF80EE80FD800C811B81AA8170
:10195000B981CE0FD11D0FB6F894DEBF0FBECDBF3B
:08196000ED010895F894FFCF9A
:101968000A346265666F7265000A726573756D6523
:1019780031000A726573756D6532000A7265737598
:101988006D6533000A346166746572000A336265F6
:10199800666F7265000A336166746572000A3262A6
:1019A80065666F7265000A326166746572000A3195
:1019B8006265666F7265000A31616674657200253A
:1019C80064000102040810204080000001000200A9
:1019D80001000300010002000100040001000200F0
:1019E80001000300010002000100050001000200DF
:1019F80001000300010002000100040001000200D0
:101A080001000300010002000100060001000200BD
:101A180001000300010002000100040001000200AF
:101A2800010003000100020001000500010002009E
:101A3800010003000100020001000400010002008F
:101A4800010003000100020001000700010002007C
:101A5800010003000100020001000400010002006F
:101A6800010003000100020001000500010002005E
:101A7800010003000100020001000400010002004F
:101A8800010003000100020001000600010002003D
:101A9800010003000100020001000400010002002F
:101AA800010003000100020001000500010002001E
:101AB800010003000100020001000400010002000F
:0A1AC800010003000100020001000C
:00000001FF
