:100000000C9446000C9463000C9463000C94630001
:100010000C9463000C9463000C9463000C946300D4
:100020000C9463000C9463000C9463000C946300C4
:100030000C9463000C9463000C9463000C946300B4
:100040000C9463000C9463000C9463000C946300A4
:100050000C9463000C9463000C9463000C94630094
:100060000C9463000C9463000C9463000C94630084
:100070000C9463000C9463000C9463000C94630074
:100080000C9463000C9463000C94630011241FBE55
:10009000CFEFD0E1DEBFCDBF11E0A0E0B1E0EAE3F9
:1000A000F6E002C005900D92A234B107D9F711E035
:1000B000A2E4B1E001C01D92A234B107E1F70E94B1
:1000C000D6020C941B030C940000EF92FF920F9346
:1000D0001F93DF93CF93CDB7DEB7EC970FB6F894AD
:1000E000DEBF0FBECDBF7B018C01DE015596E9E17D
:1000F000F1E088E201900D928150E1F7DE01119666
:10010000E5E0F1E084E101900D928150E1F788E1B2
:1001100080939A0086E180939D00FE0175969E0172
:100120002F5F3F4F40E050E0BE01635C7F4F808116
:100130009181A281B3818E159F05A007B10719F4A3
:10014000D9014D915C9134962E5F3F4FE617F7072A
:1001500071F7CA0190708093990050939800EC96C3
:100160000FB6F894DEBF0FBECDBFCF91DF911F91C8
:100170000F91FF90EF900895982F80919B0085FF3D
:10018000FCCF90939C00089580919B0087FFFCCF4B
:1001900080919C000895FC0107C080919B0085FF21
:1001A000FCCF90939C00319690819923B1F70895EC
:1001B0000F931F93DF93CF9300D00F92CDB7DEB78D
:1001C0009C0119821A821B8242E08E010F5F1F4F31
:1001D00010C0F801E40FF11DC9016AE070E00E944F
:1001E00007038083C9016AE070E00E9407039B0156
:1001F00041502115310569F7F8019E012C5F3F4FF1
:10020000908180919B0085FFFCCF905D90939C0036
:100210003196E217F307A1F70F900F900F90CF914F
:10022000DF911F910F910895DF93CF93CDB7DEB784
:1002300064970FB6F894DEBF0FBECDBF80919B00D0
:1002400087FFFCCF80919C008D30C1F7CE010196D5
:1002500064960FB6F894DEBF0FBECDBFCF91DF918D
:1002600008951F93982F162F80919B0085FFFCCF38
:100270008BE180939C0080919B0085FFFCCF8BE5F8
:1002800080939C00892F90E04E960E94D800809128
:100290009B0085FFFCCF8BE380939C00812F90E037
:1002A00088960E94D80080919B0085FFFCCF8DE648
:1002B00080939C001F910895FF920F931F93CF93FB
:1002C000DF93F82E162FEA01822F602F0E94310152
:1002D00080919B0085FFFCCF8BE180939C008091F7
:1002E0009B0085FFFCCF8BE580939C00812F90E0E5
:1002F0000E94D80080919B0085FFFCCF8BE3809308
:100300009C008F2D90E00E94D80080919B0085FF7B
:10031000FCCF88E480939C0007C080919B0085FF00
:10032000FCCF90939C00219698819923B1F7DF919F
:10033000CF911F910F91FF900895EF92FF920F932D
:100340001F93F82E162FE42E822F602F0E9431016A
:1003500080919B0085FFFCCF8BE180939C00809176
:100360009B0085FFFCCF8BE580939C00812F90E064
:100370000E94D80080919B0085FFFCCF8BE3809387
:100380009C008F2D90E00E94D80080919B0085FFFB
:10039000FCCF88E480939C0080919B0085FFFCCF7C
:1003A000E0929C001F910F91FF90EF900895BF92F3
:1003B000CF92DF92EF92FF920F931F93B82EF62EFB
:1003C000142FC22ED02E09C08B2D6F2D4C2D2D2D0C
:1003D0000E2D0E949D01F39411501123A9F71F9136
:1003E0000F91FF90EF90DF90CF90BF900895BF9254
:1003F000CF92DF92EF92FF920F931F93F82EB62EBB
:10040000142FC22ED02E09C08F2D6B2D4C2D2D2DCB
:100410000E2D0E949D01F39411501123A9F71F91F5
:100420000F91FF90EF90DF90CF90BF900895AF9223
:10043000BF92CF92DF92EF92FF920F931F93B82E4D
:10044000D62EF42E122FA02E8417C1F41D1548F4B9
:100450008B2D612F4A2D2E2D0C2D0E949D011F5F8B
:100460000AC0D11640F48B2D6D2D4A2D2E2D0C2D4A
:100470000E949D01D394D11649F719C06217B9F4AF
:10048000FB1448F48F2D6D2D4A2D2E2D0C2D0E941E
:100490009D01F3940AC0BF1440F48B2D6D2D4A2D9D
:1004A0002E2D0C2D0E949D01B394BF1449F71F916E
:1004B0000F91FF90EF90DF90CF90BF90AF90089595
:1004C000AF92BF92CF92DF92EF92FF920F931F9362
:1004D000F82E162FB42ED22EA02EE82FF0E0242FC7
:1004E00030E0AF01421B530B70E08D2D90E0DB013B
:1004F000A81BB90B4A175B0769F02E1B3F0B861B25
:10050000970B2817390731F04817590719F02A17A0
:100510003B0799F5BF1430F41D1510F51F5FD11678
:10052000E8F72BC0FB1448F5D11660F48F2D612F2E
:100530004A2D2E2D0C2D0E949D01F39411501D1556
:10054000A8F71BC01D15C8F48F2D612F4A2D2E2D25
:100550000C2D0E949D01F3941F5FD116A8F70DC0CA
:10056000D11658F48F2D612F4A2D2E2D0C2D0E945F
:100570009D01FA9411501D15A8F71F910F91FF903E
:10058000EF90DF90CF90BF90AF9008950E9431011F
:10059000E0E0F1E007C080919B0085FFFCCF9093E5
:1005A0009C00319690819923B1F70895EF920F93B3
:1005B000CF93DF9360E875E280E090E00E946500F1
:1005C00087E067E00E94C602C0E9D1E08AE065E00A
:1005D00040E121E404E0EE24E3940E94F70188E87E
:1005E00093E1FE013197F1F70197D9F78AE065E0D1
:1005F00040E122E401E094E0E92E0E94F70188E85E
:1006000093E1FE013197F1F70197D9F7DFCFAA1BEC
:10061000BB1B51E107C0AA1FBB1FA617B70710F0ED
:10062000A61BB70B881F991F5A95A9F7809590951F
:0A063000BC01CD010895F894FFCF3E
:10063A001B5B324A009F01CF00670044003300224F
:10064A0000190010000C00080060090000C0120028
:10065A00008025000040380000004B000080700038
:10066A00000096000000E10000002C010000C20119
:02067A0000007E
:00000001FF
